:020000040000FA
:100000003DEF23F0C96E120012EF1FF07EEC08F0F6
:1000100054EC19F0FDD7120072EF21F0D9CFE5FFB3
:10002000E1CFD9FF00C0E5FF01C0E5FF02C0E5FF59
:1000300003C0E5FF04C0E5FF05C0E5FF06C0E5FF1E
:1000400007C0E5FF08C0E5FF09C0E5FF0AC0E5FFFE
:100050000BC0E5FF0CC0E5FF0DC0E5FF0EC0E5FFDE
:100060000FC0E5FF10C0E5FF11C0E5FF12C0E5FFBE
:1000700013C0E5FF14C0E5FF15C0E5FF16C0E5FF9E
:1000800017C0E5FF18C0E5FF19C0E5FF1AC0E5FF7E
:100090001BC0E5FF1CC0E5FF1DC0E5FF1EC0E5FF5E
:1000A000020EDBCF00F0030EDBCF01F0040EDBCF3E
:1000B00002F0050EDBCF03F0060EDBCF04F0070ED7
:1000C000DBCF05F0080EDBCF06F0090EDBCF07F023
:1000D0000A0EDBCF08F0096A0A6A02C00DF00D5063
:1000E000800A0DE102500A01716F0150706F0050DB
:1000F0006F6F0A0E016E6F0E006E800E026E03C0EF
:10010000E9FF04C0F3FF055089EC23F00B6E0B50A0
:10011000D8B4C4EF03F00B50250A02E0ABEF03F0B4
:100120000C6A0D6A0E6A0F6A106A0A0E116E126A64
:10013000136A146A200E156E1668176A2B0E186E55
:10014000032A02E3044A052A03C0E9FF04C0F3FFBF
:10015000055089EC23F0196E250A13E11950E56E5C
:100160000250E56E0150E56E0050E56EC8EC14F0EB
:10017000040EE126094A0A2A032A02E3044A052A50
:10018000BED71950300A06E1300E156E032A02E37D
:10019000044A052A03C0E9FF04C0F3FF055089ECB7
:1001A00023F02D0A06E1010E146E032A02E3044A2D
:1001B000052A03C0E9FF04C0F3FF055089EC23F0D2
:1001C000200A08E1010E176E200E186E032A02E3C2
:1001D000044A052A03C0E9FF04C0F3FF055089EC77
:1001E00023F02B0A06E1010E176E032A02E3044AEC
:1001F000052A03C0E9FF04C0F3FF055089EC23F092
:10020000196E310E195C2BE33A0E195C28E203C01B
:1002100019F004C01AF005C01BF019C0E9FF1AC09C
:10022000F3FF1B5089EC23F01C6E300E1C5C11E3B5
:100230003A0E1C5C0EE213500A0DF3CF1DF01D5058
:100240001C26D00E1C24136E192A02E31A4A1B2AFC
:10025000E4D719C003F01AC004F01BC005F003C0B6
:10026000E9FF04C0F3FF055089EC23F02E0A2DE1CD
:10027000032A02E3044A052A166A03C019F004C0DF
:100280001AF005C01BF019C0E9FF1AC0F3FF1B509C
:1002900089EC23F01C6E300E1C5C11E33A0E1C5CE2
:1002A0000EE216500A0DF3CF1DF01D501C26D00E85
:1002B0001C24166E192A02E31A4A1B2AE4D719C015
:1002C00003F01AC004F01BC005F003C0E9FF04C02E
:1002D000F3FF055089EC23F0196E6C0A07E1010E5B
:1002E0000C6E032A02E3044A052A09D01950680A51
:1002F00006E1010E0E6E032A02E3044A052A03C03A
:10030000E9FF04C0F3FF055089EC23F0750A06E10C
:10031000010E106E032A02E3044A052A03C0E9FF16
:1003200004C0F3FF055089EC23F0196E730A05E150
:10033000010E0D6E200E156E3FD01950780A03E1A4
:10034000100E116E39D01950580A05E1100E116EB9
:10035000010E126E31D01950630A02E1116A2CD0DD
:1003600019506F0A03E1080E116E26D01950660A63
:1003700003E1010E0F6E20D01950640A1DE01950E0
:10038000690A1AE0105005E0FF0E03260422052238
:1003900013D01950E56E0250E56E0150E56E005025
:1003A000E56EC8EC14F0040EE126094A0A2A032A75
:1003B00002E3044A052AA3D60D5021E00650030F9C
:1003C0000D6E000E0720196E000E08201A6E0DC06B
:1003D00006F019C007F01AC008F0FD0E0D26FF0E3A
:1003E00019221A220DC0E9FF19C0F3FF1A5052EC6E
:1003F00022F00D6EF3CF19F0F4CF1AF0FDD00F50AC
:100400000DE0000E1A6E080E196E100E0D6E040E21
:100410000626000E072208221668EED016680C5039
:1004200023E00650040F0C6E000E07200F6E000E26
:1004300008201B6E0CC006F00FC007F01BC008F0B0
:10044000FC0E0C26FF0E0F221B220CC0E9FF0FC072
:10045000F3FF1B50BBEC21F00C6EF3CF0FF0F4CF89
:100460001BF0E9CF1CF067D00E502FE00650020FB2
:100470000E6E000E07201D6E000E08201E6E0EC0B0
:1004800006F01DC007F01EC008F0FE0E0E26FF0E7F
:100490001D221E220EC0E9FF1DC0F3FF1E5011ECED
:1004A00023F00E6E0EC00CF00F6A1B6A1C6A11500E
:1004B0000A0A03E11050D8B43ED00C500E6E0EC0A4
:1004C0000CF00F6A1B6A1C6A36D00650020F0E6EC3
:1004D000000E07201D6E000E08201E6E0EC006F0D6
:1004E0001DC007F01EC008F0FE0E0E26FF0E1D22D6
:1004F0001E220EC0E9FF1DC0F3FF1E5011EC23F0B9
:100500000E6EF3CF1DF00EC00CF01DC00FF0E86AA8
:100510001DBEFF0E1B6E1C6E11500A0A02E1105028
:100520000AE00C500E6E0F501D6E0EC00CF01DC078
:100530000FF01B6A1C6A040E196EF40E0D6E800E0D
:100540001A6E1150D8B440D0105013E01150E56E1F
:10055000040EE56EF40EE56E1C50E56E1B50E56E64
:100560000F50E56E0C50E56EF2EC0FF0070EE12631
:1005700012D01150E56E040EE56EF40EE56E1C50BF
:10058000E56E1B50E56E0F50E56E0C50E56EF1EC1C
:1005900018F0070EE12617502FE00DC0E9FF19C033
:1005A000F3FF1A5089EC23F02D0A26E0FF0E0D26EA
:1005B00019221A2218C0E5FF0DC0E9FF19C0F3FF88
:1005C0001A5012EC24F018D00CC0E5FF0DC0E9FF62
:1005D00019C0F3FF1A5012EC24F00D50010F0C6EED
:1005E000000E19200E6E000E1A20E56A0CC0E9FFFD
:1005F0000EC0F3FF12EC24F00DC00CF019C00EF089
:100600001AC00FF013C010F0105010E00CC0E9FF3A
:100610000EC0F3FF0F5089EC23F0176E175006E061
:100620000C2A02E30E4A0F2A1006EED710C013F070
:1006300014501EE109C00CF00AC00EF010C00FF0FB
:100640000F5010E01550E56E0250E56E0150E56E5A
:100650000050E56EC8EC14F0040EE1260C4A0E2A98
:100660000F06EED70CC009F00EC00AF00FC013F051
:1006700016C00CF00DC00DF019C00EF01AC00FF02E
:1006800009C010F00AC015F00DC0E9FF0EC0F3FF5D
:100690000F5089EC23F0166E1650D8B43ED00CC023
:1006A00016F0176A161E171E1650171005E00CC01C
:1006B00016F00C06165031E00DC0E9FF0EC0F3FF36
:1006C0000F5089EC23F0116E125010E01150E56EBE
:1006D000CEEC22F0166EE652165004E0DF0E111436
:1006E000166E02D011C016F016C011F01150E56E52
:1006F0000250E56E0150E56E0050E56EC8EC14F056
:10070000040EE1260D2A02E30E4A0F2A104A152A8A
:100710001350D8B4B9D71306B7D710C009F015C015
:100720000AF014502BE010C00CF015C00DF013C0EF
:100730000EF00E501FE0200EE56E0250E56E0150E7
:10074000E56E0050E56EC8EC14F0040EE1260C4A8C
:100750000D2A0E06EED70B50E56E0250E56E0150E5
:10076000E56E0050E56EC8EC14F0040EE126094A6F
:100770000A2A04D00CC009F00DC00AF0032A02E3D3
:10078000044A052A7FEF00F00AC0F3FF0950E4CFC6
:100790001EF0E4CF1DF0E4CF1CF0E4CF1BF0E4CF5B
:1007A0001AF0E4CF19F0E4CF18F0E4CF17F0E4CF5B
:1007B00016F0E4CF15F0E4CF14F0E4CF13F0E4CF5B
:1007C00012F0E4CF11F0E4CF10F0E4CF0FF0E4CF5B
:1007D0000EF0E4CF0DF0E4CF0CF0E4CF0BF0E4CF5B
:1007E0000AF0E4CF09F0E4CF08F0E4CF07F0E4CF5B
:1007F00006F0E4CF05F0E4CF04F0E4CF03F0E4CF5B
:1008000002F0E4CF01F0E4CF00F0E4CFD9FF120012
:100810003C4E4F20464C4F41543E000000C0E5FF87
:1008200001C0E5FF02C0E5FF03C0E5FF04C0E5FF2E
:1008300005C0E5FF06C0E5FF07C0E5FF08C0E5FF0E
:1008400009C0E5FF0AC0E5FF0BC0E5FF0CC0E5FFEE
:10085000006A016A026A040E025CD8B0E8D101C0E5
:1008600003F0012A100E035CD8B0E1D10401152B6E
:10087000100E155D01E3156B04011539E8441F0BDB
:10088000036E046A760E03260A0E042203C0E9FFF3
:1008900004C0EAFFEFCF03F0070E1515046E010E3A
:1008A000056E000E066E045006E0E86CD890053622
:1008B0000636010FFCE3076A0350051607500616BB
:1008C00005500610D880E866D890056A05360550B0
:1008D000D8A4C1D704011551020DF450046EF3CF12
:1008E00003F0E00E0324056E000E0420066E05C022
:1008F000E9FF06C0EAFFEECF05F0EFCF06F00401F6
:1009000012A19DD0B30E0324076E040E0420086EBE
:1009100007C0E9FF08C0EAFFEECF07F0EFCF08F00D
:100920000650800FF36E0850800FF35C02E1075011
:10093000055C03E2056A066A60D0D30E0326040E46
:10094000042203C0E9FF04C0EAFFEECF03F0EFCFBB
:1009500004F00450800FF36E0650800FF35C02E148
:100960000550035C04E205683F0E066E46D0075052
:10097000055C096E085006580A6EE86A0ABEFF0E4A
:100980000B6EE56E0B50E56E0A50E56E0950E56E94
:10099000E56AE56A400EE56E000EE56AFFEC0CF0D4
:1009A000096EF3CF0AF0F4CF0BF0E9CF0CF0080E8C
:1009B000E1260750035C076E08500458086EE86A89
:1009C00008BEFF0E036EE56E0350E56E0850E56E3F
:1009D0000750E56E0C50E56E0B50E56E0A50E56E63
:1009E0000950E56E0BEC12F0036EF3CF04F0080E25
:1009F000E1260350056E0450066E04011151800F6C
:100A0000F36E0650800FF35C02E10550105D03E3C6
:100A1000056A066A14D004011051FF08036E3F0EE8
:100A20001155046E0650800FF36E0450800FF35C76
:100A300002E10350055C03E305683F0E066E040106
:100A40001551020DF450046EF3CF03F0930E0326FC
:100A5000040E042203C0E9FF04C0EAFFEECF03F056
:100A6000EFCF04F00350055C036E04500658046E8B
:100A7000D88004AED89004E3041E036CD8B4042AD2
:100A8000022A04011151800FF36E0450800FF35CB1
:100A900002E10350105DD8B0DED604011551020DFD
:100AA000F450086EF3CF07F0930E0726040E0822C9
:100AB00007C0E9FF08C0EAFF05C0EEFF06C0EFFF70
:100AC000040112A55AD004011551020DF450086E0C
:100AD000F3CF07F0000E0724096E0A0E08200A6EF5
:100AE00009C0E9FF0AC0EAFFEECF0BF0EFCF0CF030
:100AF0000B500C10D8B441D05C0E0726040E08220F
:100B000007C0E9FF08C0EAFFEECF07F0EFCF08F01B
:100B10000750055C036E08500658046E03101CE075
:100B20000450800F800F02E1010E035C076A073654
:100B30000C50800F800F02E1010E0B5C0B6A0B362C
:100B400007500B1809E109C0E9FF0AC0EAFF03C01A
:100B5000EEFF04C0EFFF7FD604011551020DF450E3
:100B6000046EF3CF03F0000E03260A0E042203C026
:100B7000E9FF04C0EAFFEE6AEF6A040112A343D062
:100B800000500EE100C003F0002A046A160E03268E
:100B9000040E042203C0E9FF04C0EAFF420EEF6E18
:100BA00000C003F0002A046A160E0326040E042275
:100BB000640E04011525076E03C0E9FF04C0EAFFB7
:100BC00007C0EFFF00C003F0002A046A160E0326D8
:100BD000040E04220650076E03C0E9FF04C0EAFFBA
:100BE00007C0EFFF00C003F0002A046A160E0326B8
:100BF000040E04220550076E03C0E9FF04C0EAFF9B
:100C000007C0EFFF28D615C403F00650E56E055067
:100C1000E56EE56A0350E56E000EE56E2C0EE56E9E
:100C2000AA0EE56EDFEC1DF0070EE12614D602C019
:100C300001F000501DE0040112A31AD000C002F020
:100C4000002A036A160E0226040E032202C0E9FFE0
:100C500003C0EAFF0A0EEF6E0050E56E800EE56EEF
:100C6000040EE56E160EE56E5BEC16F0040EE12642
:100C70000150E4CF0CF0E4CF0BF0E4CF0AF0E4CF66
:100C800009F0E4CF08F0E4CF07F0E4CF06F0E4CFBA
:100C900005F0E4CF04F0E4CF03F0E4CF02F0E4CFBA
:100CA00001F0E4CF00F0120000C0E5FF01C0E5FF55
:100CB00002C0E5FF03C0E5FF04C0E5FF05C0E5FF96
:100CC00006C0E5FF07C0E5FF08C0E5FF09C0E5FF76
:100CD0000AC0E5FFC2A204D00401135167EF08F077
:100CE00004011451D8B41BD104011351020DF45066
:100CF000016EF3CF00F0E00E0026000E012200C0CE
:100D0000E9FF01C0EAFFEECF00F0EFCF01F0250EC2
:100D10001325026E036A040E032202C0E9FF03C01A
:100D2000EAFFEFCF02F00250FF0A01E152D0023891
:100D30000F0B036E920E0324046E056A0F0E05223C
:100D4000066A920E03260F0E062203C0E9FF06C0B4
:100D5000EAFFEFCF03F0070E0214066E010E076ED6
:100D6000065005E0E86CD8900736010FFDE3071C3C
:100D7000066E031604C0E9FF05C0EAFF03C0EFFFDB
:100D800002380F0B036E890E0324046E056A0F0EE2
:100D90000522066A890E03260F0E062203C0E9FF0C
:100DA00006C0EAFFEFCF03F0070E0214066E010E35
:100DB000076E065005E0E86CD8900736010FFDE39A
:100DC000071C066E031604C0E9FF05C0EAFF03C056
:100DD000EFFF04011351020DF450046EF3CF03F042
:100DE000E00E0326000E042201340130066E0030AE
:100DF000056E0634063205320634063205320550D9
:100E0000005C056E06500158066EC3CF07F0086AF5
:100E10000750052608500622C4CF07F0086A07507D
:100E20000A6E096A095005260A50062203C0E9FF26
:100E300004C0EAFF05C0EEFF06C0EFFF04010F513A
:100E4000010A01E06AD004011351020DF450046E4E
:100E5000F3CF03F0E00E0324056E000E0420066EAF
:100E600005C0E9FF06C0EAFFEECF00F0EFCF01F0CA
:100E7000B30E0326040E042203C0E9FF04C0EAFFF8
:100E8000EECF05F0EFCF06F09C0E0526D8A00606A3
:100E90000150800FF36E0650800FF35C02E10550A5
:100EA000005C0EE20050640F056E000E0120066E1D
:100EB00003C0E9FF04C0EAFF05C0EEFF06C0EFFF74
:100EC00004011351020DF450046EF3CF03F0D30E5E
:100ED0000326040E042203C0E9FF04C0EAFFEECF9C
:100EE00005F0EFCF06F0640E0526D8B0062A0650AE
:100EF000800FF36E0150800FF35C02E10050055C3F
:100F00000CE29C0E0026D8A0010603C0E9FF04C035
:100F1000EAFF00C0EEFF01C0EFFF0401146B040103
:100F2000132B100E135D01E3136B04011339E84416
:100F30001F0B006E016A760E00260A0E012200C009
:100F4000E9FF01C0EAFFEFCF00F0070E1315016EB5
:100F5000010E036E000E046E015006E0E86CD8909E
:100F600003360436010FFCE3056A005003160550F2
:100F7000041603500410D880E866D890036A03363C
:100F80000350D8A4A2D0230E04011325006E016AD9
:100F90000F0E012200C0E9FF01C0EAFFEFCF00F011
:100FA0000044E844FC0B016E0128C26E250E132597
:100FB000006E016A040E012200C0E9FF01C0EAFFD1
:100FC000EFCF02F00250FF0A01E17BD002380F0B95
:100FD000006E920E0024016E036A0F0E0322046A53
:100FE000920E00260F0E042200C0E9FF04C0EAFFA3
:100FF000EFCF00F0070E0214046E010E056E0450D0
:1010000005E0E86CD8900536010FFDE305500012AD
:1010100001C0E9FF03C0EAFF00C0EFFF380E006E19
:101020000F0E016E02380F0B036E046A0350002688
:1010300004500122380E056E0F0E066E0550032671
:101040000650042203C0E9FF04C0EAFFEFCF03F01B
:10105000070E0216010E046E025005E0E86CD890EF
:101060000436010FFDE30450031200C0E9FF01C084
:10107000EAFF03C0EFFF0F01458300000000459326
:101080000F0144930BC0E5FFF2CF0BF0F29E4481B9
:101090000000000000000000000000000000000050
:1010A0000000000000000000000000000000000040
:1010B000000000000000000044910BBEF28EE4CF5F
:1010C0000BF0C282010E0401146F04011351E4CF2E
:1010D0000AF0E4CF09F0E4CF08F0E4CF07F0E4CF62
:1010E00006F0E4CF05F0E4CF04F0E4CF03F0E4CF62
:1010F00002F0E4CF01F0E4CF00F0120000C0E5FF01
:1011000001C0E5FF02C0E5FF03C0E5FF05C0E5FF44
:1011100046EC24F083EC20F0F3CF01F0F4CF02F0A2
:10112000E9CF03F0880F04018E6F130E01208F6F3B
:10113000000E0220906F000E0320916FD8EC15F086
:101140009384810E006E0F0E016E0F0E036E380E2B
:101150000026035001220F0E036E800E005E035026
:10116000015A810E026E0F0E036E0F0E056E380EC1
:101170000226055003220F0E056E800E025E0550FA
:10118000035A02C0E9FF03C0EAFFEFCF02F0028476
:1011900000C0E9FF01C0EAFF02C0EFFF080EE56EE4
:1011A000000EE56A8EEC18F0E652E6529286800E4A
:1011B000006E0F0E016E0F0E036E380E00260350E8
:1011C0000122800E026E0F0E036E800E005E035031
:1011D000015A0F0E056E380E0226055003220F0E1F
:1011E000056E800E025E0550035A02C0E9FF03C07F
:1011F000EAFFEFCF02F0028600C0E9FF01C0EAFF7C
:1012000002C0EFFF030EE56E010EE56E8EEC18F0E6
:10121000E652E6529284800E006E0F0E016E0F0EA3
:10122000036E380E002603500122800E026E0F0E50
:10123000036E800E005E0350015A0F0E056E380ECD
:101240000226055003220F0E056E800E025E055029
:10125000035A02C0E9FF03C0EAFFEFCF02F00284A5
:1012600000C0E9FF01C0EAFF02C0EFFF020EE56E19
:10127000E56E8EEC18F0E652E6528DEC1CF0938A87
:10128000810E006E0F0E016E0F0E036E380E0026DB
:10129000035001220F0E036E800E005E0350015AB0
:1012A000810E026E0F0E036E0F0E056E380E0226B3
:1012B000055003220F0E056E800E025E0550035A84
:1012C00002C0E9FF03C0EAFFEFCF02F0029A00C0BC
:1012D000E9FF01C0EAFF02C0EFFF050EE56E800ED8
:1012E000E56E0F0EE56E810EE56E000EE56A19ECF7
:1012F0001DF0050EE1268A98899C8B849398929C18
:1013000094948A96899E8B809396929E94900401E1
:10131000006BB16AB19AB182A282B190A192A0820F
:101320009482820E006E0F0E016E0F0E036E380E49
:101330000026035001220F0E036E800E005E035044
:10134000015A820E026E0F0E036E0F0E056E380EDE
:101350000226055003220F0E056E800E025E055018
:10136000035A02C0E9FF03C0EAFFEFCF02F0029286
:1013700000C0E9FF01C0EAFF02C0EFFF9486820EC1
:10138000006E0F0E016E0F0E036E380E0026035016
:1013900001220F0E036E800E005E0350015A820E72
:1013A000026E0F0E036E0F0E056E380E02260550EC
:1013B00003220F0E056E800E025E0550035A02C016
:1013C000E9FF03C0EAFFEFCF02F0029600C0E9FF99
:1013D00001C0EAFF02C0EFFF9488820E006E0F0E7C
:1013E000016E0F0E036E380E0026035001220F0E01
:1013F000036E800E005E0350015A820E026E0F0EC5
:10140000036E0F0E056E380E0226055003220F0ED6
:10141000056E800E025E0550035A02C0E9FF03C04C
:10142000EAFFEFCF02F0029800C0E9FF01C0EAFF37
:1014300002C0EFFF948A820E006E0F0E016E0F0E37
:10144000036E380E0026035001220F0E036E800E2D
:10145000005E0350015A820E026E0F0E036E0F0ED5
:10146000056E380E0226055003220F0E056E800E03
:10147000025E0550035A02C0E9FF03C0EAFFEFCF46
:1014800002F0029A00C0E9FF01C0EAFF02C0EFFFCC
:1014900004018A6B0F01336B04018B6B0F01346BFA
:1014A00004018C6B0F01356B04018D6B0F01366BE2
:1014B000E4CF05F0E4CF03F0E4CF02F0E4CF01F095
:1014C000E4CF00F0120000C0E5FF01C0E5FF02C05C
:1014D000E5FF03C0E5FF04C0E5FF05C0E5FF948C10
:1014E000820E006E0F0E016E380E026E0F0E036E2E
:1014F0000250002603500122800E026E0F0E036E72
:101500000250005E0350015A820E026E0F0E036EEF
:10151000380E046E0F0E056E04500226055003228D
:10152000800E046E0F0E056E0450025E0550035AC5
:1015300002C0E9FF03C0EAFFEFCF02F0029C00C047
:10154000E9FF01C0EAFF02C0EFFF948E820E006E39
:101550000F0E016E380E026E0F0E036E0250002643
:1015600003500122800E026E0F0E036E0250005EC9
:101570000350015A820E026E0F0E036E380E046E77
:101580000F0E056E0450022605500322800E046ED5
:101590000F0E056E0450025E0550035A02C0E9FFAB
:1015A00003C0EAFFEFCF02F0029E00C0E9FF01C0D6
:1015B000EAFF02C0EFFF9380810E006E0F0E016EF6
:1015C000380E026E0F0E036E0250002603500122E9
:1015D000800E026E0F0E036E0250005E0350015A21
:1015E000810E026E0F0E036E380E046E0F0E056E26
:1015F0000450022605500322800E046E0F0E056E65
:101600000450025E0550035A02C0E9FF03C0EAFF1E
:10161000EFCF02F0029000C0E9FF01C0EAFF02C074
:10162000EFFF9382810E006E0F0E016E380E026E78
:101630000F0E036E0250002603500122800E026E30
:101640000F0E036E0250005E0350015A810E026EAF
:101650000F0E036E380E046E0F0E056E0450022638
:1016600005500322800E046E0F0E056E0450025EBC
:101670000550035A02C0E9FF03C0EAFFEFCF02F0B2
:10168000029200C0E9FF01C0EAFF02C0EFFF8B9C9D
:101690008B9E8A908A920401055102E1949C11D09C
:1016A00004010551010A02E1949E0BD00401055189
:1016B000020A02E1939005D004010551030A01E1F9
:1016C00093928B9C8B9E8A908A9200000000330E2E
:1016D00004010525006E016A0F0E0122026A82B222
:1016E000022A025003E1026A022A01D0026A036A56
:1016F00082B6032A035003E1036A032A01D0036A76
:101700000350020DF3CF03F003500226036A82B8A0
:10171000032A035003E1036A032A01D0036A03503A
:10172000040DF3CF03F003500226036A82BA032AA2
:10173000035003E1036A032A01D0036A0350080D32
:10174000F3CF03F00350022600C0E9FF01C0EAFF17
:1017500002C0EFFF0401052B0551040A02E1040158
:10176000056BE4CF05F0E4CF04F0E4CF03F0E4CF61
:1017700002F0E4CF01F0E4CF00F01200800EE56E3D
:10178000040EE56ED30EE56E5AEC1BF0030EE12657
:10179000800EE56E040EE56EB30EE56E5AEC1BF09E
:1017A000030EE126800EE56E040EE56ED50EE56EA5
:1017B0005AEC1BF0030EE126800EE56E040EE56E7A
:1017C000B50EE56E5AEC1BF0030EE126800EE56EB9
:1017D000040EE56ED70EE56E5AEC1BF0030EE12603
:1017E000800EE56E040EE56EB70EE56E5AEC1BF04A
:1017F000030EE126800EE56E040EE56ED90EE56E51
:101800005AEC1BF0030EE126800EE56E040EE56E29
:10181000B90EE56E5AEC1BF0030EE126800EE56E64
:10182000040EE56EDB0EE56E5AEC1BF0030EE126AE
:10183000800EE56E040EE56EBB0EE56E5AEC1BF0F5
:10184000030EE126800EE56E040EE56EDD0EE56EFC
:101850005AEC1BF0030EE126800EE56E040EE56ED9
:10186000BD0EE56E5AEC1BF0030EE126800EE56E10
:10187000040EE56EDF0EE56E5AEC1BF0030EE1265A
:10188000800EE56E040EE56EBF0EE56E5AEC1BF0A1
:10189000030EE126800EE56E040EE56EE10EE56EA8
:1018A0005AEC1BF0030EE126800EE56E040EE56E89
:1018B000C10EE56E5AEC1BF0030EE126800EE56EBC
:1018C000040EE56EE30EE56E5AEC1BF0030EE12606
:1018D000800EE56E040EE56EC30EE56E5AEC1BF04D
:1018E000030EE126800EE56E040EE56EE50EE56E54
:1018F0005AEC1BF0030EE126800EE56E040EE56E39
:10190000C50EE56E5AEC1BF0030EE126800EE56E67
:10191000040EE56EE70EE56E5AEC1BF0030EE126B1
:10192000800EE56E040EE56EC70EE56E5AEC1BF0F8
:10193000030EE126800EE56E040EE56EE90EE56EFF
:101940005AEC1BF0030EE126800EE56E040EE56EE8
:10195000C90EE56E5AEC1BF0030EE126800EE56E13
:10196000040EE56EEB0EE56E5AEC1BF0030EE1265D
:10197000800EE56E040EE56ECB0EE56E5AEC1BF0A4
:10198000030EE126800EE56E040EE56EED0EE56EAB
:101990005AEC1BF0030EE126800EE56E040EE56E98
:1019A000CD0EE56E5AEC1BF0030EE126800EE56EBF
:1019B000040EE56EEF0EE56E5AEC1BF0030EE12609
:1019C000800EE56E040EE56ECF0EE56E5AEC1BF050
:1019D000030EE126800EE56E040EE56EF10EE56E57
:1019E0005AEC1BF0030EE126800EE56E040EE56E48
:1019F000D10EE56E5AEC1BF0030EE1261200D9CF92
:101A0000E5FFE1CFD9FF00C0E5FF01C0E5FF02C05F
:101A1000E5FF03C0E5FF04C0E5FF05C0E5FF06C024
:101A2000E5FF07C0E5FF020EDBCF00F0030EDBCFC2
:101A300001F0040EDBCF02F0050EDBCF03F0060E43
:101A4000DBCF04F0070EDBCF05F0080EDBCF06F08E
:101A5000090EDBCF07F000500A01586F0150596F93
:101A600002505A6F03505B6F04500A015C6F0550BF
:101A70005D6F06505E6F07505F6F0A0158510A0193
:101A80005E03F4CF01F0F3CF00F000500A01626F63
:101A90000150636F0A0158510A015C03F4CF01F051
:101AA000F3CF00F000500A01606F0150616F0A012E
:101AB0005B510A015C03F3CF00F00A016351002679
:101AC0000050636F0A015A510A015D03F3CF01F020
:101AD0000150002600500A01636F0A015A510A01A1
:101AE0005C03F4CF01F0F3CF00F00A01625100264D
:101AF000635101220050626F0150636F0A01595116
:101B00000A015D03F4CF03F0F3CF02F00250002688
:101B10000350012200500A01626F0150636F0A01F5
:101B200059510A015E03F3CF00F000500A01676FBC
:101B30000A0159510A015C03F4CF01F0F3CF00F020
:101B400000500A01656F0150666F0A0158510A0181
:101B50005F03F3CF00F000500A016B6F0A01585188
:101B60000A015D03F4CF01F0F3CF00F000500A0149
:101B7000696F01506A6F0A01646B0A01686B0A01A0
:101B800064510A016025006E0A0165510A01612154
:101B9000016E0A0166510A016221026E0A01675153
:101BA0000A016321036E0050606F0150616F0250A3
:101BB000626F0350636F0A0168510A016025006E6D
:101BC0000A0169510A016121016E0A016A510A0183
:101BD0006221026E0A016B510A016321036E03C088
:101BE000E9FF02C0F4FF01C0F3FF0050E4CF07F0AB
:101BF000E4CF06F0E4CF05F0E4CF04F0E4CF03F047
:101C0000E4CF02F0E4CF01F0E4CF00F0E4CFD9FF5D
:101C1000120000C0E5FF01C0E5FF04010C51D8B47B
:101C2000F5D0A3A81DD0A4A81BD00A018D510A018C
:101C30008A1905E1C8EC23F00A018A6BE7D0000E8F
:101C40000A018D25006E016A0F0E012200C0E9FF16
:101C500001C0EAFFEFCF86FA8D2B86CA73FFD6D07C
:101C6000A4AAD4D071A205D00A018B81C8EC23F0BC
:101C7000CDD071A405D00A018B83C8EC23F0C6D067
:101C800071A03ED074CF86FA800E04010D110A01B6
:101C9000861904E10A018B897196B8D00A01865130
:101CA00004E0865104010D1927E10A018B99719610
:101CB0000A01865103E00A018B9702D00A018B8743
:101CC00086CA8FFA88CA90FA0A0188050A01916FBC
:101CD000600E0A019025006E016A000E012200C00C
:101CE000E9FF01C0EAFF86CAEFFF902B9051800AFE
:101CF00002E10A01906B8AD00A018B99718686D025
:101D000074CF86FA0A018BA919D0800E04010D1137
:101D10000A01861911E1899AA39A71980A018A51D8
:101D200004E1736AC8EC23F007D000CF73FF010E03
:101D30000A018D6FA3886AD0718668D00A01865126
:101D40000A018F270A0190510A0191191BE10A012A
:101D50008F510CE190CA88FA0A018BB712D0899A88
:101D6000A39A7198736AC8EC23F00BD00A018B8593
:101D70008BB707D0899AA39A7198010E736EC8EC3D
:101D800023F044D00A0190510A01891908E10A019F
:101D900089510A01881903E0C8EC23F037D088CABA
:101DA00000F0016A004A012AE56A800EE56E0150E2
:101DB000E56E0050E56E4DEC17F0006E040EE12666
:101DC00000500A01876F0A0190190CE11F0E0A01E9
:101DD00086150A01916F912B912B0A0188510A01F6
:101DE0009127919F90CA00F00A01902B016A600E22
:101DF0000026000E012200C0E9FF01C0EAFF86CAEA
:101E0000EFFF9051800A02E10A01906BE4CF01F0EC
:101E1000E4CF00F0120000C0E5FF01C0E5FF02C002
:101E2000E5FF03C0E5FF04C0E5FF05C0E5FF06C010
:101E3000E5FF07C0E5FF08C0E5FF09C0E5FF0AC0F0
:101E4000E5FF006A016A040E015CD8B0B3D0400E11
:101E500004012325026E036A0A0E032202C0E9FF71
:101E600003C0EAFFEFCF02F00250FF0A01E19BD06E
:101E700004012339E8441F0B026E7A0E0224036E1C
:101E8000046A0A0E042203C0E9FF04C0EAFFEFCF90
:101E900003F0070E2315046E010E056E000E066E8C
:101EA000045006E0E86CD89005360636010FFCE3D6
:101EB000076A055003160650071603500710D8800E
:101EC000E866D890036A03360350D880E866D89055
:101ED000036A0336076A780E02260A0E072202C03A
:101EE000E9FF07C0EAFFEFCF08F008C009F00A6A6F
:101EF000095005160A50061605500610D880E866E7
:101F0000D890056A05360550D880E866D890056AED
:101F100005360350051801E146D0035012E0010ECA
:101F2000056E045005E0E86CD8900536010FFDE31E
:101F30000550081202C0E9FF07C0EAFF08C0EFFF22
:101F400017D002C0E9FF07C0EAFFEFCF05F0010E8E
:101F5000066E045005E0E86CD8900636010FFDE3EC
:101F6000061C051602C0E9FF07C0EAFF05C0EFFF27
:101F7000035003E1036A032A01D0036A23C404F077
:101F8000E56A0350E56EE56A0450E56E000EE56E05
:101F9000390EE56E9C0EE56EDFEC1DF0070EE126B6
:101FA000012A01C000F00401232B100E235DD8A0EC
:101FB0004AD7236B0050E4CF0AF0E4CF09F0E4CF16
:101FC00008F0E4CF07F0E4CF06F0E4CF05F0E4CF6B
:101FD00004F0E4CF03F0E4CF02F0E4CF01F0E4CF6B
:101FE00000F01200D9CFE5FFE1CFD9FF00C0E5FF37
:101FF00001C0E5FF02C0E5FF03C0E5FF04C0E5FF47
:1020000005C0E5FF06C0E5FF07C0E5FF08C0E5FF26
:1020100009C0E5FF0AC0E5FF0BC0E5FF0CC0E5FF06
:102020000DC0E5FF0EC0E5FF0FC0E5FF020EDBCFE0
:1020300000F0030EDBCF01F0040EDBCF02F0050E43
:10204000DBCF03F0060EDBCF04F0070EDBCF05F08D
:10205000080EDBCF06F0200E076E086A06C009F0F6
:102060000A6A0B6A0C6AE56AE56AE56A0950E56E78
:102070000350E56E0250E56E0150E56E0050E56ECE
:102080006EEC11F00D6E080EE126300E0D263A0EA4
:102090000D5C05E30D500E6E270E0E240D6EFF0E27
:1020A00007260822200E07240E6E0A0E08200F6E47
:1020B0000EC0E9FF0FC0EAFF0DC0EFFF0C50E56E48
:1020C0000B50E56E0A50E56E0950E56E0350E56E63
:1020D0000250E56E0150E56E0050E56E0BEC12F01B
:1020E000006EF3CF01F0F4CF02F0E9CF03F0080E59
:1020F000E1260050011002100310D8A4AFD707C08A
:1021000000F008C001F004C002F005C003F000C0F8
:1021100004F001C005F0004A012A200E04260A0E30
:10212000052204C0E9FF05C0EAFFEFCF04F002C0BA
:10213000E9FF03C0EAFF04C0EFFF024A032A000ED2
:10214000015C02E1200E005CE2E302C0E9FF03C093
:10215000EAFF000EEF6AE4CF0FF0E4CF0EF0E4CF19
:102160000DF0E4CF0CF0E4CF0BF0E4CF0AF0E4CFB5
:1021700009F0E4CF08F0E4CF07F0E4CF06F0E4CFB5
:1021800005F0E4CF04F0E4CF03F0E4CF02F0E4CFB5
:1021900001F0E4CF00F0E4CFD9FF120000C0E5FF6A
:1021A00001C0E5FF02C0E5FF03C0E5FF04C0E5FF95
:1021B00005C0E5FF006A400E0024016E026A0A0EA7
:1021C000022201C0E9FF02C0EAFFEFCF01F0015097
:1021D000FF0A01E171D001380F0B026E036A800E15
:1021E00002260F0E032202C0E9FF03C0EAFFEFCF71
:1021F00002F0070E0116010E036E000E046E015070
:1022000006E0E86CD89003360436010FFCE3056A5B
:10221000025003160550041603500410D880E866D7
:10222000D890036A0336035024E10038E8441F0BBA
:10223000016E026A7A0E01260A0E022201C0E9FF2F
:1022400002C0EAFFEFCF03F0070E0014046E010E88
:10225000056E045005E0E86CD8900536010FFDE3EB
:102260000550031201C0E9FF02C0EAFF03C0EFFFFF
:1022700023D00038E8441F0B016E026A7A0E012653
:102280000A0E022201C0E9FF02C0EAFFEFCF03F00D
:10229000070E0014046E010E056E045005E0E86C94
:1022A000D8900536010FFDE3051C031601C0E9FFB8
:1022B00002C0EAFF03C0EFFF002A100E005CD8A0A6
:1022C0007AD7E4CF05F0E4CF04F0E4CF03F0E4CF15
:1022D00002F0E4CF01F0E4CF00F01200D9CFE5FF27
:1022E000E1CFD9FF00C0E5FF01C0E5FF02C0E5FF77
:1022F00003C0E5FF04C0E5FF05C0E5FF06C0E5FF3C
:1023000007C0E5FF08C0E5FF09C0E5FF0AC0E5FF1B
:10231000020EDBCF00F0030EDBCF01F0040EDBCFAB
:1023200002F0050EDBCF03F0060EDBCF04F0070E44
:10233000DBCF05F0080EDBCF06F0090EDBCF07F090
:10234000086A045005100610071005E1E968F468F2
:10235000F368E86847D0096A0750800BE8440A6EC2
:102360000A501BE10450042605360636073607508E
:10237000035C08E10650025C05E10550015C02E1E6
:102380000450005C06E2D89007320632053204326F
:1023900004D0092A09C008F0DFD70750035C08E120
:1023A0000650025C05E10550015C02E10450005C4E
:1023B00008E30450005E0550015A0650025A0750C7
:1023C000035AD890073206320532043208C009F0A9
:1023D00008060950E2E103C0E9FF02C0F4FF01C0B2
:1023E000F3FF0050E4CF0AF0E4CF09F0E4CF08F0A7
:1023F000E4CF07F0E4CF06F0E4CF05F0E4CF04F03B
:10240000E4CF03F0E4CF02F0E4CF01F0E4CF00F03A
:10241000E4CFD9FF1200D9CFE5FFE1CFD9FF00C04B
:10242000E5FF01C0E5FF02C0E5FF03C0E5FF04C012
:10243000E5FF05C0E5FF06C0E5FF07C0E5FF08C0F2
:10244000E5FF09C0E5FF0AC0E5FF0BC0E5FF0CC0D2
:10245000E5FF0DC0E5FF020EDBCF00F0030EDBCF82
:1024600001F0040EDBCF02F0050EDBCF03F0060E09
:10247000DBCF04F0070EDBCF05F0080EDBCF06F054
:10248000090EDBCF07F0086A096A0A6A0B6A200E98
:102490000C6E0350800BE8440D6E00500026013690
:1024A000023603360850082609360A360B360D5018
:1024B000D8A4088007500B5C08E106500A5C05E1CF
:1024C0000550095C02E10450085C09E30450085E11
:1024D0000550095A06500A5A07500B5A00800C043E
:1024E0000D6E0DC00CF00D50D4E103C0E9FF02C029
:1024F000F4FF01C0F3FF0050E4CF0DF0E4CF0CF087
:10250000E4CF0BF0E4CF0AF0E4CF09F0E4CF08F019
:10251000E4CF07F0E4CF06F0E4CF05F0E4CF04F019
:10252000E4CF03F0E4CF02F0E4CF01F0E4CF00F019
:10253000E4CFD9FF120000C0E5FF01C0E5FF03C0F2
:10254000E5FF04C0E5FF05C0E5FF06C0E5FF07C0E5
:10255000E5FF08C0E5FF09C0E5FF0AC0E5FF0BC0C5
:10256000E5FF74CA00F075CA01F00A01743F01D09A
:10257000752B0050E56EBAEC23F0E652076E046A44
:10258000056A066A74CA00F075CA01F00A01743F50
:1025900001D0752B0050E56EBAEC23F0E6520B6AC1
:1025A0000A6E086A0850041205120A5006120B50EF
:1025B000071274CA00F075CA01F00A01743F01D015
:1025C000752B0050E56EBAEC23F0E652036E006AFC
:1025D00003C001F0E86A03BEFF0E086E096E0050EA
:1025E000041201500512085006120950071274CA4D
:1025F00000F075CA01F00A01743F01D0752B00503C
:10260000E56EBAEC23F0E652016A0412015005129D
:102610000612071207C0E9FF06C0F4FF05C0F3FF6A
:102620000450E4CF0BF0E4CF0AF0E4CF09F0E4CF9C
:1026300008F0E4CF07F0E4CF06F0E4CF05F0E4CFF4
:1026400004F0E4CF03F0E4CF01F0E4CF00F0120097
:1026500000C0E5FF01C0E5FF02C0E5FF03C0E5FFE4
:1026600004C0E5FF0A0189510A01881901E15FD020
:1026700089CA00F0002A009E600E0024016E026AE2
:10268000000E022201C0E9FF02C0EAFFEFCF93FA79
:102690001F0E0A01931789CA92FA93510A019227D1
:1026A000922B922B929FADEC20F0016E015003E132
:1026B000016A012A01D0016AADEC20F00A01936F92
:1026C000800E9315026E1F0E9315036E03C004F067
:1026D00003C093FA045003E188CA89FA3BD0015041
:1026E0001BE0025022E0ADEC20F0006E0A019307DF
:1026F0000050420A1AE000504E0A03E15DEC1DF062
:1027000014D00050460A03E1FCEC23F00ED0005038
:10271000490A0BE1FF0009D089CA94FA025003E08C
:1027200086EC1FF002D0D4EC1CF092CA89FA0401A6
:10273000095104010A1906E00A018A5103E13FEC3C
:1027400014F008D089BA06D00A018A5103E172B2A6
:10275000C8EC23F0E4CF04F0E4CF03F0E4CF02F0C0
:10276000E4CF01F0E4CF00F01200D9CFE5FFE1CFD4
:10277000D9FF00C0E5FF01C0E5FF02C0E5FF03C0CF
:10278000E5FF04C0E5FF05C0E5FF06C0E5FF07C0A3
:10279000E5FF08C0E5FF09C0E5FF0AC0E5FF020E3E
:1027A000DBCF00F0030EDBCF01F0040EDBCF02F035
:1027B000050EDBCF03F0060EDBCF04F0070EDBCFF8
:1027C00005F00038E8441F0B066E076A760E0626F1
:1027D0000A0E072206C0E9FF07C0EAFFEFCF08F0A4
:1027E000070E0014096E010E0A6E095005E0E86C30
:1027F000D8900A36010FFDE30A50081206C0E9FF1F
:1028000007C0EAFF08C0EFFF230E0024066E076A28
:102810000F0E072206C0E9FF07C0EAFF01C0EFFF65
:10282000016A250E0026040E0122800E025E070EAC
:1028300002160238F00B036E070E0516055003262C
:1028400000C0E9FF01C0EAFF03C0EFFFE4CF0AF0D8
:10285000E4CF09F0E4CF08F0E4CF07F0E4CF06F0CE
:10286000E4CF05F0E4CF04F0E4CF03F0E4CF02F0CE
:10287000E4CF01F0E4CF00F0E4CFD9FF120000C0B4
:10288000E5FF01C0E5FF02C0E5FF03C0E5FF72A25E
:1028900076D0DBEC21F0006E005005E104010A6BFC
:1028A0000401096B6CD00AC401F000500126DBEC76
:1028B00021F0026E00060250230A1FE1010E005CA7
:1028C000D8A05BD0DBEC21F0026E690A03E153EC87
:1028D00020F053D00250720A03E1C8EC23F04DD02F
:1028E0000250730A01E049D0898A7186A38AA398AD
:1028F000745074507198718840D00250430A05E0BA
:102900000250420A01E039D001D0008E00C08CFA9A
:1029100000500F01006F010E0A018D6F04010A5172
:10292000011814E0DBEC21F0026E0A018C27000E86
:102930000A018D25006E036A0F0E032200C0E9FF15
:1029400003C0EAFF02C0EFFF8D2BE8D7000E0A019B
:102950008D25006E026A0F0E02220A018C1D036E85
:10296000032A00C0E9FF02C0EAFF03C0EFFF0A012B
:102970008D2B8DCA8AFA0A01846B01C00AF4E4CF58
:1029800003F0E4CF02F0E4CF01F0E4CF00F0120056
:10299000D9CFE5FFE1CFD9FF00C0E5FF01C0E5FFDA
:1029A00002C0E5FF03C0E5FF04C0E5FF05C0E5FF89
:1029B00006C0E5FF07C0E5FF020EDBCF00F0030E07
:1029C000DBCF01F0040EDBCF02F0050EDBCF03F00E
:1029D00002C006F00650046E800A33E100C0E9FF31
:1029E00001C0F3FF025052EC22F0056EF3CF06F067
:1029F000F4CF07F003C0E5FF05C0E9FF06C0F3FF11
:102A0000075012EC24F000C0E9FF01C0F3FF0250B0
:102A100052EC22F0056EF3CF06F0F4CF07F0052A52
:102A200002E3064A072A05C0E5FF06C0F4FF07C017
:102A3000F6FF00C0E9FF01C0F3FF0250ABEC23F04A
:102A40001DD004AA1BD0047A045004E103504BECBF
:102A500024F014D00450010A04E1035002EC00F009
:102A60000DD004500F0A04E10350F2EC1FF006D021
:102A700004500E0A03E103505BEC24F0E4CF07F0AE
:102A8000E4CF06F0E4CF05F0E4CF04F0E4CF03F0A8
:102A9000E4CF02F0E4CF01F0E4CF00F0E4CFD9FFBF
:102AA0001200A1A284D0B190A19204010051010AA8
:102AB0002DE10A01825103E18A98899C14D00A0110
:102AC0008251010A03E1899289900DD00A01825155
:102AD000020A03E18A98899C06D00A018251030AFE
:102AE00002E18A96899E04010151FF080A01726F72
:102AF000FF0E040102550A01736FB36E7251B26E7C
:102B0000A192B180020E0401006F51D00401005166
:102B1000020A2DE10A01825103E18A98898C14D0BE
:102B20000A018251010A03E1899289800DD00A01CC
:102B30008251020A03E18A98898C06D00A018251E7
:102B4000030A02E18A96898E04010151FF080A01F5
:102B5000726FFF0E040102550A01736FB36E72515A
:102B6000B26EA192B180030E0401006F20D0040167
:102B70000051030A1CE10A01825103E18A98899CF1
:102B800014D00A018251010A03E1899289900DD083
:102B90000A018251020A03E18A98899C06D00A013F
:102BA0008251030A02E18A96899E0401006B120099
:102BB00000C0E5FF01C0E5FF02C0E5FF03C0E5FF7F
:102BC00004C0E5FF006A760E0024016E026A0A0E58
:102BD000022201C0E9FF02C0EAFFEF6A002A020EEA
:102BE000005CF1E3006A0050020DF450026EF3CF76
:102BF00001F0E00E0124036E000E0220046E03C0FB
:102C0000E9FF04C0EAFFEE6AEF6A5C0E0124036E7E
:102C1000040E0220046E03C0E9FF04C0EAFFEE6A5E
:102C2000EF6A930E0124036E040E0220046E03C0AB
:102C3000E9FF04C0EAFFEE6AEF6AB30E0124036EF7
:102C4000040E0220046E03C0E9FF04C0EAFFEE6A2E
:102C5000EF6AD30E0126040E022201C0E9FF02C072
:102C6000EAFFEE687F0EEF6E250E0024016E026A09
:102C7000040E022201C0E9FF02C0EAFFEF68002A49
:102C8000100E005CD8A0AFD7AF0EC06EC16A010EA7
:102C9000C26EC282E4CF04F0E4CF03F0E4CF02F0CE
:102CA000E4CF01F0E4CF00F012004320412025647E
:102CB0002025640A0000D9CFE5FFE1CFD9FF00C08D
:102CC000E5FF01C0E5FF02C0E5FF03C0E5FF04C06A
:102CD000E5FF05C0E5FF06C0E5FF07C0E5FF020E02
:102CE000DBCF00F0030EDBCF01F0040EDBCF02F0F0
:102CF000050EDBCF03F00AC40BF4040109510401F3
:102D00000B5F0B0703C004F0056A030E0426D8B05E
:102D1000052A0BC406F0076A0750800FF36E0550B2
:102D2000800FF35C02E10450065C02E2E8682BD0FD
:102D3000020E035C02E2E86A26D003060350E56E49
:102D40009BEC1EF0E652046A0350045C14E204504B
:102D50000024056EE86A0120066EE86A022005C0BC
:102D6000E9FF06C0F3FF89EC23F0042AE56E9BEC33
:102D70001EF0E652E9D70AC40BF40401095104011C
:102D80000B5F0B07E86AE4CF07F0E4CF06F0E4CF6F
:102D900005F0E4CF04F0E4CF03F0E4CF02F0E4CF99
:102DA00001F0E4CF00F0E4CFD9FF1200D9CFE5FF66
:102DB000E1CFD9FF00C0E5FF01C0E5FF02C0E5FF9C
:102DC00003C0E5FF04C0E5FF05C0E5FF020EDBCF51
:102DD00000F0030EDBCF01F0040EDBCF02F0005059
:102DE000020DF450036EF3CF00F05C0E0024046E6D
:102DF000040E0320056E04C0E9FF05C0EAFF01C010
:102E0000EEFF02C0EFFF930E0024046E040E0320B9
:102E1000056E04C0E9FF05C0EAFFEECF04F0EFCF76
:102E200005F00150045C016E02500558026E000E60
:102E300000260A0E032200C0E9FF03C0EAFF01C01A
:102E4000EEFF02C0EFFFD88002AED89004E3021E6E
:102E5000016CD8B4022A0250800F800F02E1030EE9
:102E6000015C02E2016A026A0150021007E100C03F
:102E7000E9FF03C0EAFF000EEE6AEF6AE4CF05F057
:102E8000E4CF04F0E4CF03F0E4CF02F0E4CF01F0AC
:102E9000E4CF00F0E4CFD9FF1200D9CFE5FFE1CFB6
:102EA000D9FF00C0E5FF01C0E5FF02C0E5FF03C098
:102EB000E5FF04C0E5FF05C0E5FF06C0E5FF020E23
:102EC000DBCF00F0030EDBCF01F0040EDBCF02F00E
:102ED000050EDBCF03F0D88001AED890046A04362B
:102EE000045007E0011C066E001C056E054A062A08
:102EF00004D000C005F001C006F0D88003AED89021
:102F000007E3031C016E021C006E004A012A04D074
:102F100002C000F003C001F00150E56E0050E56E04
:102F20000650E56E0550E56EB5EC19F0006EF3CF76
:102F300001F0040EE12604500AE0011C036E001C9F
:102F4000026E024A032A03C0F3FF025003D001C0FD
:102F5000F3FF0050E4CF06F0E4CF05F0E4CF04F037
:102F6000E4CF03F0E4CF02F0E4CF01F0E4CF00F0CF
:102F7000E4CFD9FF1200D9CFE5FFE1CFD9FF00C0E0
:102F8000E5FF01C0E5FF02C0E5FF03C0E5FF04C0A7
:102F9000E5FF05C0E5FF020EDBCF00F0030EDBCF3F
:102FA00001F0040EDBCF02F0050EDBCF03F074CA94
:102FB00004F075CA05F00A01743F01D0752B035067
:102FC000E56E0450E56E97EC21F0E652E65274CAC5
:102FD00004F075CA05F00A01743F01D0752B025048
:102FE000056EE56E0450E56E97EC21F0E652E65270
:102FF00074CA04F075CA05F00A01743F01D0752B3C
:103000000150056EE56E0450E56E97EC21F0E65236
:10301000E65274CA04F075CA05F00A01743F01D083
:10302000752B0050E56E0450E56E97EC21F0E652EA
:10303000E652E4CF05F0E4CF04F0E4CF03F0E4CFB0
:1030400002F0E4CF01F0E4CF00F0E4CFD9FF1200AA
:10305000D9CFE5FFE1CFD9FF00C0E5FF01C0E5FF13
:1030600002C0E5FF03C0E5FF04C0E5FF05C0E5FFC2
:1030700006C0E5FF020EDBCF00F0030EDBCF01F050
:10308000040EDBCF02F00A01835119E19BEC12F030
:10309000036EF3CF04F0F4CF05F0E9CF06F003C0E0
:1030A000E5FF04C0F4FF05C0F6FF06C0F7FF00C04F
:1030B000E9FF01C0F3FF02509AEC23F01ED00A0191
:1030C0008351010A1AE100C0E9FF01C0F3FF025079
:1030D000BBEC21F0006EF3CF01F0F4CF02F0E9CFAA
:1030E00003F00350E56E0250E56E0150E56E0050AE
:1030F000E56EBBEC17F0040EE126E4CF06F0E4CF5A
:1031000005F0E4CF04F0E4CF03F0E4CF02F0E4CF25
:1031100001F0E4CF00F0E4CFD9FF1200D9CFE5FFF2
:10312000E1CFD9FF00C0E5FF01C0E5FF02C0E5FF28
:1031300003C0E5FF04C0E5FF05C0E5FF06C0E5FFED
:10314000020EDBCF00F0030EDBCF01F00038E844C5
:103150001F0B026E036A760E02260A0E032202C0BD
:10316000E9FF03C0EAFFEFCF04F0070E0014056E7D
:10317000010E066E055005E0E86CD8900636010F8A
:10318000FDE30650041202C0E9FF03C0EAFF04C0D9
:10319000EFFF230E0024026E036A0F0E032202C00B
:1031A000E9FF03C0EAFF01C0EFFF016A250E002618
:1031B000040E012200C0E9FF01C0EAFFFF0EEF6824
:1031C000E4CF06F0E4CF05F0E4CF04F0E4CF03F061
:1031D000E4CF02F0E4CF01F0E4CF00F0E4CFD9FF78
:1031E0001200D9CFE5FFE1CFD9FF00C0E5FF01C054
:1031F000E5FF02C0E5FF03C0E5FF04C0E5FF05C031
:10320000E5FF06C0E5FF020EDBCF00F0030EDBCFCB
:1032100001F0040EDBCF02F0050EDBCF03F0060E4B
:10322000DBCF04F0070EDBCF05F0080EDBCF06F096
:10323000D88003AED89015E306500A0A12E104C004
:10324000E9FF05C0EAFF2D0EEF6E044A052A031EB2
:10325000021E011E006C05E1012A03E1022AD8B416
:10326000032A0650E56E0550E56E0450E56E0350E6
:10327000E56E0250E56E0150E56E0050E56EF2EC31
:103280000FF0070EE126E4CF06F0E4CF05F0E4CF1F
:1032900004F0E4CF03F0E4CF02F0E4CF01F0E4CF98
:1032A00000F0E4CFD9FF120000C0E5FF01C0E5FF48
:1032B00002C0E5FF03C0E5FF28EC13F054EC06F074
:1032C00065EC1AF028EC13F063EC0AF028EC13F02C
:1032D000CEEC10F083EC20F0006EF3CF01F0F4CFD1
:1032E00002F0E9CF03F004018E51005E8F51015AC4
:1032F0009051025A9151035A039E3F0E035C08E11C
:10330000FF0E025C05E1FF0E015C02E1FF0E005CB6
:1033100023E283EC20F0F3CF01F0F4CF02F0E9CF09
:1033200003F0880F04018E6F130E01208F6F000EC3
:103330000220906F000E0320916F040106A103D0BC
:1033400012EC1AF007D00BEC0FF0006E0050D8B45E
:103350000EEC04F00401062BE4CF03F0E4CF02F0FE
:10336000E4CF01F0E4CF00F01200D9CFE5FFE1CFC8
:10337000D9FF00C0E5FF01C0E5FF02C0E5FF03C0C3
:10338000E5FF04C0E5FF05C0E5FF06C0E5FF020E4E
:10339000DBCF00F0030EDBCF01F0040EDBCF02F039
:1033A000050EDBCF03F0046A056A0350800BE84486
:1033B000066E065011E10250022603360350015CEE
:1033C00002E10250005C04E2D8900332023204D0E1
:1033D000052A05C004F0E9D70350015C02E1025060
:1033E000005C04E30250005E0350015AD89003329F
:1033F000023204C005F004060550EEE101C0F3FFFF
:103400000050E4CF06F0E4CF05F0E4CF04F0E4CFC1
:1034100003F0E4CF02F0E4CF01F0E4CF00F0E4CF1A
:10342000D9FF120000C0E5FF0F01335104018A19D2
:1034300010E10F01345104018B190BE10F013551DB
:1034400004018C1906E10F01365104018D1901E1C7
:1034500039D0420EF2EC1FF0410EF2EC1FF00F01DA
:103460003351006E300E00260050F2EC1FF00F01B9
:103470003451006E300E00260050F2EC1FF00F01A8
:103480003551006E300E00260050F2EC1FF00F0197
:103490003651006E300E00260050F2EC1FF00A0E7E
:1034A000F2EC1FF00F01335104018A6F0F01345108
:1034B00004018B6F0F01355104018C6F0F013651E0
:1034C00004018D6FE4CF00F0120000C0E5FF01C0E1
:1034D000E5FF04010051D8A446D004010451E56E73
:1034E0000351E56EE56A020EE56E0AEC1BF0006E14
:1034F000F3CF01F0040EE126810E0026040E012216
:1035000000C0E9FF01C0EAFFEECF00F0EFCF01F00D
:103510000050011028E000C001F401C002F40401D1
:1035200003510A01826F23EC20F004010451E56E7F
:103530000351E56EE56A020EE56E0AEC1BF0006EC3
:10354000F3CF01F0040EE126810E0026040E0122C5
:1035500000C0E9FF01C0EAFF000EEE6AEF6A040155
:10356000033F01D0042BE4CF01F0E4CF00F01200C0
:1035700000C0E5FF01C0E5FF02C0E5FF03C0E5FFB5
:1035800089CA00F0016A94CA02F0036A0250005E20
:103590000350015AE56A800EE56E0150E56E005059
:1035A000E56E4DEC17F0006E040EE126000694CA9D
:1035B00001F0430EF2EC1FF0200EF2EC1FF0005071
:1035C00020E0600E0124026E036A000E032202C096
:1035D000E9FF03C0EAFFEFCF02F0E56A0250E56EB3
:1035E000000EE56E470EE56EA80EE56EDFEC1DF0F1
:1035F000050EE126012A0150800A01E1016A000658
:10360000DED7E4CF03F0E4CF02F0E4CF01F0E4CF63
:1036100000F01200D9CFE5FFE1CFD9FF00C0E5FFF0
:1036200001C0E5FF02C0E5FF03C0E5FF020EDBCFEE
:1036300000F0030EDBCF01F0040EDBCF02F0050E2D
:10364000DBCF03F000500A017C6F01507D6F025008
:103650000A017E6F03507F6F0A017C510A017E03CD
:10366000F4CF01F0F3CF00F000500A01806F015059
:10367000816F0A017C510A017F03F3CF00F00A0138
:103680007D510A017E03F3CF01F0015000260A01AB
:10369000815100260050816F81CAF3FF8051E4CF31
:1036A00003F0E4CF02F0E4CF01F0E4CF00F0E4CF88
:1036B000D9FF1200D9CFE5FFE1CFD9FF00C0E5FF68
:1036C00001C0E5FF02C0E5FF03C0E5FF04C0E5FF60
:1036D000020EDBCF00F0030EDBCF01F0040EDBCFD8
:1036E00002F00A01835111E1BEEC1FF0036EF3CF2B
:1036F00004F003C0E5FF04C0F4FF00C0E9FF01C00F
:10370000F3FF0250E4EC23F016D00A018351010AC2
:1037100012E100C0E9FF01C0F3FF025011EC23F0F9
:10372000006EF3CF01F00150E56E0050E56E5EECE7
:103730001EF0E652E652E4CF04F0E4CF03F0E4CF0B
:1037400002F0E4CF01F0E4CF00F0E4CFD9FF1200A3
:10375000D9CFE5FFE1CFD9FF00C0E5FF01C0E5FF0C
:1037600002C0E5FF03C0E5FF04C0E5FF020EDBCFAA
:1037700000F00038E8441F0B016E026A7A0E012641
:103780000A0E022201C0E9FF02C0EAFFEFCF01F0FA
:10379000070E0016010E026E000E036E005006E0CA
:1037A000E86CD89002360336010FFCE3046A01503E
:1037B00002160450031602500310D880E866D89011
:1037C000026A02360250D880E866D890026A023651
:1037D0000250E4CF04F0E4CF03F0E4CF02F0E4CFF2
:1037E00001F0E4CF00F0E4CFD9FF12007E0EF66EB8
:1037F000480EF76E000EF86E0900F550056E0900D0
:10380000F550066E04E1056702D043EF1CF0090095
:10381000F550006E0900F550016E0900F550026E7A
:1038200009000900F550E96E0900F550EA6E09003B
:1038300009000900F550036E0900F550046E0900F7
:103840000900F6CF07F0F7CF08F0F8CF09F000C075
:10385000F6FF01C0F7FF02C0F8FF035002E1045079
:1038600007E00900F550EE6E0306F8E20406F9D70A
:1038700007C0F6FF08C0F7FF09C0F8FF050601E220
:10388000060602EF1CF01200D9CFE5FFE1CFD9FF09
:1038900000C0E5FF01C0E5FF02C0E5FF03C0E5FF92
:1038A00004C0E5FF05C0E5FF020EDBCF00F00050CD
:1038B000010A22E1016A0150020DF450036EF3CFB8
:1038C00002F0B30E0224046E040E0320056E04C041
:1038D000E9FF05C0EAFFEE687F0EEF6ED30E022609
:1038E000040E032202C0E9FF03C0EAFFEE6AEF6A9A
:1038F000012A100E015CDFE300C00FF4E4CF05F0F5
:10390000E4CF04F0E4CF03F0E4CF02F0E4CF01F021
:10391000E4CF00F0E4CFD9FF120000C0E5FF01C002
:10392000E5FF02C0E5FF03C0E5FF04C0E5FF006A54
:10393000780E0024016E026A0A0E02227A0E00241A
:10394000036E046A0A0E042203C0E9FF04C0EAFF02
:10395000010EEF6E01C0E9FF02C0EAFFEF6E002A20
:10396000020E005CE5E3006A400E0024016E026A6C
:103970000A0E022201C0E9FF02C0EAFFEF68002A36
:10398000100E005CF1E3E4CF04F0E4CF03F0E4CFE9
:1039900002F0E4CF01F0E4CF00F0120043207320E6
:1039A00025642025640A000000C0E5FF01C0E5FF92
:1039B00002C0E5FF03C0E5FFADEC20F0006E0A0A8F
:1039C00007E000501E0A19E000501F0A20E028D02E
:1039D000ADEC20F0036E026AADEC20F0016A022427
:1039E0000401016F01500320026FADEC20F0006E66
:1039F00000C082FA23EC20F013D0ADEC20F0006E72
:103A00009396005002E18A960BD08A8609D0ADECDD
:103A100020F0006E929E005002E1899E01D0898EB6
:103A2000E4CF03F0E4CF02F0E4CF01F0E4CF00F004
:103A30001200D9CFE5FFE1CFD9FF00C0E5FF01C0FB
:103A4000E5FF02C0E5FF03C0E5FF04C0E5FF05C0D8
:103A5000E5FF020EDBCF00F0030EDBCF01F0040E1A
:103A6000DBCF02F0050EDBCF03F0060EDBCF04F058
:103A7000056A400E00260A0E0522800E015E070E22
:103A800001160138F00B026E070E041604500226D0
:103A900000C0E9FF05C0EAFF02C0EFFFE4CF05F078
:103AA000E4CF04F0E4CF03F0E4CF02F0E4CF01F080
:103AB000E4CF00F0E4CFD9FF120000C0E5FF01C061
:103AC000E5FF02C0E5FFADEC20F0006EADEC20F0AC
:103AD000016E0050026ED00E0224006E0A0E005CD1
:103AE00005E30050026EF90E0224006E0150026ED2
:103AF000D00E0224016E0A0E015C05E30150026E35
:103B0000F90E0224016E080E005C12E2100E015C38
:103B1000D8B00ED00038F00B0124006E4CEC1FF032
:103B2000016E015005E10050E56E87EC22F0E6528F
:103B3000E4CF02F0E4CF01F0E4CF00F01200D9CFDF
:103B4000E5FFE1CFD9FF00C0E5FF01C0E5FF02C0FE
:103B5000E5FF03C0E5FF04C0E5FF020EDBCF00F088
:103B60000038E8441F0B016E026A760E01260A0E29
:103B7000022201C0E9FF02C0EAFFEFCF03F0070E07
:103B80000016010E046E005005E0E86CD890043673
:103B9000010FFDE3041C031601C0E9FF02C0EAFFA8
:103BA00003C0EFFFE4CF04F0E4CF03F0E4CF02F072
:103BB000E4CF01F0E4CF00F0E4CFD9FF1200D9CF79
:103BC000E5FFE1CFD9FF00C0E5FF01C0E5FF02C07E
:103BD000E5FF020ED924006E000EDA20016E800E81
:103BE000026E030E0026000E012202220250E56E34
:103BF0000150E56E0050E56E040EDBCFE5FF030ECD
:103C0000DBCFE5FF020EDBCFE5FF04013751E56EA8
:103C10003651E56E3551E56E0EEC00F0006EF3CFD7
:103C200001F0090EE12601C0F3FF0050E4CF02F0DD
:103C3000E4CF01F0E4CF00F0E4CFD9FF1200D9CFF8
:103C4000E5FFE1CFD9FF00C0E5FF01C0E5FF02C0FD
:103C5000E5FF03C0E5FF020EDBCF00F0030EDBCF74
:103C600001F0040EDBCF02F00A0183510DE1E5EC17
:103C700022F0036E03C0E5FF00C0E9FF01C0F3FFBF
:103C8000025012EC24F00FD00A018351010A0BE11B
:103C900000C0E9FF01C0F3FF025089EC23F0E56E9C
:103CA0004CEC21F0E652E4CF03F0E4CF02F0E4CF95
:103CB00001F0E4CF00F0E4CFD9FF1200D9CFE5FF47
:103CC000E1CFD9FF00C0E5FF01C0E5FF02C0E5FF7D
:103CD00003C0E5FF020EDBCF00F0030EDBCF01F0E7
:103CE00074CA02F075CA03F00A01743F01D0752B43
:103CF0000150E56E0250E56E97EC21F0E652E65277
:103D000074CA02F075CA03F00A01743F01D0752B22
:103D10000050E56E0250E56E97EC21F0E652E65257
:103D2000E4CF03F0E4CF02F0E4CF01F0E4CF00F001
:103D3000E4CFD9FF1200D9CFE5FFE1CFD9FF00C012
:103D4000E5FF01C0E5FF02C0E5FF03C0E5FF04C0D9
:103D5000E5FF020EDBCF00F009C401F0026A014A60
:103D6000022A0AC403F0046A0150031803E1025056
:103D7000041801E001D00ED0000E04010925016EE7
:103D8000026A070E022201C0E9FF02C0EAFF00C07A
:103D9000EFFF092BE4CF04F0E4CF03F0E4CF02F00F
:103DA000E4CF01F0E4CF00F0E4CFD9FF1200D9CF87
:103DB000E5FFE1CFD9FF00C0E5FF01C0E5FF02C08C
:103DC000E5FF03C0E5FF020EDBCF00F0016A94CAF5
:103DD00002F0036A0250002603500122E56A800EB9
:103DE000E56E0150E56E0050E56E4DEC17F0006E8B
:103DF000F3CF01F0040EE126600E0026000E012232
:103E000000C0E9FF01C0EAFFEFCF00F00050E4CFAF
:103E100003F0E4CF02F0E4CF01F0E4CF00F0E4CF10
:103E2000D9FF1200F3CFE5FFF4CFE5FFE9CFE5FFBF
:103E3000EACFE5FFFACFE5FFFBCFE5FF040107512D
:103E40000A01526F040108510A01536FD650506F96
:103E5000D750516FF2A411D00401073F01D0082BB5
:103E6000F294040107510A01526F040108510A013A
:103E7000536FD650506FD750516F51EC15F0E4CFBF
:103E8000FBFFE4CFFAFFE4CFEAFFE4CFE9FFE4CFA2
:103E9000F4FFE4CFF3FF110000C0E5FF01C0E5FF30
:103EA00002C0E5FF010E006EADEC20F0016E01C016
:103EB00002F0015023E00050E56EBAEC23F0016EF1
:103EC000E652015010E10A0E005C0BE20A0E006E91
:103ED000E56EBAEC23F0016EE652015004E1E868A9
:103EE0000ED0E8680CD00150021802E0E86807D054
:103EF000002A1B0E005CD8E3E86801D0E86AE4CF32
:103F000002F0E4CF01F0E4CF00F0120000C0E5FFC2
:103F100001C0E5FFADEC20F0006E4C0A03E1ADEC12
:103F200020F027D00050450A24E1000EE56E400E37
:103F3000E56EA00EE56EDFEC1DF0030EE12655ECFC
:103F400024F0006E00C001F0000601500FE0ADEC5F
:103F500020F0E56AE56E000EE56E400EE56EA20EFD
:103F6000E56EDFEC1DF0050EE126ECD70A0EF2EC53
:103F70001FF0E4CF01F0E4CF00F0120000C0E5FF35
:103F800001C0E5FF02C0E5FF03C0E5FF74CA00F011
:103F900075CA01F00A01743F01D0752B0050E56E1F
:103FA000BAEC23F0E652036E026A74CA00F075CAD6
:103FB00001F00A01743F01D0752B0050E56EBAEC98
:103FC00023F0E652016A02120150031203C0F3FF0C
:103FD0000250E4CF03F0E4CF02F0E4CF01F0E4CFED
:103FE00000F0120000C0E5FF01C0E5FF02C0E5FFE0
:103FF000006E390E04010E25016E026A040E0222C3
:1040000001C0E9FF02C0EAFF00C0EFFF220E0E5D13
:1040100001E20E2B00500A0A0FE104010E51E56E79
:10402000800EE56E040EE56E390EE56E5BEC16F063
:10403000040EE12604010E6BE4CF02F0E4CF01F0A0
:10404000E4CF00F01200020E0401006F0A01825159
:1040500003E18A88899C14D00A018251010A03E194
:10406000898289900DD00A018251020A03E18A886F
:10407000899C06D00A018251030A02E18A86899E40
:1040800004010151FF080A01726FFF0E040102557D
:104090000A01736FB36E7251B26EA192B1801200B9
:1040A0004300256300000401096B04010A6B04014D
:1040B0000B69898A929A766A3F0E756E7086728A4B
:1040C0007284728C7290718C718E0A018B6B0A01F2
:1040D000856B0A01886B0A01896B0A018A6B000EE5
:1040E000E56ABAEC23F004010D6FE652A598A59A93
:1040F000010E04010C6F0401356B366B2F0E376F08
:10410000C8EC23F01200040107510A01566F0401A4
:1041100008510A01576FD650546FD750556F5651FA
:104120000401071905E10A015751040108190CE0BF
:10413000040107510A01566F040108510A01576F23
:10414000D650546FD750556F57CAE9FF56CAF4FF7F
:1041500055CAF3FF0A015451120000C0E5FF01C027
:10416000E5FF0A0189510A01921905E00A01895106
:104170000A01881902E1E86A15D089CA00F00A012B
:10418000892B016A600E0026000E012200C0E9FFA3
:1041900001C0EAFFEFCF00F08951800A02E10A0175
:1041A000896B0050E4CF01F0E4CF00F0120000C0B2
:1041B000E5FF4FEC24F00401896B806B8983006A72
:1041C00089B3002A0050010BE844F46E8051FD0BC6
:1041D000F410806FD58ED59CD59AD588D596D59478
:1041E000D582D580F28AF184D08EF28EF28CBA809C
:1041F000FF0EBB68BA84E4CF00F01200D9CFE5FF10
:10420000E1CFD9FF00C0E5FF01C0E5FF020EDBCF23
:1042100000F00050020DF450016EF3CF00F0000EDC
:1042200000260A0E012200C0E9FF01C0EAFFEECF1E
:1042300000F0EFCF01F001C0F3FF0050E4CF01F038
:10424000E4CF00F0E4CFD9FF1200D9CFE5FFE1CFF2
:10425000D9FF00C0E5FF01C0E5FF020EDBCF00F093
:104260000050020DF450016EF3CF00F0E00E002676
:10427000000E012200C0E9FF01C0EAFFEECF00F00E
:10428000EFCF01F001C0F3FF0050E4CF01F0E4CF25
:1042900000F0E4CFD9FF1200D9CFE5FFE1CFD9FF7D
:1042A00000C0E5FF01C0E5FF02C0E5FF020EDBCF65
:1042B00000F074CA01F075CA02F00A01743F01D01F
:1042C000752B0050E56E0150E56E97EC21F0E6523B
:1042D000E652E4CF02F0E4CF01F0E4CF00F0E4CF07
:1042E000D9FF1200D8CFE5FFE0CFE5FFE56EF3CFB1
:1042F000E5FFF4CFE5FFE9CFE5FFEACFE5FFFACF31
:10430000E5FFFBCFE5FF09EC0EF0E4CFFBFFE4CFC8
:10431000FAFFE4CFEAFFE4CFE9FFE4CFF4FFE4CF14
:10432000F3FFE450E4CFE0FFE4CFD8FF1000D9CF93
:10433000E5FFE1CFD9FF00C0E5FF020EDBCF00F0C3
:10434000030EDBCFA8FF00C0A9FFA69EA69CA684F3
:10435000F29EF29C550EA76EAA0EA76EA682A6A28A
:1043600002D00000FCD7A694F28EF28CE4CF00F0CD
:10437000E4CFD9FF1200E8AE0AD0F3CFEAFFEE5047
:10438000EECFF3FFEECFF4FFEECFE9FF1200E8BC73
:1043900068EF24F0E9CFF6FFF3CFF7FFF86E0900DE
:1043A000F5500900F5CFF3FF0900F5CFF4FF090040
:1043B000F5CFE9FF120000C0E5FF01C0E5FF0401F1
:1043C000095104010A1902E1E86A0FD0000E040144
:1043D0000A25006E016A070E012200C0E9FF01C034
:1043E000EAFFEFCF00F00A2B0050E4CF01F0E4CF5A
:1043F00000F01200F2CFEAFFF29EA69EA69CA684D1
:10440000E9CFA9FFF3CFAAFFE4CFA8FF27EC24F060
:10441000F4CFA8FF27EC24F0F6CFA8FF27EC24F078
:10442000F7CFA8FF27EC24F0A694EABEF28E120084
:10443000D9CFE5FFE1CFD9FF00C0E5FF01C0E5FF1F
:10444000020EDBCF00F0016A400E00260A0E0122A8
:1044500000C0E9FF01C0EAFFFF0EEF68E4CF01F002
:10446000E4CF00F0E4CFD9FF1200F2CFF6FFF29EC6
:10447000A69EA69CE9CFA9FFF3CFAAFFA680A850CD
:10448000A94AAA2AA680A8CFF3FFA94AAA2AA680E9
:10449000A8CFF4FFA94AAA2AA680A8CFEAFFF6BEB1
:1044A000F28E1200E8AE08D0F3CFEAFFEE50EECF66
:1044B000F3FFEECFF4FF1200E8BC6AEF24F0E9CF7F
:1044C000F6FFF3CFF7FFF86E0900F5500900F5CFBE
:1044D000F3FF0900F5CFF4FF1200F2CFEAFFF29EDE
:1044E000A69EA69CA684E9CFA9FFF3CFAAFFE4CF9E
:1044F000A8FF27EC24F0F4CFA8FF27EC24F0F6CF98
:10450000A8FF27EC24F0A694EABEF28E1200D9CFC1
:10451000E5FFE1CFD9FF00C0E5FF020EDBCF00F0E1
:1045200000C00DF40050E56E000EE56A97EC21F036
:10453000E652E652E4CF00F0E4CFD9FF1200F2CF0A
:10454000F6FFF29EA69EA69CE9CFA9FFF3CFAAFF95
:10455000A680A850A94AAA2AA680A8CFF3FFA94AF4
:10456000AA2AA680A8CFF4FFF6BEF28E120000C0E1
:10457000E5FF01C0E5FF600E0A018925006E016AB2
:10458000000E012200C0E9FF01C0EAFFEFCF00F0FA
:104590000050E4CF01F0E4CF00F01200D9CFE5FFE6
:1045A000E1CFD9FF00C0E5FF020EDBCF00F0610EC6
:1045B000005C05E37B0E005C02E2010E01D0E86ABC
:1045C000E4CF00F0E4CFD9FF120000C0E5FF01C046
:1045D000E5FF74CA00F075CA01F00A01743F01D00A
:1045E000752B0050E56EBAEC23F0E652E4CF01F0F3
:1045F000E4CF00F01200D9CFE5FFE1CFD9FF00C032
:10460000E5FF020EDBCF00F000C00CF4005004E127
:10461000C8EC23F0A39AA398E4CF00F0E4CFD9FF2D
:104620001200E8AE06D0F3CFEAFFEE50EECFF3FF74
:104630001200E8BC66EF24F0E9CFF6FFF3CFF7FFF6
:10464000F86E0900F5500900F5CFF3FF1200F2CF24
:10465000EAFFF29EA69EA69CA684E9CFA9FFF3CF0F
:10466000AAFFE4CFA8FF27EC24F0F4CFA8FF27ECA3
:1046700024F0A694EABEF28E120018EEFFF028EEA7
:10468000FFF0F86AA68EA69CE9680E0EEA6E006836
:10469000000EED6A0050FDE1F6EC1BF006EC00F0B8
:1046A000FFD700E8030000000000000000FF00004A
:1046B00000000700020000004200000000000000AF
:1046C0000000000000000000F2CFF6FFF29EA69E60
:1046D000A69CE9CFA9FFF3CFAAFFA680A850A94ABC
:1046E000AA2AA680A8CFF3FFF6BEF28E1200F2CF60
:1046F000EAFFF29EA69EA69CA684E9CFA9FFF3CF6F
:10470000AAFFE4CFA8FF27EC24F0A694EABEF28E1D
:104710001200E8AE04D0F3CFEAFFEE501200E8BC7E
:1047200064EF24F0E9CFF6FFF3CFF7FFF86E09004E
:10473000F5501200E8AE0BD0F3CFEAFFE4CFEEFF66
:10474000F4CFEEFFF6CFEEFFF7CFEEFF1200E8BC9E
:1047500062EF24F01200E8AE09D0F3CFEAFFE4CF15
:10476000EEFFF4CFEEFFF6CFEEFF1200E8BC6CEFE9
:1047700024F01200D9CFE5FFE1CFD9FF020EDBCF45
:10478000A9FFA69CA69EA680A850E4CFD9FF120040
:1047900072A2FED7898A7450000074507198718893
:1047A0007186A38AA398120025642000F2CFF6FF39
:1047B000F29EA69EA69CE9CFA9FFF3CFAAFFA680F2
:1047C000A850F6BEF28E1200E8AE07D0F3CFEAFF93
:1047D000E4CFEEFFF4CFEEFF1200E8BC60EF24F070
:1047E0001200700ED36E9B8CFF0E926893689468D3
:1047F0009668626AF19E120000C0E5FF4CEC1FF063
:10480000006E005001E1FF00E4CF00F012000F0144
:10481000456B900E0F01446F030E0F01436F0F01A4
:10482000458F1200E8AE05D0F3CFEAFFE4CFEEFFEC
:104830001200E8BC5EEF24F01200D9CFE5FFE1CF13
:10484000D9FF020EDBCF12F4E4CFD9FF1200550ED0
:10485000A76EAA0EA76EA682A6B2FED7A94AAA2A5A
:10486000010E0A01836F1C0E0A01746F756B120032
:104870000A01836B1C0E0A01746F756B1200010034
:10488000A24600000004000025000000D7EC20F044
:1048900053EC20F01200ACA2FED7AD6E1200F1EC8A
:1048A00023F012000A01895112000A0193511200EB
:1048B00004010C511200E8CF7FFF120077EF23F0C4
:1048C00027EF23F0FAEF21F0D6EF23F064EF23F087
:0C48D00035EF22F09FEF22F06DEF22F098
:00000001FF
