:020000040000FA
:10000000ADEF35F0C96E12000AEF31F076EC2EF04C
:100010000DEC2FF0FDD7120023EF34F0D9CFE5FF20
:10002000E1CFD9FF00C0E5FF01C0E5FF02C0E5FF59
:1000300003C0E5FF04C0E5FF05C0E5FF06C0E5FF1E
:1000400007C0E5FF08C0E5FF09C0E5FF0AC0E5FFFE
:100050000BC0E5FF0CC0E5FF0DC0E5FF0EC0E5FFDE
:100060000FC0E5FF10C0E5FF11C0E5FF12C0E5FFBE
:1000700013C0E5FF14C0E5FF15C0E5FF16C0E5FF9E
:1000800017C0E5FF18C0E5FF19C0E5FF1AC0E5FF7E
:100090001BC0E5FF1CC0E5FF1DC0E5FF1EC0E5FF5E
:1000A0001FC0E5FF20C0E5FF21C0E5FF22C0E5FF3E
:1000B00023C0E5FF24C0E5FF25C0E5FF020EDBCF2E
:1000C00000F0030EDBCF01F0040EDBCF02F0025094
:1000D000086E0150076E0050066EE56A100EE56E60
:1000E0000850E56E0750E56E0650E56E800EE56E31
:1000F0000A0EE56E600EE56ED1EC26F0080EE126E4
:1001000068CA03F069CA04F06ACA05F06BCA06F04F
:1001100003C007F004C008F005C009F006C00AF0EB
:10012000D8800AAED8900AE30A1E091E081E076C82
:1001300005E1082A03E1092AD8B40A2A60CA0BF0AB
:1001400061CA0CF0E86A0A0161BFFF0E0D6E0E6E07
:10015000D8906431106E63310F6ED89010320F3228
:100160006551E840E840C00B10126541E8403F0B84
:10017000E8BAC009116E126A11BE12680F500B5C0A
:100180000F6E10500C58106E11500D58116E125009
:100190000E58126E800F810F08E1FF0E115C05E111
:1001A000FF0E105C02E1FE0E0F5CD8A04ED0125084
:1001B000800F800F08E1000E115C05E1000E105C5D
:1001C00002E1030E0F5CD8B040D00A340A30166E3C
:1001D0000930156E0830146E0730136E6ECA17F0B2
:1001E0006FCA18F0E86A0A016FBFFF0E196E800F20
:1001F000F36E1650800FF35C08E11550195C05E1B1
:100200001450185C02E11350175C1FE30C50156E7C
:1002100015260D34166ED890153616360B44E84464
:10022000FC0B146E0B50E844E844030B15120A0152
:10023000626B1450636F1550646F1650656F686B76
:10024000696B6A6B6B6BB0EF04F00850076E095076
:10025000086ED89008320732D890083207320A5018
:10026000E840E840C00B08120A40E8403F0BE8BAFB
:10027000C0090A6A083408300A6E0730096EE86A55
:100280000ABEFF0E0B6E0C6E07C00DF008C00EF01C
:10029000E86A08BEFF0E136EE56E1350E56E0E5051
:1002A000E56E0D50E56E0C50E56E0B50E56E0A5094
:1002B000E56E0950E56E27EC1EF0096EF3CF0AF0EB
:1002C000F4CF0BF0E9CF0CF0080EE1266ECA0DF06A
:1002D0006FCA0EF0E86A0A016FBFFF0E136E146E4C
:1002E000E56E1350E56E0E50E56E0D50E56E0C5048
:1002F000E56E0B50E56E0A50E56E0950E56E0FECA9
:1003000021F0096EF3CF0AF0080EE12666CA0BF061
:1003100067CA0CF0E86A0A0167BFFF0E156E0C5041
:10032000196E192615341A6ED89019361A360B44E0
:10033000E844FC0B186E0B50E844E844030B191218
:10034000176AD88006AED890D8B064D109C00BF037
:100350000AC00CF0E86A0ABEFF0E156E800FF36E3D
:100360001250800FF35C08E11150155C05E110504C
:100370000C5C02E10F500B5CD8B024D10650800F0A
:10038000F36E1A50800FF35C08E11950055C05E12B
:100390001850045C02E11750035CD8B0ECD06CCA72
:1003A0000BF06DCA0CF0E86A0A016DBFFF0E156E06
:1003B000166E03500B2604500C22055015220650D1
:1003C00016220B500A01686F0C50696F15506A6F46
:1003D00016506B6F6ECA0BF06FCA0CF06CCA15F03A
:1003E0006DCA16F00C50800FF36E1650800FF35C40
:1003F00002E115500B5CD8B0A2D068CA1BF069CAE4
:100400001CF06ACA1DF06BCA1EF0D8901D30206E19
:100410001C301F6ED89020321F321E50E840E8403A
:10042000C00B20121E40E8403F0BE8BAC009226A08
:100430001F50076E2050086E08340830206E0730B9
:100440001F6EE86A20BEFF0E216E226E07C023F0E9
:1004500008C024F0E86A08BEFF0E256EE56E255040
:10046000E56E2450E56E2350E56E2250E56E215076
:10047000E56E2050E56E1F50E56E27EC1EF01F6EF6
:10048000F3CF20F0F4CF21F0E9CF22F0080EE126DF
:100490000BC023F00CC024F0E86A0CBEFF0E256EE2
:1004A000E56E2550E56E2450E56E2350E56E225032
:1004B000E56E2150E56E2050E56E1F50E56E0FECA5
:1004C00021F01F6EF3CF20F0080EE1261F50096EB9
:1004D00020500A6E09C01FF00AC020F0E86A0ABE68
:1004E000FF0E216E226E1250800FF36E2250800F8D
:1004F000F35C08E12150115C05E12050105C02E141
:100500001F500F5C1CE20B50155C0B6E0C50165804
:100510000C6EE86A0CBEFF0E156E166E0B501B5E5D
:100520000C501C5A15501D5A16501E5A1B500A01C9
:10053000686F1C50696F1D506A6F1E506B6F1A50A8
:10054000800FF36E0A016B51800FF35C08E16A5172
:10055000195C05E16951185C02E16851175CD8B07B
:10056000D8D117500A01686F1850696F19506A6F17
:100570001A506B6FCED11A50800FF36E0650800F59
:10058000F35C08E10550195C05E10450185C02E1D8
:100590000350175CD8B0BDD10D50035C0B6E0E50EC
:1005A00004580C6E13500558156E14500658166EEC
:1005B0000B500A01686F0C50696F15506A6F165026
:1005C0006B6FA7D16CCA0BF06DCA0CF0E86A0A0118
:1005D0006DBFFF0E156E166E0D500B260E500C22C1
:1005E00013501522145016220B50035C0B6E0C5046
:1005F00004580C6E15500558156E16500658166E98
:100600000B500A01686F0C50696F15506A6F1650D5
:100610006B6F7FD10A1E096CD8B40A2A09C00BF08F
:100620000AC00CF0E86A0ABEFF0E156E166E125074
:10063000800FF36E1650800FF35C08E11550115CCB
:1006400005E10C50105C02E10B500F5CD8B03ED1BC
:100650001A1C166E191C156E181C0C6E171C0B6ECE
:100660000B2A04E10C2A02E1154A162A1650800FC3
:10067000F36E0650800FF35C08E10550155C05E150
:1006800004500C5C02E103500B5CD8B0F8D06CCA8B
:1006900017F06DCA18F0E86A0A016DBFFF0E196EF7
:1006A0001A6E1750035C176E18500458186E1950C4
:1006B0000558196E1A5006581A6E17500A01686FBD
:1006C0001850696F19506A6F1A506B6F6ECA17F025
:1006D0006FCA18F06CCA19F06DCA1AF01850800F62
:1006E000F36E1A50800FF35C02E11950175CD8B01A
:1006F000AAD068CA1BF069CA1CF06ACA1DF06BCA8E
:100700001EF0D8901D30206E1C301F6ED890203205
:100710001F321E50E840E840C00B20121E40E84047
:100720003F0BE8BAC009216E226A21BE2268221E50
:10073000211E201E1F6C05E1202A03E1212AD8B4C6
:10074000222A1F50076E2050086E08340830206E91
:1007500007301F6EE86A20BEFF0E216E226EE86A27
:1007600008BEFF0E236EE56E2350E56E0850E56E61
:100770000750E56E2250E56E2150E56E2050E56E83
:100780001F50E56E27EC1EF0076EF3CF08F0F4CF94
:100790001FF0E9CF20F0080EE12617C021F018C0A5
:1007A00022F0E86A18BEFF0E236EE56E2350E56E58
:1007B0002250E56E2150E56E2050E56E1F50E56E2B
:1007C0000850E56E0750E56E0FEC21F0076EF3CF91
:1007D00008F0080EE126081E076C02E1082A00E175
:1007E0000750096E08500A6EE86A0ABEFF0E076ECF
:1007F000800FF36E1250800FF35C08E11150075C1C
:1008000005E110500A5C02E10F50095C1CE2175030
:10081000195C176E18501A58186EE86A18BEFF0E49
:10082000076E086E17501B2618501C2207501D22F9
:1008300008501E221B500A01686F1C50696F1D5022
:100840006A6F1E506B6F0A016B51800FF36E16506A
:10085000800FF35C08E115506A5D05E10C50695D9D
:1008600002E10B50685DD8B054D00B500A01686F9C
:100870000C50696F15506A6F16506B6F4AD0065056
:10088000800FF36E1650800FF35C08E11550055C85
:1008900005E10C50045C02E10B50035CD8B039D088
:1008A0000D500324076E0E500420086E13500520CF
:1008B000096E145006200A6E07500A01686F08502E
:1008C000696F09506A6F0A506B6F23D06CCA07F0CA
:1008D0006DCA08F0E86A0A016DBFFF0E096E0A6E64
:1008E00007500D2608500E22095013220A501422D8
:1008F0000D5003260E5004221350052214500622D8
:1009000003500A01686F0450696F05506A6F065002
:100910006B6FD8900A016A31046E6931036ED8900A
:10092000043203326B51E840E840C00B04126B41C3
:10093000E8403F0BE8BAC009056E066A05BE0668C6
:100940006251032663510422645105226551062237
:100950000350626F0450636F0550646F0650656FFB
:10096000E56A100EE56E800EE56E0A0EE56E600E0D
:10097000E56E0250E56E0150E56E0050E56ED1EC7B
:1009800026F0080EE126E4CF25F0E4CF24F0E4CFF2
:1009900023F0E4CF22F0E4CF21F0E4CF20F0E4CF45
:1009A0001FF0E4CF1EF0E4CF1DF0E4CF1CF0E4CF45
:1009B0001BF0E4CF1AF0E4CF19F0E4CF18F0E4CF45
:1009C00017F0E4CF16F0E4CF15F0E4CF14F0E4CF45
:1009D00013F0E4CF12F0E4CF11F0E4CF10F0E4CF45
:1009E0000FF0E4CF0EF0E4CF0DF0E4CF0CF0E4CF45
:1009F0000BF0E4CF0AF0E4CF09F0E4CF08F0E4CF45
:100A000007F0E4CF06F0E4CF05F0E4CF04F0E4CF44
:100A100003F0E4CF02F0E4CF01F0E4CF00F0E4CF44
:100A2000D9FF1200D9CFE5FFE1CFD9FF00C0E5FF24
:100A300001C0E5FF02C0E5FF03C0E5FF04C0E5FF1C
:100A400005C0E5FF06C0E5FF07C0E5FF08C0E5FFFC
:100A500009C0E5FF0AC0E5FF0BC0E5FF0CC0E5FFDC
:100A60000DC0E5FF0EC0E5FF0FC0E5FF10C0E5FFBC
:100A700011C0E5FF12C0E5FF13C0E5FF14C0E5FF9C
:100A800015C0E5FF16C0E5FF17C0E5FF18C0E5FF7C
:100A900019C0E5FF1AC0E5FF1BC0E5FF1CC0E5FF5C
:100AA0001DC0E5FF1EC0E5FF020EDBCF00F0030E08
:100AB000DBCF01F0040EDBCF02F0050EDBCF03F03D
:100AC000060EDBCF04F0070EDBCF05F0080EDBCF00
:100AD00006F0090EDBCF07F00A0EDBCF08F0096A3B
:100AE0000A6A02C00DF00D50800A0DE102500A01A1
:100AF000C66F0150C56F0050C46F0A0E016EC40E60
:100B0000006E800E026E03C0E9FF04C0F3FF0550C3
:100B1000F7EC35F00B6E0B50D8B400EF09F00B502A
:100B2000250A02E0E7EF08F00C6A0D6A0E6A0F6A08
:100B3000106A0A0E116E126A136A146A200E156E7C
:100B40001668176A2B0E186E032A02E3044A052A58
:100B500003C0E9FF04C0F3FF0550F7EC35F0196E50
:100B6000250A13E11950E56E0250E56E0150E56E5D
:100B70000050E56EC1EC25F0040EE126094A0A2A70
:100B8000032A02E3044A052ABED71950300A06E1B7
:100B9000300E156E032A02E3044A052A03C0E9FF5A
:100BA00004C0F3FF0550F7EC35F02D0A06E1010E05
:100BB000146E032A02E3044A052A03C0E9FF04C0B5
:100BC000F3FF0550F7EC35F0200A08E1010E176E2F
:100BD000200E186E032A02E3044A052A03C0E9FF27
:100BE00004C0F3FF0550F7EC35F02B0A06E1010EC7
:100BF000176E032A02E3044A052A03C0E9FF04C072
:100C0000F3FF0550F7EC35F0196E800F4F0F2DE311
:100C10001950800F460F29E203C019F004C01AF0E2
:100C200005C01BF019C0E9FF1AC0F3FF1B50F7EC19
:100C300035F01C6E800F500F12E31C50800F460FD2
:100C40000EE213500A0DF3CF1DF01D501C26D00EDE
:100C50001C24136E192A02E31A4A1B2AE3D719C06F
:100C600003F01AC004F01BC005F003C0E9FF04C084
:100C7000F3FF0550F7EC35F02E0A2EE1032A02E3CC
:100C8000044A052A166A03C019F004C01AF005C008
:100C90001BF019C0E9FF1AC0F3FF1B50F7EC35F049
:100CA0001C6E800F500F12E31C50800F460F0EE297
:100CB00016500A0DF3CF1DF01D501C26D00E1C241B
:100CC000166E192A02E31A4A1B2AE3D719C003F049
:100CD0001AC004F01BC005F003C0E9FF04C0F3FF15
:100CE0000550F7EC35F0196E6C0A07E1010E0C6E39
:100CF000032A02E3044A052A09D01950680A06E1CA
:100D0000010E0E6E032A02E3044A052A03C0E9FF1E
:100D100004C0F3FF0550F7EC35F0750A06E1010E4B
:100D2000106E032A02E3044A052A03C0E9FF04C047
:100D3000F3FF0550F7EC35F0196E730A05E1010E6B
:100D40000D6E200E156E3FD01950780A03E1100E7B
:100D5000116E39D01950580A05E1100E116E010EAE
:100D6000126E31D01950630A02E1116A2CD0195069
:100D70006F0A03E1080E116E26D01950660A03E1CE
:100D8000010E0F6E20D01950640A1DE01950690A37
:100D90001AE0105005E0FF0E03260422052213D0AE
:100DA0001950E56E0250E56E0150E56E0050E56E9B
:100DB000C1EC25F0040EE126094A0A2A032A02E3BF
:100DC000044A052AA0D60D5021E00650030F0D6EEF
:100DD000000E0720196E000E08201A6E0DC006F0D6
:100DE00019C007F01AC008F0FD0E0D26FF0E1922DB
:100DF0001A220DC0E9FF19C0F3FF1A50C2EC34F0FB
:100E00000D6EF3CF19F0F4CF1AF032D10F50D8B4E1
:100E10003ED00650040F0F6E000E07201B6E000E12
:100E200008201C6E0FC006F01BC007F01CC008F0A5
:100E3000FC0E0F26FF0E1B221C220FC0E9FF1BC059
:100E4000F3FF1C5048EC34F00F6EF3CF1BF0F4CFDF
:100E50001CF0E9CF1DF0040E196E000E0D6E800E11
:100E60001A6E1650E56E240EE56E040EE56E000E49
:100E7000E56E1D50E56E1C50E56E1B50E56E0F5083
:100E8000E56E15EC1DF0080EE1261668F1D0166827
:100E90000C5023E00650040F0C6E000E07200F6E5E
:100EA000000E08201B6E0CC006F00FC007F01BC020
:100EB00008F0FC0E0C26FF0E0F221B220CC0E9FFCF
:100EC0000FC0F3FF1B5048EC34F00C6EF3CF0FF063
:100ED000F4CF1BF0E9CF1CF06AD00E5032E0065080
:100EE000020F0E6E000E07201D6E000E08201E6EF3
:100EF0000EC006F01DC007F01EC008F0FE0E0E2644
:100F0000FF0E1D221E220EC0E9FF1DC0F3FF1E5062
:100F100081EC35F00E6E0EC00CF0E86A0EBEFF0ECE
:100F20000F6E1B6E1C6E11500A0A03E11050D8B4EC
:100F30003ED00C500E6E0EC00CF00F6A1B6A1C6A7D
:100F400036D00650020F0E6E000E07201D6E000EEA
:100F500008201E6E0EC006F01DC007F01EC008F06F
:100F6000FE0E0E26FF0E1D221E220EC0E9FF1DC022
:100F7000F3FF1E5081EC35F00E6EF3CF1DF00EC066
:100F80000CF01DC00FF0E86A1DBEFF0E1B6E1C6E3C
:100F900011500A0A02E110500AE00C500E6E0F5078
:100FA0001D6E0EC00CF01DC00FF01B6A1C6A040EF3
:100FB000196E010E0D6E800E1A6E1150D8B440D00D
:100FC000105013E01150E56E040EE56E010EE56E53
:100FD0001C50E56E1B50E56E0F50E56E0C50E56E33
:100FE00033EC20F0070EE12612D01150E56E040E0E
:100FF000E56E010EE56E1C50E56E1B50E56E0F5060
:10100000E56E0C50E56E66EC2AF0070EE1261750EF
:101010002FE00DC0E9FF19C0F3FF1A50F7EC35F0CF
:101020002D0A26E0FF0E0D2619221A2218C0E5FF10
:101030000DC0E9FF19C0F3FF1A5075EC36F018D057
:101040000CC0E5FF0DC0E9FF19C0F3FF1A5075ECA5
:1010500036F00D50010F0C6E000E19200E6E000EB2
:101060001A20E56A0CC0E9FF0EC0F3FF75EC36F0FC
:101070000DC00CF019C00EF01AC00FF013C010F024
:10108000105010E00CC0E9FF0EC0F3FF0F50F7EC5A
:1010900035F0176E175006E00C2A02E30E4A0F2AAD
:1010A0001006EED710C013F014501EE109C00CF06A
:1010B0000AC00EF010C00FF00F5010E01550E56E92
:1010C0000250E56E0150E56E0050E56EC1EC25F072
:1010D000040EE1260C4A0E2A0F06EED70CC009F0CA
:1010E0000EC00AF00FC013F016C00CF00DC00DF0CA
:1010F00019C00EF01AC00FF009C010F00AC015F0A8
:101100000DC0E9FF0EC0F3FF0F50F7EC35F0166E7F
:101110001650D8B43ED00CC016F0176A161E171E13
:101120001650171005E00CC016F00C06165031E0F2
:101130000DC0E9FF0EC0F3FF0F50F7EC35F0116E54
:10114000125010E01150E56E3EEC35F0166EE6528E
:10115000165004E01150166E169A02D011C016F007
:1011600016C011F01150E56E0250E56E0150E56EAB
:101170000050E56EC1EC25F0040EE1260D2A02E3D5
:101180000E4A0F2A104A152A1350D8B4B9D713069D
:10119000B7D710C009F015C00AF014502BE010C0EA
:1011A0000CF015C00DF013C00EF00E501FE0200E15
:1011B000E56E0250E56E0150E56E0050E56EC1EC43
:1011C00025F0040EE1260C4A0D2A0E06EED70B5030
:1011D000E56E0250E56E0150E56E0050E56EC1EC23
:1011E00025F0040EE126094A0A2A04D00CC009F0B1
:1011F0000DC00AF0032A02E3044A052A83EF05F032
:101200000AC0F3FF0950E4CF1EF0E4CF1DF0E4CF95
:101210001CF0E4CF1BF0E4CF1AF0E4CF19F0E4CFD8
:1012200018F0E4CF17F0E4CF16F0E4CF15F0E4CFD8
:1012300014F0E4CF13F0E4CF12F0E4CF11F0E4CFD8
:1012400010F0E4CF0FF0E4CF0EF0E4CF0DF0E4CFD8
:101250000CF0E4CF0BF0E4CF0AF0E4CF09F0E4CFD8
:1012600008F0E4CF07F0E4CF06F0E4CF05F0E4CFD8
:1012700004F0E4CF03F0E4CF02F0E4CF01F0E4CFD8
:1012800000F0E4CFD9FF1200D9CFE5FFE1CFD9FFBD
:1012900000C0E5FF01C0E5FF02C0E5FF03C0E5FFB8
:1012A00004C0E5FF05C0E5FF06C0E5FF07C0E5FF98
:1012B00008C0E5FF09C0E5FF0AC0E5FF0BC0E5FF78
:1012C0000CC0E5FF0DC0E5FF020EDBCF00F0030E02
:1012D000DBCF01F0040EDBCF02F00050090F066EE9
:1012E000000E0120076E000E0220086E0B6E0750E4
:1012F0000A6E0650096EE56A0D0EE56E0B50E56E3E
:101300000A50E56E0950E56E800EE56E040EE56E3E
:10131000F30EE56ED1EC26F0080EE12600C009F0D0
:1013200001C00AF002C00BF0E56AE56E0B50E56EF5
:101330000A50E56E0950E56E800EE56E040EE56E0E
:101340008A0EE56ED1EC26F0080EE1268AC403F081
:101350000350010A04E00350030A01E01FD1040115
:10136000FB510A01785D036E0401FC510A017959B1
:10137000046E0401FD510A017A590401FE510A016B
:101380007B5903500A01CD6F0450CE6F0A0178518A
:101390000401FB6F0A0179510401FC6F0A017A51C3
:1013A0000401FD6F0A017B510401FE6F0A01CD515A
:1013B000CE11D8A47FD00DEC33F0036EF3CF04F040
:1013C000F4CF05F0E9CF09F00A0170510A6E7151AE
:1013D0000B6E72510C6E73510D6E0A50035E0B5002
:1013E000045A0C50055A0D50095A03500A01916FC6
:1013F0000450926F0550936F7F0E0914946F04018F
:10140000FFB125D00A0192359431046E9331036EF9
:10141000043404320332000E04BEFF0E096E056E62
:101420008FC40AF00B6A0C6A0D6A0D50800FF36EC0
:101430000950800FF35C08E105500C5C05E1045095
:101440000B5C02E103500A5C02E20401FF8104012B
:10145000FFB14AD0F7C403F0F8C404F0F9C405F0B2
:10146000FAC409F00A019451800FF36E0950800FFD
:10147000F35C08E10550935D05E10450925D02E1E3
:101480000350915D08E203C091FA04C092FA05C0CE
:1014900093FA09C094FA0A017CA303D0010E036EEB
:1014A00001D0036803C0CDFA0A01CE6B03AE01D0B0
:1014B000CE691AD00401FF9174CA91FA75CA92FAE2
:1014C00076CA93FA77CA94FA0A0191510401F76F28
:1014D0000A0192510401F86F0A0193510401F96F56
:1014E0000A0194510401FA6F0A019451800F800F90
:1014F00008E1000E935D05E1000E925D02E1010E30
:10150000915D06E20A01956B966B976B986B46D0DE
:101510000A019151036E9251046E9351056E9451DC
:10152000E56E0550E56E0450E56E0350E56E010E64
:10153000E56E000EE56AE56AE56AACEC24F0036E40
:10154000F3CF04F0F4CF05F0E9CF09F0080EE1265F
:10155000CDCA0AF0CECA0BF0E86A0A01CEBFFF0E70
:101560000C6E0D6E0950E56E0550E56E0450E56E8B
:101570000350E56E0D50E56E0C50E56E0B50E56EB8
:101580000A50E56E27EC1EF00A01956FF3CF96FA2C
:10159000F4CF97FAE9CF98FA080EE126020E04017B
:1015A0008A5DD8A045D10A017CA142D10050230F09
:1015B000036E000E0120046E000E0220E56E045042
:1015C000E56E0350E56E0EEC00F0030EE1260050D0
:1015D000230F036E000E0120046E000E0220056E24
:1015E000020E0326000E0422052203C0E9FF04C0F8
:1015F000F3FF055048EC34F0F3CF04F0F4CF05F0DE
:10160000E9CF09F00450036E0550046ED8900432FF
:101610000332D890043203320950E840E840C00B4E
:1016200004120940E8403F0BE8BAC009056E096A98
:1016300005BE09680A017851035C0A01996F0A0125
:10164000795104580A019A6F0A017A5105580A0122
:101650009B6F0A017B5109580A019C6FD8809CAF8F
:10166000D89022E304018C1D046E8B1D036E034A87
:10167000042AE86A04BEFF0E056E096E0A019C5139
:10168000800FF36E0950800FF35C08E105509B5DFD
:1016900005E104509A5D02E10350995D05E30A01FA
:1016A000996B9A6B9B6B9C6B0A019C51800F800F0E
:1016B00008E1000E9B5D05E1000E9A5D02E1010E5E
:1016C000995D1EE38BC403F08CC404F0E86A040146
:1016D0008CBFFF0E056E800FF36E0A019C51800FC8
:1016E000F35C08E19B51055C05E19A51045C02E161
:1016F0009951035C05E30A01996B9A6B9B6B9C6B98
:101700000401905109E0E86CD8900A0199379A37A2
:101710009B379C37010FF9E30A019C51800F800F22
:1017200008E1000E9B5D05E1800E9A5D02E1000E6E
:10173000995D07E30A0199697F0E9A6F9B6B9C6B19
:1017400014D00A019C51800F810F08E1FF0E9B5DB0
:1017500005E1800E9A5D02E1000E995D06E20A0144
:10176000996B800E9A6F9B699C690050330F036ED2
:10177000000E0120046E000E0220056E0A01995130
:10178000096E9A51E56E0950E56E0550E56E0450FC
:10179000E56E0350E56EA6EC12F0050EE12604019D
:1017A0008A51030A23E10050330F036E000E01201B
:1017B000046E000E0220056E0B0E0326000E04229E
:1017C000052203C0E9FF04C0F3FF055048EC34F0E4
:1017D000F3CF04F0F4CF05F00450036E0550046E0F
:1017E00003500401F36F0450F46F22D00050330F04
:1017F000036E000E0120046E000E0220056E0B0E1B
:101800000326000E0422052203C0E9FF04C0F3FFF3
:10181000055048EC34F0F3CF04F0F4CF05F0045059
:10182000036E0550046E03500401F56F0450F66F0B
:101830008AC403F00350010A04E00350030A01E0E4
:101840007DD0F3C403F0F4C404F0E86A0401F4BFEB
:10185000FF0E056E096E0A019551035C0A01996F2E
:101860000A01965104580A019A6F0A0197510558C6
:101870000A019B6F0A01985109580A019C6F800F59
:10188000800F08E1000E9B5D05E1800E9A5D02E18C
:10189000000E995D07E30A0199697F0E9A6F9B6BB1
:1018A0009C6B14D00A019C51800F810F08E1FF0E40
:1018B0009B5D05E1800E9A5D02E1000E995D06E2F6
:1018C0000A01996B800E9A6F9B699C690050440FC6
:1018D000036E000E0120046E000E0220056E0A0148
:1018E0009951096E9A51E56E0950E56E0550E56E05
:1018F0000450E56E0350E56EA6EC12F0050EE126ED
:10190000440E0026000E012202220B0E0026000EBD
:101910000122022200C0E9FF01C0F3FF025048EC9F
:1019200034F0F3CF01F0F4CF02F00150006E02501A
:10193000016E00500401F56F0150F66F0850086EFB
:10194000E56A0D0EE56E800EE56E040EE56EF30E93
:10195000E56E0850E56E0750E56E0650E56ED1EC79
:1019600026F0080EE126E4CF0DF0E4CF0CF0E4CF32
:101970000BF0E4CF0AF0E4CF09F0E4CF08F0E4CFB5
:1019800007F0E4CF06F0E4CF05F0E4CF04F0E4CFB5
:1019900003F0E4CF02F0E4CF01F0E4CF00F0E4CFB5
:1019A000D9FF120025642025640A000005C0E5FF68
:1019B00006C0E5FF07C0E5FF08C0E5FF09C0E5FF79
:1019C0000AC0E5FF0BC0E5FF0CC0E5FF0DC0E5FF59
:1019D0000EC0E5FF0FC0E5FF10C0E5FF11C0E5FF39
:1019E00012C0E5FF13C0E5FF14C0E5FF15C0E5FF19
:1019F00016C0E5FF17C0E5FF18C0E5FF19C0E5FFF9
:101A00001AC0E5FF1BC0E5FF1CC0E5FF1DC0E5FFD8
:101A1000000E00B0050F066AF60F02E3062AFCD797
:101A20000A0F056E042E03D0FB0F01E3062A0650B1
:101A300000B0020F00B2050F076AF60F02E3072A93
:101A4000FCD70A0F066E042E03D0FB0F01E3072A12
:101A5000075000B0060F00B2020F00B4050F086A6D
:101A6000F60F02E3082AFCD70A0F076E042E03D0F4
:101A7000FB0F01E3082A085000B2010F00B4020F67
:101A800000B6050F096AF60F02E3092AFCD70A0F10
:101A9000086E042E03D0FB0F01E3092A095000B0A1
:101AA000090F00B2080F00B4060F00B6020F00B80D
:101AB000050F0A6AF60F02E30A2AFCD70A0F096E1D
:101AC000042E03D0FB0F01E30A2A0A5000B0030FD3
:101AD00000B2070F00B4050F00B6010F00B8020FE7
:101AE00000BA050F0B6AF60F02E30B2AFCD70A0FA8
:101AF0000A6E042E03D0FB0F01E30B2A0B5000B03B
:101B0000050F00B4010F00B6030F00B8060F00BAAE
:101B1000020F00BC050F0C6AF60F02E30C2AFCD77B
:101B20000A0F0B6E042E03D0FB0F01E30C2A0C509E
:101B300000B0070F00B2050F00BA010F00BC020F82
:101B400000BE050F0D6AF60F02E30D2AFCD70A0F3F
:101B50000C6E042E03D0FB0F01E30D2A0D5000B0D4
:101B6000070F00B2050F00B4010F00B6020F00B856
:101B7000040F00BA080F00BC060F00BE020F01B030
:101B8000050F0E6AF60F02E30E2AFCD70A0F0D6E40
:101B9000042E03D0FB0F01E30E2A0E5000B0040FF9
:101BA00000B2090F00B4090F00B6080F00B8060F05
:101BB00000BA020F00BC050F00BE010F01B0020FFA
:101BC00001B2050F0F6AF60F02E30F2AFCD70A0FC6
:101BD0000E6E042E03D0FB0F01E30F2A0F5000B04E
:101BE000040F00B2080F00B4070F00B6050F00B8CD
:101BF000010F00BA030F00BC060F00BE030F01B0B7
:101C0000060F01B2020F01B4050F106AF60F02E3CE
:101C1000102AFCD70A0F0F6E042E03D0FB0F01E32E
:101C2000102A105000B0060F00B2020F00B4050FCA
:101C300000B6010F00B8030F00BA060F00BC020F78
:101C400000BE050F01B2010F01B4020F01B6050F6E
:101C5000116AF60F02E3112AFCD70A0F106E042E48
:101C600003D0FB0F01E3112A115000B0040F00B2A2
:101C7000090F00B4080F00B6070F00B8040F00BA30
:101C8000080F00BC070F00BE040F01B0090F01B21E
:101C9000080F01B4060F01B6020F01B8050F126A52
:101CA000F60F02E3122AFCD70A0F116E042E03D09E
:101CB000FB0F01E3122A125000B4010F00B6030F0C
:101CC00000B8070F00BA040F00BC090F00BE090FCF
:101CD00001B0080F01B2070F01B4050F01B6010FE3
:101CE00001B8020F01BA050F136AF60F02E3132AB7
:101CF000FCD70A0F126E042E03D0FB0F01E3132A48
:101D0000135000B0060F00B2020F00B4040F00B66B
:101D1000080F00B8060F00BA030F00BC060F00BE84
:101D2000030F01B0070F01B2050F01B4010F01B697
:101D3000030F01B8060F01BA020F01BC050F146AA8
:101D4000F60F02E3142AFCD70A0F136E042E03D0F9
:101D5000FB0F01E3142A145000B0090F00B2090F61
:101D600000B4080F00B6060F00B8030F00BA070F43
:101D700000BC040F00BE090F01B0080F01B2070F2D
:101D800001B4050F01BA010F01BC020F01BE050F1E
:101D9000156AF60F02E3152AFCD70A0F146E042EFB
:101DA00003D0FB0F01E3152A155000B0050F00B258
:101DB000010F00B4030F00B6070F00B8050F00BCF9
:101DC000010F00BE020F01B0050F01B2010F01B4F7
:101DD000030F01B6070F01B8040F01BA080F01BCC9
:101DE000060F01BE020F02B0050F166AF60F02E3DE
:101DF000162AFCD70A0F156E042E03D0FB0F01E341
:101E0000162A165000B2010F00B4020F00B6040FDC
:101E100000B8090F00BA090F00BC080F00BE060F7A
:101E200001B0020F01B2050F01B8010F01BA020F94
:101E300001BC050F01BE010F02B0020F02B2050F77
:101E4000176AF60F02E3172AFCD70A0F166E042E44
:101E500003D0FB0F01E3172A175000BA010F00BC93
:101E6000030F00BE070F01B0050F01B4010F01B64B
:101E7000020F01B8040F01BA080F01BC060F01BE22
:101E8000030F02B0060F02B2020F02B4050F186A68
:101E9000F60F02E3182AFCD70A0F176E042E03D0A0
:101EA000FB0F01E3182A185001B0010F01B2030F14
:101EB00001B4060F01B6020F01B8040F01BA080FF2
:101EC00001BC070F01BE050F02B2010F02B4020FE1
:101ED00002B6050F196AF60F02E3192AFCD70A0F9A
:101EE000186E042E03D0FB0F01E3192A195001B616
:101EF000010F01B8020F01BA040F01BC090F01BEA6
:101F0000090F02B0090F02B2080F02B4060F02B6A1
:101F1000020F02B8050F1A6AF60F02E31A2AFCD75D
:101F20000A0F196E042E03D0FB0F01E31A2A1A5070
:101F300001BE010F02B0030F02B2070F02B4050F7A
:101F400002B6010F02B8020F02BA050F1B6AF60FA4
:101F500002E31B2AFCD70A0F1A6E042E03D0FB0FD4
:101F600001E31B2A1B5002B4010F02B6030F02B893
:101F7000060F02BA020F02BC050F1C6AF60F02E33D
:101F80001C2AFCD70A0F1B6E042E03D0FB0F01E3A3
:101F90001C2A1C5002BA010F02BC020F02BE050F20
:101FA0001D6AF60F02E31D2AFCD70A0F1C6E042ED1
:101FB00003D0FB0F01E31D2A300FEE6E1B50300FD4
:101FC000EE6E1A50300FEE6E1950300FEE6E185044
:101FD000300FEE6E1750300FEE6E1650300FEE6E63
:101FE0001550300FEE6E1450300FEE6E1350300F50
:101FF000EE6E1250300FEE6E1150300FEE6E10502C
:10200000300FEE6E0F50300FEE6E0E50300FEE6E42
:102010000D50300FEE6E0C50300FEE6E0B50300F37
:10202000EE6E0A50300FEE6E0950300FEE6E085013
:10203000300FEE6E0750300FEE6E0650300FEE6E22
:102040000550300FEE6E170EE4CF1DF0E4CF1CF0FC
:10205000E4CF1BF0E4CF1AF0E4CF19F0E4CF18F08E
:10206000E4CF17F0E4CF16F0E4CF15F0E4CF14F08E
:10207000E4CF13F0E4CF12F0E4CF11F0E4CF10F08E
:10208000E4CF0FF0E4CF0EF0E4CF0DF0E4CF0CF08E
:10209000E4CF0BF0E4CF0AF0E4CF09F0E4CF08F08E
:1020A000E4CF07F0E4CF06F0E4CF05F0120000C063
:1020B000E5FF01C0E5FF02C0E5FF03C0E5FF04C086
:1020C000E5FF05C0E5FF06C0E5FF07C0E5FF08C066
:1020D000E5FF09C0E5FF0AC0E5FF0BC0E5FF0CC046
:1020E000E5FF006A016A026A040E025CD8B069EF7B
:1020F00012F001C003F0012A100E035CD8B0E9D140
:1021000004016F2B100E6F5D01E36F6B04016F39DB
:10211000E8441F0B036E046AC90E03260A0E04224C
:1021200003C0E9FF04C0EAFFEFCF03F0070E6F150D
:10213000046E010E056E000E066E045006E0E86C9B
:10214000D89005360636010FFCE3076A03500516E2
:1021500007500616055005E1065003E1056A052AF9
:1021600001D0056A0550D880E866D890056A053622
:102170000550D8B4B9D704016F51020DF450046E64
:10218000F3CF03F0E00E0324056E000E0420066E6C
:1021900005C0E9FF06C0EAFFEECF05F0EFCF06F07D
:1021A00004016CA19DD0D30E0324076E040E0420FD
:1021B000086E07C0E9FF08C0EAFFEECF07F0EFCFD7
:1021C00008F00650800FF36E0850800FF35C02E1B8
:1021D0000750055C03E2056A066A60D0000E03261C
:1021E0000A0E042203C0E9FF04C0EAFFEECF03F0A9
:1021F000EFCF04F00450800FF36E0650800FF35CB5
:1022000002E10550035C04E205683F0E066E46D00D
:102210000750055C096E085006580A6EE86A0ABE47
:10222000FF0E0B6EE56E0B50E56E0A50E56E095021
:10223000E56EE56AE56A400EE56E000EE56A27EC9C
:102240001EF0096EF3CF0AF0F4CF0BF0E9CF0CF0DB
:10225000080EE1260750035C076E08500458086E0C
:10226000E86A08BEFF0E036EE56E0350E56E085087
:10227000E56E0750E56E0C50E56E0B50E56E0A50AA
:10228000E56E0950E56EACEC24F0036EF3CF04F07C
:10229000080EE1260350056E0450066E04016B51D2
:1022A000800FF36E0650800FF35C02E105506A5D0B
:1022B00003E3056A066A14D004016A51FF08036E3D
:1022C0003F0E6B55046E0650800FF36E0450800F66
:1022D000F35C02E10350055C03E305683F0E066E04
:1022E00004016F51020DF450046EF3CF03F0B30EEE
:1022F0000326040E042203C0E9FF04C0EAFFEECF68
:1023000003F0EFCF04F00350055C036E0450065851
:10231000046ED88004AED89004E3041E036CD8B4D5
:10232000042A022A04016B51800FF36E0450800FBF
:10233000F35C02E103506A5DD8B0D6D604016F5158
:10234000020DF450086EF3CF07F0B30E0726040E0B
:10235000082207C0E9FF08C0EAFF05C0EEFF06C07B
:10236000EFFF04016CA55AD004016F51020DF45027
:10237000086EF3CF07F0200E0724096E0A0E08201E
:102380000A6E09C0E9FF0AC0EAFFEECF0BF0EFCFFB
:102390000CF00B500C10D8B441D0930E0726040E4D
:1023A000082207C0E9FF08C0EAFFEECF07F0EFCF31
:1023B00008F00750055C036E08500658046E0310C1
:1023C0001CE00450800F800F02E1010E035C076ADD
:1023D00007360C50800F800F02E1010E0B5C0B6A78
:1023E0000B3607500B1809E109C0E9FF0AC0EAFFE4
:1023F00003C0EEFF04C0EFFF77D604016F51020D5A
:10240000F450046EF3CF03F0200E03260A0E0422CC
:1024100003C0E9FF04C0EAFFEE6AEF6A04016CA39F
:1024200043D000500EE100C003F0002A046A700E91
:102430000326040E042203C0E9FF04C0EAFF420E93
:10244000EF6E00C003F0002A046A700E0326040E2B
:102450000422640E04016F25076E03C0E9FF04C067
:10246000EAFF07C0EFFF00C003F0002A046A700E05
:102470000326040E04220650076E03C0E9FF04C0C1
:10248000EAFF07C0EFFF00C003F0002A046A700EE5
:102490000326040E04220550076E03C0E9FF04C0A2
:1024A000EAFF07C0EFFF20D66FC403F00650E56EC9
:1024B0000550E56EE56A0350E56E000EE56E500EC0
:1024C000E56E840EE56ED7EC2FF0070EE12674EF73
:1024D00010F002C001F000501DE004016CA31AD0FE
:1024E00000C002F0002A036A700E0226040E0322C6
:1024F00002C0E9FF03C0EAFF0A0EEF6E0050E56E6E
:10250000800EE56E040EE56E700EE56E53EC27F05E
:10251000040EE1260150E4CF0CF0E4CF0BF0E4CF41
:102520000AF0E4CF09F0E4CF08F0E4CF07F0E4CFFD
:1025300006F0E4CF05F0E4CF04F0E4CF03F0E4CFFD
:1025400002F0E4CF01F0E4CF00F01200D9CFE5FFB4
:10255000E1CFD9FF00C0E5FF01C0E5FF02C0E5FF04
:1025600003C0E5FF04C0E5FF05C0E5FF06C0E5FFC9
:1025700007C0E5FF08C0E5FF09C0E5FF0AC0E5FFA9
:102580000BC0E5FF020EDBCF00F0030EDBCF01F046
:10259000040EDBCF02F0050EDBCF03F0060EDBCF1F
:1025A00004F002500A6E0150096E0050086EE56A90
:1025B000110EE56E0A50E56E0950E56E0850E56EA5
:1025C000800EE56E040EE56E240EE56ED1EC26F06D
:1025D000080EE12633C405F034C406F0E86A0401AD
:1025E00034BFFF0E076E0A01A46F0650A36F05509B
:1025F000A26FA16B03C005F004C006F0E86A04BE38
:10260000FF0E076E086E24C409F0E56AE56AE56A04
:102610000950E56E0850E56E0750E56E0650E56E10
:102620000550E56E27EC1EF00A019D6FF3CF9EFA70
:10263000F4CF9FFAE9CFA0FA080EE1260401255154
:10264000D8B4AFD00450800F800F02E1010E035CBC
:1026500025E304012A51800F7C0F08E1000E295D5B
:1026600005E1000E285D02E1000E275D17E204017E
:102670003251800FF36E0A01A451800FF35C0DE11B
:10268000A3510401315D09E10A01A2510401305D49
:1026900004E10A01A15104012F5D33E3D88004AEA7
:1026A000D890D8A043D004012A51800F840F08E1AC
:1026B000000E295D05E1000E285D02E1010E275D97
:1026C00035E30A01A41D0A6EA31D096EA21D046E46
:1026D000A11D036E032A04E1042A02E1094A0A2A21
:1026E0000A50800FF36E04013251800FF35C08E151
:1026F0003151095C05E13051045C02E12F51035C6A
:1027000015E2055004012725036E06502821046EAA
:1027100007502921096E08502A210A6E0350276F9D
:102720000450286F0950296F0A502A6F0401273975
:102730000F0B036E2839046EF00B041A032629517F
:10274000E838F00B041229390F0B096E2A390A6E8A
:10275000F00B0A1A0926F00E0AB60A2625C40BF059
:10276000E56AE56AE56A0B50E56E0A50E56E0950C8
:10277000E56E0450E56E0350E56E27EC1EF0036E27
:10278000F3CF04F0F4CF09F0E9CF0AF0080EE12608
:1027900003500A019D2704509E2309509F230A508D
:1027A000A02304012651D8B465D02B51055C0A0141
:1027B000A56F04012C5106580A01A66F04012D5182
:1027C00007580A01A76F04012E5108580A01A86F83
:1027D000800F800F08E1010EA75D05E1000EA65DE8
:1027E00002E1000EA55D06E30A01A569A669A76BD3
:1027F000A86B13D00A01A851800F810F08E1FF0ECA
:10280000A75D05E1000EA65D02E1000EA55D05E2F3
:102810000A01A56BA66BA769A8690A01A551A525A0
:10282000036EA635046EA735096EA8350A6E26C458
:102830000BF0E56AE56AE56A0B50E56E0A50E56E55
:102840000950E56E0450E56E0350E56E27EC1EF06E
:10285000036EF3CF04F0F4CF09F0E9CF0AF0080ECD
:10286000E12603500A019D2704509E2309509F230F
:102870000A50A023055004012B6F06502C6F0750FF
:102880002D6F08502E6F0A01A451800FF36E0A01BC
:10289000A051800FF35C0DE19F510A01A35D09E196
:1028A0000A019E510A01A25D04E10A019D510A013B
:1028B000A15D11E20A01A15104012F6F0A01A25189
:1028C0000401306F0A01A3510401316F0A01A451C0
:1028D0000401326F3AD00A01A41D066EA31D056ED5
:1028E000A21D046EA11D036E032A04E1042A02E165
:1028F000054A062A0A01A051800FF36E0650800F88
:10290000F35C08E105509F5D05E104509E5D02E126
:1029100003509D5D0AE2035004012F6F0450306F95
:102920000550316F0650326F10D00A019D510401DD
:102930002F6F0A019E510401306F0A019F5104015B
:10294000316F0A01A0510401326FE56A110EE56E84
:10295000800EE56E040EE56E240EE56E0250E56E07
:102960000150E56E0050E56ED1EC26F0080EE12630
:10297000E4CF0BF0E4CF0AF0E4CF09F0E4CF08F0A5
:10298000E4CF07F0E4CF06F0E4CF05F0E4CF04F0A5
:10299000E4CF03F0E4CF02F0E4CF01F0E4CF00F0A5
:1029A000E4CFD9FF1200D9CFE5FFE1CFD9FF00C0B6
:1029B000E5FF01C0E5FF02C0E5FF03C0E5FF04C07D
:1029C000E5FF05C0E5FF06C0E5FF07C0E5FF08C05D
:1029D000E5FF09C0E5FF0AC0E5FF020EDBCF00F00E
:1029E000030EDBCF01F0040EDBCF02F0036A046AB2
:1029F00037EC33F0056EFE0A01E077D090EC2CF056
:102A000037EC33F0066E030E065CD8A05AD0060EE3
:102A1000065CD8B056D0FD0E0624076EFA6AFB6A33
:102A20000734FA36E834FA36FC0B3A0FE56E2A0E14
:102A3000FA22000EFB22E450F96E23EF15F035EF79
:102A400015F04EEF15F00050090F076E000E012033
:102A5000086E000E022007C0E9FF08C0F3FF81ECFA
:102A600035F0036EF3CF04F02CD00050090F076E41
:102A7000000E0120086E000E0220096E020E0726CD
:102A8000000E0822092207C0E9FF08C0F3FF095021
:102A900081EC35F0036EF3CF04F013D00050070F34
:102AA000076E000E0120086E000E022007C0E9FF2D
:102AB00008C0F3FFF7EC35F0010B076E07C003F019
:102AC000046A06C007F00450E56E0350E56EE56A3F
:102AD0000750E56E000EE56E190EE56EA40EE56E6C
:102AE000D7EC2FF0070EE12634D1070E055CD8B0E5
:102AF00030D1FA6AFB6A0534FA36E834FA36FC0B50
:102B0000100FE56E2B0EFA22000EFB22E450F96E38
:102B100096EF15F0B1EF15F0C3EF15F0D5EF15F006
:102B200007EF16F03DEF16F05CEF16F00050230FA4
:102B3000036E000E0120046E000E0220E56E0450AC
:102B4000E56E0350E56E18EC18F0030EE126020E58
:102B5000E56E00C0E9FF01C0F3FF025075EC36F0EE
:102B6000F8D00050330F036E000E0120046E000EEB
:102B70000220E56E0450E56E0350E56EA5EC1AF0F8
:102B8000030EE126E6D00050440F036E000E012034
:102B9000046E000E0220E56E0450E56E0350E56EF3
:102BA000A5EC1AF0030EE126D4D00050090F036EF5
:102BB000000E0120046E000E0220056E37EC33F08B
:102BC0000A6E096AE56A0AC0F4FF03C0E9FF04C09F
:102BD000F3FF055052EC36F037EC33F0086A092663
:102BE00008500A2209C0E5FF0AC0F4FF03C0E9FF4C
:102BF00004C0F3FF055052EC36F0010EE56E00C044
:102C0000E9FF01C0F3FF025075EC36F0A2D000508E
:102C1000090F036E000E0120046E000E0220056EE7
:102C2000020E0326000E0422052237EC33F00A6E52
:102C3000096AE56A0AC0F4FF03C0E9FF04C0F3FFB4
:102C4000055052EC36F037EC33F0086A092608508C
:102C50000A2209C0E5FF0AC0F4FF03C0E9FF04C06F
:102C6000F3FF055052EC36F0E56A00C0E9FF01C001
:102C7000F3FF025075EC36F06CD00050070F036E76
:102C8000000E0120046E000E0220056E37EC33F0BA
:102C9000010BF46E03C0E9FF04C0F3FF0550F7EC2D
:102CA00035F0FE0BF410E56E03C0E9FF04C0F3FF3E
:102CB000055075EC36F04DD037EC33F0066E005011
:102CC000160F036E000E0120046E000E0220056E2A
:102CD00003500C0F076E000E0420086E000E052036
:102CE000096E0650010BF46E07C0E9FF08C0F3FF40
:102CF0000950F7EC35F0FE0BF410E56E07C0E9FF64
:102D000008C0F3FF095075EC36F00650010A21E1C6
:102D1000080E0326000E04220522E56AF46AF66A0C
:102D2000F76A03C0E9FF04C0F3FF055008EC36F072
:102D3000230E0026000E01220222E56AE56A0250F7
:102D4000E56E0150E56E0050E56E1FEC24F0050EB7
:102D5000E126E4CF0AF0E4CF09F0E4CF08F0E4CFB5
:102D600007F0E4CF06F0E4CF05F0E4CF04F0E4CFC1
:102D700003F0E4CF02F0E4CF01F0E4CF00F0E4CFC1
:102D8000D9FF120000C0E5FF01C0E5FF02C0E5FF6A
:102D900003C0E5FF04C0E5FF05C0E5FF06C0E5FF91
:102DA00007C0E5FF08C0E5FF09C0E5FF0AC0E5FF71
:102DB0000BC0E5FF0CC0E5FF0DC0E5FF0EC0E5FF51
:102DC000000E00B0010F00B2020F00B4040F00B6F5
:102DD000080F00B8060F00BA020F00BC040F00BEB7
:102DE000080F01B0060F01B2020F01B4040F01B6C3
:102DF000080F01B8060F01BA020F01BC040F01BE93
:102E0000080F02B0060F02B2020F02B4040F02B69E
:102E1000080F02B8060F02BA020F02BC040F02BE6E
:102E2000080F056AF60F02E3052AFCD70A0F046EA5
:102E3000055000B8010F00BA030F00BC060F00BE1A
:102E4000020F01B0050F01B2010F01B4020F01B66C
:102E5000040F01B8090F01BA090F01BC080F01BE28
:102E6000060F02B0030F02B2070F02B4040F02B63E
:102E7000080F02B8070F02BA050F066AF60F02E341
:102E8000062AFCD70A0F056E065000BE010F01B0DE
:102E9000020F01B2050F01BA010F01BC030F01BE01
:102EA000070F02B0050F02B4010F02B6020F02B8FD
:102EB000050F02BA010F02BC030F02BE060F076A1C
:102EC000F60F02E3072AFCD70A0F066E075001B47B
:102ED000010F01B6020F01B8040F01BA080F01BCBF
:102EE000060F01BE020F02B0050F02B2010F02B4BD
:102EF000020F02B6040F02B8080F02BA070F02BC95
:102F0000040F02BE080F086AF60F02E3082AFCD776
:102F10000A0F076E085001BC010F01BE030F02B07B
:102F2000060F02B2030F02B4060F02B6020F02B878
:102F3000040F02BA090F02BC090F02BE080F096A8A
:102F4000F60F02E3092AFCD70A0F086E095002B2F5
:102F5000010F02B4020F02B6050F02BC010F02BE40
:102F6000030F0A6AF60F02E30A2AFCD70A0F096E5A
:102F70000A5002B8010F02BA020F02BC040F02BECF
:102F8000080F0B6AF60F02E30B2AFCD70A0F0A6E32
:102F90000B500E6A0EE10A5010E1095012E1085080
:102FA00014E1075016E1065018E105501AE10450EB
:102FB0001CD00E2A300FEE6E0A500E2A300FEE6E25
:102FC00009500E2A300FEE6E08500E2A300FEE6EAA
:102FD00007500E2A300FEE6E06500E2A300FEE6E9E
:102FE00005500E2A300FEE6E04500E2A300FEE6E92
:102FF0000E50E4CF0EF0E4CF0DF0E4CF0CF0E4CFB0
:103000000BF0E4CF0AF0E4CF09F0E4CF08F0E4CF0E
:1030100007F0E4CF06F0E4CF05F0E4CF04F0E4CF0E
:1030200003F0E4CF02F0E4CF01F0E4CF00F01200AF
:10303000D9CFE5FFE1CFD9FF00C0E5FF01C0E5FF33
:1030400002C0E5FF03C0E5FF04C0E5FF05C0E5FFE2
:1030500006C0E5FF07C0E5FF08C0E5FF09C0E5FFC2
:103060000AC0E5FF0BC0E5FF020EDBCF00F0030E48
:10307000DBCF01F0040EDBCF02F0036A046A37EC09
:1030800033F0056EFE0A01E063D090EC2CF037ECD3
:1030900033F0066E06500AE00650010A19E00650A9
:1030A000020A28E006500A0A37E040D00050060F16
:1030B000076E000E0120086E000E022007C0E9FF17
:1030C00008C0F3FF81EC35F0036EF3CF04F02ED08F
:1030D00000500C0F076E000E0120086E000E02203B
:1030E00007C0E9FF08C0F3FF81EC35F0036EF3CFB2
:1030F00004F01CD000500E0F076E000E0120086E69
:10310000000E022007C0E9FF08C0F3FF81EC35F094
:10311000036EF3CF04F00AD000C0E9FF01C0F3FF53
:10312000025081EC35F0036EF3CF04F00450E56EED
:103130000350E56EE56A0650E56E000EE56E5B0E27
:10314000E56E0C0EE56ED7EC2FF0070EE126A1D050
:1031500005500CE00550010A32E00550020A01E179
:1031600057D005500A0A01E17CD093D00050060FD9
:10317000056E000E0120066E000E0220076E37EC71
:1031800033F00B6E0A6AE56A0BC0F4FF05C0E9FF75
:1031900006C0F3FF075052EC36F037EC33F0096A03
:1031A0000A2609500B220AC0E5FF0BC0F4FF05C038
:1031B000E9FF06C0F3FF075052EC36F06AD000502A
:1031C0000C0F056E000E0120066E000E0220076E29
:1031D00037EC33F00B6E0A6AE56A0BC0F4FF05C0EA
:1031E000E9FF06C0F3FF075052EC36F037EC33F03E
:1031F000096A0A2609500B220AC0E5FF0BC0F4FF3A
:1032000005C0E9FF06C0F3FF075052EC36F041D08D
:1032100000500E0F056E000E0120066E000E0220FB
:10322000076E37EC33F00B6E0A6AE56A0BC0F4FFE9
:1032300005C0E9FF06C0F3FF075052EC36F037EC4B
:1032400033F0096A0A2609500B220AC0E5FF0BC0B9
:10325000F4FF05C0E9FF06C0F3FF075052EC36F05B
:1032600018D037EC33F0046E036A37EC33F0066A9B
:103270000326065004220450E56E0350E56E02500A
:10328000E56E0150E56E0050E56EB6EC31F0050ECE
:10329000E126E4CF0BF0E4CF0AF0E4CF09F0E4CF6D
:1032A00008F0E4CF07F0E4CF06F0E4CF05F0E4CF78
:1032B00004F0E4CF03F0E4CF02F0E4CF01F0E4CF78
:1032C00000F0E4CFD9FF1200800EE56E0A0EE56E25
:1032D000000EE56EDAEC2DF0030EE126800EE56EB1
:1032E000040EE56ED30EE56EDAEC2DF0030EE1264A
:1032F000800EE56E0A0EE56E020EE56EDAEC2DF03C
:10330000030EE126800EE56E040EE56ED50EE56E29
:10331000DAEC2DF0030EE126800EE56E0A0EE56E66
:10332000040EE56EDAEC2DF0030EE126800EE56E5C
:10333000040EE56ED70EE56EDAEC2DF0030EE126F5
:10334000800EE56E0A0EE56E060EE56EDAEC2DF0E7
:10335000030EE126800EE56E040EE56ED90EE56ED5
:10336000DAEC2DF0030EE126800EE56E0A0EE56E16
:10337000080EE56EDAEC2DF0030EE126800EE56E08
:10338000040EE56EDB0EE56EDAEC2DF0030EE126A1
:10339000800EE56E0A0EE56E0A0EE56EDAEC2DF093
:1033A000030EE126800EE56E040EE56EDD0EE56E81
:1033B000DAEC2DF0030EE126800EE56E0A0EE56EC6
:1033C0000C0EE56EDAEC2DF0030EE126800EE56EB4
:1033D000040EE56EDF0EE56EDAEC2DF0030EE1264D
:1033E000800EE56E0A0EE56E0E0EE56EDAEC2DF03F
:1033F000030EE126800EE56E040EE56EE10EE56E2D
:10340000DAEC2DF0030EE126800EE56E0A0EE56E75
:10341000100EE56EDAEC2DF0030EE126800EE56E5F
:10342000040EE56EE30EE56EDAEC2DF0030EE126F8
:10343000800EE56E0A0EE56E120EE56EDAEC2DF0EA
:10344000030EE126800EE56E040EE56EE50EE56ED8
:10345000DAEC2DF0030EE126800EE56E0A0EE56E25
:10346000140EE56EDAEC2DF0030EE126800EE56E0B
:10347000040EE56EE70EE56EDAEC2DF0030EE126A4
:10348000800EE56E0A0EE56E160EE56EDAEC2DF096
:10349000030EE126800EE56E040EE56EE90EE56E84
:1034A000DAEC2DF0030EE126800EE56E0A0EE56ED5
:1034B000180EE56EDAEC2DF0030EE126800EE56EB7
:1034C000040EE56EEB0EE56EDAEC2DF0030EE12650
:1034D000800EE56E0A0EE56E1A0EE56EDAEC2DF042
:1034E000030EE126800EE56E040EE56EED0EE56E30
:1034F000DAEC2DF0030EE126800EE56E0A0EE56E85
:103500001C0EE56EDAEC2DF0030EE126800EE56E62
:10351000040EE56EEF0EE56EDAEC2DF0030EE126FB
:10352000800EE56E0A0EE56E1E0EE56EDAEC2DF0ED
:10353000030EE126800EE56E040EE56EF10EE56EDB
:10354000DAEC2DF0030EE1261200D9CFE5FFE1CF32
:10355000D9FF00C0E5FF01C0E5FF02C0E5FF03C0E1
:10356000E5FF04C0E5FF05C0E5FF06C0E5FF07C0B5
:10357000E5FF08C0E5FF020EDBCF00F0030EDBCF56
:1035800001F0040EDBCF02F0036A046A37EC33F07B
:10359000056EFE0A01E075D090EC2CF037EC33F0AC
:1035A000066E040E065CD8B05AD0FA6AFB6A06347E
:1035B000FA36E834FA36FC0BC80FE56E350EFA22FF
:1035C000000EFB22E450F96EECEF1AF0F8EF1AF05F
:1035D0000BEF1BF01EEF1BF000C0E9FF01C0F3FF73
:1035E0000250F7EC35F0076E07C003F0046A37D0DD
:1035F0000050010F076E000E0120086E000E022021
:1036000007C0E9FF08C0F3FFF7EC35F0076E07C00D
:1036100003F0046A24D00050020F076E000E012050
:10362000086E000E022007C0E9FF08C0F3FFF7ECA8
:1036300035F0076E07C003F0046A11D000500F0F79
:10364000076E000E0120086E000E022007C0E9FF81
:1036500008C0F3FF81EC35F0036EF3CF04F00450A3
:10366000E56E0350E56EE56A0650E56E000EE56E08
:10367000440EE56EDC0EE56ED7EC2FF0070EE1266A
:103680008DD0040E055CD8B089D0FA6AFB6A053487
:10369000FA36E834FA36FC0BA80FE56E360EFA223D
:1036A000000EFB22E450F96E5CEF1BF069EF1BF09B
:1036B00094EF1BF0AAEF1BF037EC33F0036E03C05E
:1036C000E5FF00C0E9FF01C0F3FF025075EC36F0E2
:1036D00065D00050010F036E000E0120046E000E35
:1036E0000220056E37EC33F0066E06C0E5FF03C01E
:1036F000E9FF04C0F3FF055075EC36F00650D8A47E
:103700004DD00050030F036E000E0120046E000E1A
:103710000220E56AF46AF66AF76A03C0E9FF04C0AA
:10372000F3FF08EC36F03AD00050020F036E000EA3
:103730000120046E000E0220056E37EC33F0066E99
:1037400006C0E5FF03C0E9FF04C0F3FF055075ECB8
:1037500036F024D00F0E0026000E0122022237EC94
:1037600033F0066E056AE56A06C0F4FF00C0E9FFA3
:1037700001C0F3FF025052EC36F037EC33F0046A2C
:1037800005260450062205C0E5FF06C0F4FF00C070
:10379000E9FF01C0F3FF025052EC36F0E4CF08F02D
:1037A000E4CF07F0E4CF06F0E4CF05F0E4CF04F077
:1037B000E4CF03F0E4CF02F0E4CF01F0E4CF00F077
:1037C000E4CFD9FF120000C0E5FF01C0E5FF02C051
:1037D000E5FF03C0E5FF04C0E5FF05C0E5FF06C047
:1037E000E5FF07C0E5FF08C0E5FF09C0E5FFC2A28D
:1037F00003D004016D5104D104016E51D8B4ADD091
:1038000004016D51020DF450016EF3CF00F0E00E93
:103810000026000E012200C0E9FF01C0EAFFEECF42
:1038200002F0EFCF03F003340330056E0230046E74
:103830000534053204320534053204320450025C8A
:10384000046E05500358056EC3CF06F0076A065094
:10385000042607500522C4CF06F00650096E086AF8
:10386000085004260950052200C0E9FF01C0EAFF04
:1038700004C0EEFF05C0EFFF04016951010A01E039
:103880006AD004016D51020DF450016EF3CF00F0C7
:10389000E00E0024046E000E0120056E04C0E9FF56
:1038A00005C0EAFFEECF02F0EFCF03F0D30E002603
:1038B000040E012200C0E9FF01C0EAFFEECF04F0D0
:1038C000EFCF05F09C0E0426D8A005060350800F0C
:1038D000F36E0550800FF35C02E10450025C0EE2CF
:1038E0000250640F046E000E0320056E00C0E9FF55
:1038F00001C0EAFF04C0EEFF05C0EFFF04016D51F7
:10390000020DF450016EF3CF00F0000E00260A0EF7
:10391000012200C0E9FF01C0EAFFEECF04F0EFCFC3
:1039200005F0640E0426D8B0052A0550800FF36E0A
:103930000350800FF35C02E10250045C0CE29C0E29
:103940000226D8A0030600C0E9FF01C0EAFF02C0BA
:10395000EEFF03C0EFFF04016E6B04016D2B100E30
:103960006D5D01E36D6B04016D39E8441F0B006E62
:10397000016AC90E00260A0E012200C0E9FF01C03B
:10398000EAFFEFCF00F0070E6D15016E010E026E1B
:10399000000E036E015006E0E86CD8900236033644
:1039A000010FFCE3046A0050021604500316025093
:1039B00005E1035003E1026A022A01D0026A0250C3
:1039C000D880E866D890026A0236025017E0230ECB
:1039D00004016D25006E016A0F0E012200C0E9FF8F
:1039E00001C0EAFFEFCF00F00044E844FC0B016E99
:1039F0000128C26EC282010E04016E6F04016D5176
:103A0000E4CF09F0E4CF08F0E4CF07F0E4CF06F00C
:103A1000E4CF05F0E4CF04F0E4CF03F0E4CF02F00C
:103A2000E4CF01F0E4CF00F01200D9CFE5FFE1CF01
:103A3000D9FF00C0E5FF01C0E5FF02C0E5FF03C0FC
:103A4000E5FF04C0E5FF05C0E5FF06C0E5FF07C0D0
:103A5000E5FF08C0E5FF09C0E5FF0AC0E5FF0BC0B0
:103A6000E5FF020EDBCF00F0030EDBCF01F0040E0A
:103A7000DBCF02F0050EDBCF03F0060EDBCF04F048
:103A8000070EDBCF05F0080EDBCF06F0090EDBCF0B
:103A900007F006C008F0060608500EE006500424A1
:103AA000086EE86A06BEE8680520096E08C0E9FFEE
:103AB00009C0EAFFEF6AEDD700500A01BD6F01505F
:103AC000BE6F0250BF6F0350C06FBDCA00F0BECAC8
:103AD00001F0BFCA02F0C0CA03F0066A086A096AA8
:103AE000800E03140A6E065007E1085005E10950E4
:103AF00003E10A50800A01E012D0039E00500A013F
:103B0000BD6F0150BE6F0250BF6F0350C06F04C045
:103B1000E9FF05C0EAFF2D0EEF6E044A052A0A01EF
:103B2000BF35C0357E08006EBD51016EBE51026EBC
:103B30007F0EBF15036E066A038E086A096A0A6A59
:103B40000B6A005019E0D88000AED8900EE3085000
:103B5000082609360A360B3603BE088001500126B6
:103B6000023603360636002AECD7D89006320332E6
:103B7000023201320006E5D7085009100A100B1076
:103B800012E00550E56E0450E56E0B50E56E0A50EC
:103B9000E56E0950E56E0850E56EE2EC32F0006E1D
:103BA000060EE12608D004C0E9FF05C0EAFF300E8A
:103BB000EF6E010E006E00500426E86A00BEE86851
:103BC0000522075028E004C0E9FF05C0EAFF2E0ED9
:103BD000EF6E002A044A052A07501808E56E0550C2
:103BE000E56E0450E56E0650E56E0350E56E02503A
:103BF000E56E0150E56E1FEC32F0016E070EE12616
:103C00000150002607500426E86A052204C0E9FF97
:103C100005C0EAFFEF6A0050E4CF0BF0E4CF0AF0F2
:103C2000E4CF09F0E4CF08F0E4CF07F0E4CF06F0EA
:103C3000E4CF05F0E4CF04F0E4CF03F0E4CF02F0EA
:103C4000E4CF01F0E4CF00F0E4CFD9FF1200D9CFE8
:103C5000E5FFE1CFD9FF00C0E5FF01C0E5FF02C0ED
:103C6000E5FF03C0E5FF04C0E5FF05C0E5FF06C0B2
:103C7000E5FF07C0E5FF020EDBCF00F0030EDBCF50
:103C800001F0040EDBCF02F0050EDBCF03F0060ED1
:103C9000DBCF04F0070EDBCF05F0080EDBCF06F01C
:103CA000090EDBCF07F000500A01A96F0150AA6F7F
:103CB0000250AB6F0350AC6F04500A01AD6F05505A
:103CC000AE6F0650AF6F0750B06F0A01A9510A01DD
:103CD000AF03F4CF01F0F3CF00F000500A01B36F4F
:103CE0000150B46F0A01A9510A01AD03F4CF01F0EC
:103CF000F3CF00F000500A01B16F0150B26F0A011A
:103D0000AC510A01AD03F3CF00F00A01B451002613
:103D10000050B46F0A01AB510A01AE03F3CF00F0BB
:103D20000A01B45100260050B46F0A01AB510A01D8
:103D3000AD03F4CF01F0F3CF00F00A01B351002638
:103D4000B45101220050B36F0150B46F0A01AA515F
:103D50000A01AE03F4CF01F0F3CF00F00A01B35132
:103D60000026B45101220050B36F0150B46F0A0114
:103D7000AA510A01AF03F3CF00F000500A01B86F57
:103D80000A01AA510A01AD03F4CF01F0F3CF00F00C
:103D900000500A01B66F0150B76F0A01A9510A011C
:103DA000B003F3CF00F000500A01BC6F0A01A95123
:103DB0000A01AE03F4CF01F0F3CF00F000500A0186
:103DC000BA6F0150BB6F0A01B56B0A01B96B0A01EA
:103DD000B5510A01B125006E0A01B6510A01B2219E
:103DE000016E0A01B7510A01B321026E0A01B851EE
:103DF0000A01B421036E0050B16F0150B26F02503E
:103E0000B36F0350B46F0A01B9510A01B125006EB6
:103E10000A01BA510A01B221016E0A01BB510A011D
:103E2000B321026E0A01BC510A01B421036E03C022
:103E3000E9FF02C0F4FF01C0F3FF0050E4CF07F038
:103E4000E4CF06F0E4CF05F0E4CF04F0E4CF03F0D4
:103E5000E4CF02F0E4CF01F0E4CF00F0E4CFD9FFEB
:103E6000120000C0E5FF01C0E5FF04016651D8B4AF
:103E7000F5D0A3A81DD0A4A81BD00A01E4510A01C3
:103E8000E11905E136EC36F00A01E16BE7D0000EEE
:103E90000A01E425006E016A0F0E012200C0E9FF4D
:103EA00001C0EAFFEFCFDDFAE42BDDCA73FFD6D005
:103EB000A4AAD4D071A205D00A01E28136EC36F072
:103EC000CDD071A405D00A01E28336EC36F0C6D01D
:103ED00071A03ED074CFDDFA800E040167110A0193
:103EE000DD1904E10A01E2897196B8D00A01DD51B9
:103EF00004E0DD510401671927E10A01E299719696
:103F00000A01DD5103E00A01E29702D00A01E287CB
:103F1000DDCAE6FADFCAE7FA0A01DF050A01E86F3F
:103F2000600E0A01E725006E016A000E012200C042
:103F3000E9FF01C0EAFFDDCAEFFFE72BE751800A86
:103F400002E10A01E76B8AD00A01E299718686D004
:103F500074CFDDFA0A01E2A919D0800E04016711BD
:103F60000A01DD1911E1899AA39A71980A01E151B8
:103F700004E1736A36EC36F007D000CF73FF010E10
:103F80000A01E46FA3886AD0718668D00A01DD5106
:103F90000A01E6270A01E7510A01E8191BE10A01B3
:103FA000E6510CE1E7CADFFA0A01E2B712D0899ABA
:103FB000A39A7198736A36EC36F00BD00A01E28549
:103FC000E2B707D0899AA39A7198010E736E36EC06
:103FD00036F044D00A01E7510A01E01908E10A016C
:103FE000E0510A01DF1903E036EC36F037D0DFCAC2
:103FF00000F0016A004A012AE56A800EE56E015070
:10400000E56E0050E56EBFEC28F0006E040EE12670
:1040100000500A01DE6F0A01E7190CE11F0E0A01C8
:10402000DD150A01E86FE82BE82B0A01DF510A01D0
:10403000E827E89FE7CA00F00A01E72B016A600E53
:104040000026000E012200C0E9FF01C0EAFFDDCA20
:10405000EFFFE751800A02E10A01E76BE4CF01F0CC
:10406000E4CF00F01200D9CFE5FFE1CFD9FF00C0C7
:10407000E5FF01C0E5FF02C0E5FF03C0E5FF04C0A6
:10408000E5FF05C0E5FF06C0E5FF07C0E5FF08C086
:10409000E5FF09C0E5FF0AC0E5FF0BC0E5FF0CC066
:1040A000E5FF0DC0E5FF0EC0E5FF0FC0E5FF020E06
:1040B000DBCF00F0030EDBCF01F0040EDBCF02F00C
:1040C000050EDBCF03F0060EDBCF04F0070EDBCFCF
:1040D00005F0080EDBCF06F0200E076E086A06C05A
:1040E00009F00A6A0B6A0C6AE56AE56AE56A095032
:1040F000E56E0350E56E0250E56E0150E56E00502E
:10410000E56E72EC22F00D6E080EE126300E0D26E3
:104110003A0E0D5C05E30D500E6E270E0E240D6E4B
:10412000FF0E07260822400E07240E6E0A0E0820F6
:104130000F6E0EC0E9FF0FC0EAFF0DC0EFFF0C507D
:10414000E56E0B50E56E0A50E56E0950E56E0350C2
:10415000E56E0250E56E0150E56E0050E56EACEC88
:1041600024F0006EF3CF01F0F4CF02F0E9CF03F0BA
:10417000080EE1260050011002100310D8A4AFD79A
:1041800007C000F008C001F004C002F005C003F051
:1041900000C004F001C005F0004A012A400E0426C8
:1041A0000A0E052204C0E9FF05C0EAFFEFCF04F0C4
:1041B00002C0E9FF03C0EAFF04C0EFFF024A032A7E
:1041C000000E015C02E1200E005CE2E302C0E9FFA8
:1041D00003C0EAFF000EEF6AE4CF0FF0E4CF0EF069
:1041E000E4CF0DF0E4CF0CF0E4CF0BF0E4CF0AF015
:1041F000E4CF09F0E4CF08F0E4CF07F0E4CF06F015
:10420000E4CF05F0E4CF04F0E4CF03F0E4CF02F014
:10421000E4CF01F0E4CF00F0E4CFD9FF1200D9CF12
:10422000E5FFE1CFD9FF00C0E5FF01C0E5FF02C017
:10423000E5FF03C0E5FF04C0E5FF05C0E5FF06C0DC
:10424000E5FF07C0E5FF08C0E5FF09C0E5FF0AC0BC
:10425000E5FF0BC0E5FF0CC0E5FF0DC0E5FF020E5A
:10426000DBCF00F0030EDBCF01F0040EDBCF02F05A
:10427000050EDBCF03F0060EDBCF04F0070EDBCF1D
:1042800005F0080EDBCF06F0090EDBCF07F0D88073
:1042900003AED890086A083608500FE0031C0C6E75
:1042A000021C0B6E011C0A6E001C096E092A0DE12E
:1042B0000A2A0BE10B4A0C2A08D000C009F001C001
:1042C0000AF002C00BF003C00CF0D88007AED89003
:1042D000006A003600500FE0071C0D6E061C036ECE
:1042E000051C026E041C016E012A0DE1022A0BE17D
:1042F000034A0D2A08D004C001F005C002F006C030
:1043000003F007C00DF00D50E56E0350E56E02504E
:10431000E56E0150E56E0C50E56E0B50E56E0A50EF
:10432000E56E0950E56EACEC24F0016EF3CF02F0BF
:10433000F4CF03F0E9CF04F0080EE1260050081A8C
:10434000085016E0041C076E031C066E021C056E66
:10435000011C006E002A04E1052A02E1064A072A30
:1043600007C0E9FF06C0F4FF05C0F3FF005007D007
:1043700004C0E9FF03C0F4FF02C0F3FF0150E4CF23
:104380000DF0E4CF0CF0E4CF0BF0E4CF0AF0E4CF73
:1043900009F0E4CF08F0E4CF07F0E4CF06F0E4CF73
:1043A00005F0E4CF04F0E4CF03F0E4CF02F0E4CF73
:1043B00001F0E4CF00F0E4CFD9FF1200D9CFE5FF40
:1043C000E1CFD9FF00C0E5FF01C0E5FF02C0E5FF76
:1043D00003C0E5FF04C0E5FF05C0E5FF06C0E5FF3B
:1043E00007C0E5FF020EDBCF00F0030EDBCF01F0CC
:1043F000040EDBCF02F000500B0F036E000E012005
:10440000046E000E0220E56AF46AF66AF76A03C0D9
:10441000E9FF04C0F3FF08EC36F00050070F036E0D
:10442000000E0120046E000E0220056E0050030FE6
:10443000066E000E0120076E000E0220E56AF46A87
:10444000F66AF76A06C0E9FF07C0F3FF08EC36F02A
:10445000E56AF46AF66AF76A03C0E9FF04C0F3FF8D
:10446000055008EC36F00050010F036E000E0120DD
:10447000046E000E0220056E0050020F066E000E44
:104480000120076E000E0220E56A06C0E9FF07C0A2
:10449000F3FF75EC36F0E56A03C0E9FF04C0F3FFF3
:1044A000055075EC36F0E56A00C0E9FF01C0F3FF86
:1044B000025075EC36F0E4CF07F0E4CF06F0E4CF1D
:1044C00005F0E4CF04F0E4CF03F0E4CF02F0E4CF52
:1044D00001F0E4CF00F0E4CFD9FF120025642025DD
:1044E000640A0000D9CFE5FFE1CFD9FF00C0E5FFA6
:1044F00001C0E5FF02C0E5FF03C0E5FF04C0E5FF22
:1045000005C0E5FF06C0E5FF07C0E5FF08C0E5FF01
:1045100009C0E5FF0AC0E5FF020EDBCF00F0030E85
:10452000DBCF01F0040EDBCF02F0050EDBCF03F092
:10453000060EDBCF04F0070EDBCF05F0080EDBCF55
:1045400006F0090EDBCF07F0086A096A0750800BF6
:10455000E8440A6E0A501BE104500426053606366C
:1045600007360750035C08E10650025C05E1055080
:10457000015C02E10450005C06E2D890073206328A
:104580000532043204D0092A09C008F0DFD70750E9
:10459000035C08E10650025C05E10550015C02E1A4
:1045A0000450005C08E30450005E0550015A0650B8
:1045B000025A0750035AD8900732063205320432A5
:1045C00008C009F008060950E2E103C0E9FF02C093
:1045D000F4FF01C0F3FF0050E4CF0AF0E4CF09F08C
:1045E000E4CF08F0E4CF07F0E4CF06F0E4CF05F025
:1045F000E4CF04F0E4CF03F0E4CF02F0E4CF01F025
:10460000E4CF00F0E4CFD9FF120000C0E5FF01C005
:10461000E5FF03C0E5FF04C0E5FF05C0E5FF06C0F8
:10462000E5FF07C0E5FF08C0E5FF09C0E5FF0AC0D8
:10463000E5FF0BC0E5FFC7CA00F0C8CA01F00A01D8
:10464000C73F01D0C82B0050E56E28EC36F0E6528B
:10465000076E046A056A066AC7CA00F0C8CA01F094
:104660000A01C73F01D0C82B0050E56E28EC36F098
:10467000E6520B6A0A6E086A0850041205120A50C4
:1046800006120B500712C7CA00F0C8CA01F00A018F
:10469000C73F01D0C82B0050E56E28EC36F0E6523B
:1046A000036E006A03C001F0E86A03BEFF0E086EE5
:1046B000096E0050041201500512085006120950EC
:1046C0000712C7CA00F0C8CA01F00A01C73F01D0EB
:1046D000C82B0050E56E28EC36F0E652016A041251
:1046E000015005120612071207C0E9FF06C0F4FFC9
:1046F00005C0F3FF0450E4CF0BF0E4CF0AF0E4CFA1
:1047000009F0E4CF08F0E4CF07F0E4CF06F0E4CFFF
:1047100005F0E4CF04F0E4CF03F0E4CF01F0E4CF00
:1047200000F0120000C0E5FF01C0E5FF02C0E5FF98
:1047300003C0E5FF04C0E5FF0A01E0510A01DF19EB
:1047400001E15FD0E0CA00F0002A009E600E002464
:10475000016E026A000E022201C0E9FF02C0EAFFF8
:10476000EFCFEAFA1F0E0A01EA17E0CAE9FAEA51A6
:104770000A01E927E92BE92BE99F37EC33F0016EB9
:10478000015003E1016A012A01D0016A37EC33F0DC
:104790000A01EA6F800EEA15026E1F0EEA15036E1B
:1047A00003C004F003C0EAFA045003E1DFCAE0FAF0
:1047B0003BD001501BE0025022E037EC33F0006E9A
:1047C0000A01EA070050420A1AE000504E0A03E1CB
:1047D00055EC2FF014D00050460A03E16AEC36F095
:1047E0000ED00050490A0BE1FF0009D0E0CAEBFAF5
:1047F000025003E07EEC31F002D0C9EC2AF0E9CAA5
:10480000E0FA040163510401641906E00A01E15170
:1048100003E138EC25F008D089BA06D00A01E1514D
:1048200003E172B236EC36F0E4CF04F0E4CF03F0EB
:10483000E4CF02F0E4CF01F0E4CF00F01200D9CFD2
:10484000E5FFE1CFD9FF00C0E5FF01C0E5FF02C0F1
:10485000E5FF03C0E5FF04C0E5FF05C0E5FF06C0B6
:10486000E5FF07C0E5FF08C0E5FF0BC0E5FF0CC092
:10487000E5FF0DC0E5FF020EDBCF00F0030EDBCF3E
:1048800001F0040EDBCF02F0050EDBCF03F0060EC5
:10489000DBCF04F003C0E5FF04C0F4FF00C0E9FF74
:1048A00001C0F3FF025052EC36F00050020F056ECB
:1048B000000E0120066E000E0220076EE86A04BE9C
:1048C000FF0E086E04500C6E0C2608340D6ED89046
:1048D0000C360D360344E844FC0B0B6E0350E844E1
:1048E000E844030B0C12E56A0BC0F4FF0CC0F6FFA2
:1048F0000DC0F7FF05C0E9FF06C0F3FF075008EC45
:1049000036F0080E0026000E01220222E56AF46A43
:10491000F66AF76A00C0E9FF01C0F3FF025008EC35
:1049200036F0E4CF0DF0E4CF0CF0E4CF0BF0E4CFA1
:1049300008F0E4CF07F0E4CF06F0E4CF05F0E4CFD1
:1049400004F0E4CF03F0E4CF02F0E4CF01F0E4CFD1
:1049500000F0E4CFD9FF1200D9CFE5FFE1CFD9FFB6
:1049600000C0E5FF01C0E5FF02C0E5FF03C0E5FFB1
:1049700004C0E5FF05C0E5FF06C0E5FF07C0E5FF91
:1049800008C0E5FF09C0E5FF0AC0E5FF0BC0E5FF71
:104990000CC0E5FF0DC0E5FF020EDBCF00F0030EFB
:1049A000DBCF01F0040EDBCF02F0050EDBCF03F00E
:1049B000060EDBCF04F0070EDBCF05F0080EDBCFD1
:1049C00006F0090EDBCF07F0086A096A0A6A0B6A6B
:1049D000200E0C6E0350800BE8440D6E0050002634
:1049E0000136023603360850082609360A360B36D9
:1049F0000D50D8A4088007500B5C08E106500A5CF3
:104A000005E10550095C02E10450085C09E304502B
:104A1000085E0550095A06500A5A07500B5A008082
:104A20000C2ED8D703C0E9FF02C0F4FF01C0F3FF8A
:104A30000050E4CF0DF0E4CF0CF0E4CF0BF0E4CF66
:104A40000AF0E4CF09F0E4CF08F0E4CF07F0E4CFB8
:104A500006F0E4CF05F0E4CF04F0E4CF03F0E4CFB8
:104A600002F0E4CF01F0E4CF00F0E4CFD9FF120070
:104A700000C0E5FF01C0E5FF02C0E5FF03C0E5FFA0
:104A800072A276D068EC34F0006E005005E10401AB
:104A9000646B0401636B6CD064C401F000500126A8
:104AA00068EC34F0026E00060250230A1FE1010E8A
:104AB000005CD8A05BD068EC34F0026E690A03E1B8
:104AC000B2EC32F053D00250720A03E136EC36F009
:104AD0004DD00250730A01E049D0898A7186A38AB9
:104AE000A398745074507198718840D00250430A52
:104AF00005E00250420A01E039D001D0008E00C02A
:104B0000E3FA00500F01006F010E0A01E46F040187
:104B10006451011814E068EC34F0026E0A01E327D6
:104B2000000E0A01E425006E036A0F0E032200C086
:104B3000E9FF03C0EAFF02C0EFFFE42BE8D7000E55
:104B40000A01E425006E026A0F0E02220A01E31D2B
:104B5000036E032A00C0E9FF02C0EAFF03C0EFFFB3
:104B60000A01E42BE4CAE1FA0A01DB6B01C064F438
:104B7000E4CF03F0E4CF02F0E4CF01F0E4CF00F0A3
:104B80001200D9CFE5FFE1CFD9FF00C0E5FF01C09A
:104B9000E5FF02C0E5FF03C0E5FF04C0E5FF05C077
:104BA000E5FF06C0E5FF07C0E5FF020EDBCF00F022
:104BB000030EDBCF01F0040EDBCF02F0050EDBCFDE
:104BC00003F002C006F00650046E800A33E100C014
:104BD000E9FF01C0F3FF0250C2EC34F0056EF3CFE1
:104BE00006F0F4CF07F003C0E5FF05C0E9FF06C0FB
:104BF000F3FF075075EC36F000C0E9FF01C0F3FF8A
:104C00000250C2EC34F0056EF3CF06F0F4CF07F09B
:104C1000052A02E3064A072A05C0E5FF06C0F4FF9D
:104C200007C0F6FF00C0E9FF01C0F3FF025019EC16
:104C300036F01DD004AA1BD0047A045004E10350BE
:104C4000AEEC36F014D00450010A04E1035002EC3B
:104C500000F00DD004500F0A04E1035051EC32F083
:104C600006D004500E0A03E10350BEEC36F0E4CF48
:104C700007F0E4CF06F0E4CF05F0E4CF04F0E4CF92
:104C800003F0E4CF02F0E4CF01F0E4CF00F0E4CF92
:104C9000D9FF1200A1A284D0B190A19204015C516D
:104CA000010A2DE10A01D95103E18996899414D0B2
:104CB0000A01D951010A03E1899289900DD00A01B4
:104CC000D951020A03E18A98899C06D00A01D95178
:104CD000030A02E18A96899E04015D51FF080401DE
:104CE0007E6FFF0E04015E5504017F6FB36E7E512F
:104CF000B26EA192B180020E04015C6F51D004012A
:104D00005C51020A2DE10A01D95103E18996898497
:104D100014D00A01D951010A03E1899289800DD08A
:104D20000A01D951020A03E18A98898C06D00A0146
:104D3000D951030A02E18A96898E04015D51FF0868
:104D400004017E6FFF0E04015E5504017F6FB36E98
:104D50007E51B26EA192B180030E04015C6F20D02F
:104D600004015C51030A1CE10A01D95103E189964F
:104D7000899414D00A01D951010A03E189928990DA
:104D80000DD00A01D951020A03E18A98899C06D004
:104D90000A01D951030A02E18A96899E04015C6BDB
:104DA0001200D9CFE5FFE1CFD9FF00C0E5FF01C078
:104DB000E5FF02C0E5FF03C0E5FF04C0E5FF05C055
:104DC000E5FF06C0E5FF07C0E5FF08C0E5FF09C035
:104DD000E5FF0AC0E5FF0BC0E5FF0CC0E5FF020ED2
:104DE000DBCF00F0030EDBCF01F0040EDBCF02F0CF
:104DF000050EDBCF03F0060EDBCF04F0070EDBCF92
:104E000005F0080EDBCF06F0090EDBCF07F00250ED
:104E10000A6E0150096E0050086E06C00BF007C004
:104E20000CF0FF0E062607220B500C101AE003C0F0
:104E3000E9FF04C0F3FF0550F7EC35F00B6E032AD1
:104E400002E3044A052A0BC0E5FF08C0E9FF09C0D8
:104E5000F3FF0A5075EC36F0082ADFE3094A0A2A04
:104E6000DCD702C0F4FF01C0F3FF0050E4CF0CF028
:104E7000E4CF0BF0E4CF0AF0E4CF09F0E4CF08F080
:104E8000E4CF07F0E4CF06F0E4CF05F0E4CF04F080
:104E9000E4CF03F0E4CF02F0E4CF01F0E4CF00F080
:104EA000E4CFD9FF1200D9CFE5FFE1CFD9FF00C091
:104EB000E5FF01C0E5FF02C0E5FF03C0E5FF04C058
:104EC000E5FF05C0E5FF06C0E5FF07C0E5FF020EF0
:104ED000DBCF00F0030EDBCF01F0040EDBCF02F0DE
:104EE000050EDBCF03F064C465F4040163510401D3
:104EF000655F650703C004F0056A030E0426D8B099
:104F0000052A65C406F0076A0750800FF36E055046
:104F1000800FF35C02E10450065C02E2E8682BD0EB
:104F2000020E035C02E2E86A26D003060350E56E37
:104F300093EC30F0E652046A0350045C14E204502F
:104F40000024056EE86A0120066EE86A022005C0AA
:104F5000E9FF06C0F3FFF7EC35F0042AE56E93ECA9
:104F600030F0E652E9D764C465F4040163510401EA
:104F7000655F6507E86AE4CF07F0E4CF06F0E4CFA9
:104F800005F0E4CF04F0E4CF03F0E4CF02F0E4CF87
:104F900001F0E4CF00F0E4CFD9FF120000C0E5FF3C
:104FA00001C0E5FF02C0E5FF03C0E5FF04C0E5FF67
:104FB000006AC90E0024016E026A0A0E022201C0B4
:104FC000E9FF02C0EAFFEF6A002A020E005CF1E38B
:104FD000006A016A026AE00E0124036E000E0220DC
:104FE000046E03C0E9FF04C0EAFFEE6AEF6A930EA5
:104FF0000124036E040E0220046E03C0E9FF04C006
:10500000EAFFEE6AEF6AB30E0124036E040E02207B
:10501000046E03C0E9FF04C0EAFFEE6AEF6AD30E34
:105020000124036E040E0220046E03C0E9FF04C0D5
:10503000EAFFEE6AEF6A000E0124036E0A0E0220F8
:10504000046E03C0E9FF04C0EAFFEE687F0EEF6E56
:10505000020E0126D8B0022A002A100E005CD8A049
:10506000BAD7AF0EC06EC16A010EC26EC282E4CF63
:1050700004F0E4CF03F0E4CF02F0E4CF01F0E4CF9A
:1050800000F012004320412025642025640A00001E
:10509000D9CFE5FFE1CFD9FF00C0E5FF01C0E5FFB3
:1050A00002C0E5FF03C0E5FF04C0E5FF05C0E5FF62
:1050B000020EDBCF00F0030EDBCF01F0040EDBCFDE
:1050C00002F00050020DF450036EF3CF00F0930E87
:1050D0000024046E040E0320056E04C0E9FF05C021
:1050E000EAFF01C0EEFF02C0EFFFB30E0024046E22
:1050F000040E0320056E04C0E9FF05C0EAFFEECFF1
:1051000004F0EFCF05F00150045C016E0250055829
:10511000026E200E00260A0E032200C0E9FF03C023
:10512000EAFF01C0EEFF02C0EFFFD88002AED890C8
:1051300004E3021E016CD8B4022A0250800F800FD3
:1051400002E1030E015C02E2016A026A01500210F0
:1051500007E100C0E9FF03C0EAFF000EEE6AEF6A54
:10516000E4CF05F0E4CF04F0E4CF03F0E4CF02F0A5
:10517000E4CF01F0E4CF00F0E4CFD9FF1200D9CFA3
:10518000E5FFE1CFD9FF00C0E5FF01C0E5FF02C0A8
:10519000E5FF03C0E5FF04C0E5FF05C0E5FF06C06D
:1051A000E5FF020EDBCF00F0030EDBCF01F0040EB3
:1051B000DBCF02F0050EDBCF03F0D88001AED89034
:1051C000046A0436045007E0011C066E001C056EDC
:1051D000054A062A04D000C005F001C006F0D880B8
:1051E00003AED89007E3031C016E021C006E004A58
:1051F000012A04D002C000F003C001F00150E56EA6
:105200000050E56E0650E56E0550E56E87EC2BF01C
:10521000006EF3CF01F0040EE12604500AE0011CF9
:10522000036E001C026E024A032A03C0F3FF025001
:1052300003D001C0F3FF0050E4CF06F0E4CF05F047
:10524000E4CF04F0E4CF03F0E4CF02F0E4CF01F0C8
:10525000E4CF00F0E4CFD9FF1200D9CFE5FFE1CFD2
:10526000D9FF00C0E5FF01C0E5FF02C0E5FF03C0B4
:10527000E5FF04C0E5FF05C0E5FF020EDBCF00F04F
:10528000030EDBCF01F0040EDBCF02F0050EDBCF07
:1052900003F0C7CA04F0C8CA05F00A01C73F01D02D
:1052A000C82B0350E56E0450E56E88EC33F0E652EF
:1052B000E652C7CA04F0C8CA05F00A01C73F01D0C8
:1052C000C82B0250056EE56E0450E56E88EC33F095
:1052D000E652E652C7CA04F0C8CA05F00A01C73F41
:1052E00001D0C82B0150056EE56E0450E56E88ECC8
:1052F00033F0E652E652C7CA04F0C8CA05F00A0104
:10530000C73F01D0C82B0050E56E0450E56E88EC15
:1053100033F0E652E652E4CF05F0E4CF04F0E4CFF8
:1053200003F0E4CF02F0E4CF01F0E4CF00F0E4CFEB
:10533000D9FF1200D9CFE5FFE1CFD9FF00C0E5FFCB
:1053400001C0E5FF02C0E5FF03C0E5FF04C0E5FFC3
:1053500005C0E5FF06C0E5FF020EDBCF00F0030E3F
:10536000DBCF01F0040EDBCF02F00A01DA5119E1C4
:1053700005EC23F0036EF3CF04F0F4CF05F0E9CF92
:1053800006F003C0E5FF04C0F4FF05C0F6FF06C049
:10539000F7FF00C0E9FF01C0F3FF025008EC36F050
:1053A0001ED00A01DA51010A1AE100C0E9FF01C06A
:1053B000F3FF025048EC34F0006EF3CF01F0F4CF6D
:1053C00002F0E9CF03F00350E56E0250E56E0150A4
:1053D000E56E0050E56E2DEC29F0040EE126E4CFD9
:1053E00006F0E4CF05F0E4CF04F0E4CF03F0E4CF1F
:1053F00002F0E4CF01F0E4CF00F0E4CFD9FF1200D7
:10540000D9CFE5FFE1CFD9FF00C0E5FF01C0E5FF3F
:1054100002C0E5FF03C0E5FF04C0E5FF020EDBCFDD
:1054200000F0030EDBCF01F0040EDBCF02F00050E2
:10543000070F036E000E0120046E000E0220E56EC1
:105440000450E56E0350E56E17EC30F0030EE126D4
:105450000050230F036E000E0120046E000E022088
:10546000E56E0450E56E0350E56E3BEC2CF0030E48
:10547000E1260050330F036E000E0120046E000E73
:105480000220E56E0450E56E0350E56E28EC2BF02B
:10549000030EE126440E0026000E012202220250D5
:1054A000E56E0150E56E0050E56E28EC2BF0030E22
:1054B000E126E4CF04F0E4CF03F0E4CF02F0E4CF40
:1054C00001F0E4CF00F0E4CFD9FF1200D9CFE5FF1F
:1054D000E1CFD9FF00C0E5FF01C0E5FF02C0E5FF55
:1054E00003C0E5FF04C0E5FF05C0E5FF06C0E5FF1A
:1054F000020EDBCF00F0030EDBCF01F0040EDBCF9A
:1055000002F0050EDBCF03F0060EDBCF04F0070E32
:10551000DBCF05F0080EDBCF06F0D88003AED890C5
:1055200015E306500A0A12E104C0E9FF05C0EAFFCC
:105530002D0EEF6E044A052A031E021E011E006C8A
:1055400005E1012A03E1022AD8B4032A0650E56ED8
:105550000550E56E0450E56E0350E56E0250E56EB1
:105560000150E56E0050E56E33EC20F0070EE126A9
:10557000E4CF06F0E4CF05F0E4CF04F0E4CF03F08D
:10558000E4CF02F0E4CF01F0E4CF00F0E4CFD9FFA4
:10559000120000C0E5FF01C0E5FF02C0E5FF03C047
:1055A000E5FF37EC33F0006E0A0A0DE000501E0AEA
:1055B0001FE000501F0A26E00050200A2DE0005096
:1055C000210A34E03CD037EC33F0036E026A37EC4A
:1055D00033F0016A022404015D6F015003205E6F05
:1055E00037EC33F0006E00C0D9FA82EC32F027D0ED
:1055F00037EC33F0006E949C005002E08B9C1FD07F
:105600008B8C1DD037EC33F0006E949E005002E07E
:105610008B9E15D08B8E13D037EC33F0006E9390A9
:10562000005002E08A900BD08A8009D037EC33F02A
:10563000006E9392005002E08A9201D08A82E4CFF9
:1056400003F0E4CF02F0E4CF01F0E4CF00F0120069
:10565000D9CFE5FFE1CFD9FF00C0E5FF01C0E5FFED
:1056600002C0E5FF03C0E5FF04C0E5FF020EDBCF8B
:1056700000F0030EDBCF01F0040EDBCF02F002508E
:10568000E56E0150E56E0050E56E17EC30F0030E4C
:10569000E1260050010F036E000E0120046E000E83
:1056A0000220E56E0450E56E0350E56E17EC30F015
:1056B000030EE1260050020F036E000E0120046E5F
:1056C000000E0220E56E0450E56E0350E56E17EC07
:1056D00030F0030EE1260F0E0026000E01220222FA
:1056E0000250E56E0150E56E0050E56EDAEC2DF0EB
:1056F000030EE126E4CF04F0E4CF03F0E4CF02F0A0
:10570000E4CF01F0E4CF00F0E4CFD9FF1200D9CF0D
:10571000E5FFE1CFD9FF00C0E5FF01C0E5FF02C012
:10572000E5FF03C0E5FF04C0E5FF05C0E5FF06C0D7
:10573000E5FF020EDBCF00F0030EDBCF01F0040E1D
:10574000DBCF02F0050EDBCF03F0046A056A0350DD
:10575000800BE844066E065011E102500226033623
:105760000350015C02E10250005C04E2D890033275
:10577000023204D0052A05C004F0E9D70350015CC9
:1057800002E10250005C04E30250005E0350015A43
:10579000D8900332023204C005F004060550EEE151
:1057A00001C0F3FF0050E4CF06F0E4CF05F0E4CFF2
:1057B00004F0E4CF03F0E4CF02F0E4CF01F0E4CF53
:1057C00000F0E4CFD9FF1200D9CFE5FFE1CFD9FF38
:1057D00000C0E5FF01C0E5FF02C0E5FF03C0E5FF33
:1057E00004C0E5FF05C0E5FF06C0E5FF020EDBCF04
:1057F00000F0030EDBCF01F00038E8441F0B026E0F
:10580000036AC90E02260A0E032202C0E9FF03C082
:10581000EAFFEFCF04F0070E0014056E010E066ECE
:10582000055005E0E86CD8900636010FFDE3065000
:10583000041202C0E9FF03C0EAFF04C0EFFF026ADE
:10584000230E00260F0E022200C0E9FF02C0EAFF6D
:1058500001C0EFFFE4CF06F0E4CF05F0E4CF04F0A1
:10586000E4CF03F0E4CF02F0E4CF01F0E4CF00F0A6
:10587000E4CFD9FF1200D9CFE5FFE1CFD9FF00C0B7
:10588000E5FF01C0E5FF02C0E5FF03C0E5FF04C07E
:10589000E5FF020EDBCF00F0030EDBCF01F0040EBC
:1058A000DBCF02F00050060F036E000E0120046EE5
:1058B000000E0220E56E0450E56E0350E56EDAEC52
:1058C0002DF0030EE12600500C0F036E000E012098
:1058D000046E000E0220E56E0450E56E0350E56E86
:1058E000DAEC2DF0030EE1260E0E0026000E01224A
:1058F00002220250E56E0150E56E0050E56EDAECD2
:105900002DF0030EE126E4CF04F0E4CF03F0E4CF62
:1059100002F0E4CF01F0E4CF00F0E4CFD9FF1200B1
:1059200000C0E5FF01C0E5FF02C0E5FF03C0E5FFE1
:10593000E0CA00F0016AEBCA02F0036A0250005E9E
:105940000350015AE56A800EE56E0150E56E005085
:10595000E56EBFEC28F0006E040EE1260006EBCAEF
:1059600001F0430E51EC32F0200E51EC32F00050B9
:10597000800F7F0F20E3600E0124026E036A000E89
:10598000032202C0E9FF03C0EAFFEFCF02F0E56A9D
:105990000250E56E000EE56E6C0EE56E840EE56E4F
:1059A000D7EC2FF0050EE126012A0150800A01E113
:1059B000016A0006DCD7E4CF03F0E4CF02F0E4CFC5
:1059C00001F0E4CF00F0120000C0E5FF01C0E5FFE8
:1059D00004015C51D8A446D004016051E56E5F51CA
:1059E000E56EE56A020EE56E8AEC2DF0006EF3CFEF
:1059F00001F0040EE126810E0026040E012200C0F3
:105A0000E9FF01C0EAFFEECF00F0EFCF01F0005058
:105A1000011028E000C05DF401C05EF404015F5194
:105A20000A01D96F82EC32F004016051E56E5F51DA
:105A3000E56EE56A020EE56E8AEC2DF0006EF3CF9E
:105A400001F0040EE126810E0026040E012200C0A2
:105A5000E9FF01C0EAFF000EEE6AEF6A04015F3F52
:105A600001D0602BE4CF01F0E4CF00F01200D9CFD9
:105A7000E5FFE1CFD9FF00C0E5FF01C0E5FF02C0AF
:105A8000E5FF03C0E5FF04C0E5FF020EDBCF00F039
:105A9000030EDBCF01F0040EDBCF02F0E56AF46AFF
:105AA00000C0E9FF01C0F3FF025052EC36F0005095
:105AB000020F036E000E0120046E000E0220E56A44
:105AC000F46AF66AF76A03C0E9FF04C0F3FF08EC62
:105AD00036F0080E0026000E01220222E56AF46A62
