:020000040000FA
:1000000099EF16F0C96E120058EF13F06EEC06F07F
:1000100027EC11F0FDD71200EBEF14F0D9CFE5FF7C
:10002000E1CFD9FF00C0E5FF01C0E5FF02C0E5FF59
:1000300003C0E5FF04C0E5FF05C0E5FF06C0E5FF1E
:1000400007C0E5FF08C0E5FF09C0E5FF0AC0E5FFFE
:100050000BC0E5FF0CC0E5FF0DC0E5FF0EC0E5FFDE
:100060000FC0E5FF10C0E5FF11C0E5FF12C0E5FFBE
:1000700013C0E5FF14C0E5FF15C0E5FF16C0E5FF9E
:1000800017C0E5FF18C0E5FF19C0E5FF1AC0E5FF7E
:100090001BC0E5FF1CC0E5FF1DC0E5FF1EC0E5FF5E
:1000A000020EDBCF00F0030EDBCF01F0040EDBCF3E
:1000B00002F0050EDBCF03F0060EDBCF04F0070ED7
:1000C000DBCF05F0080EDBCF06F0090EDBCF07F023
:1000D0000A0EDBCF08F0096A0A6A02C00DF00D5063
:1000E000800A0DE102500F01356F0150346F00504E
:1000F000336F0F0E016E330E006E800E026E03C062
:10010000E9FF04C0F3FF0550D2EC16F00B6E0B5064
:10011000D8B4C4EF03F00B50250A02E0ABEF03F0B4
:100120000C6A0D6A0E6A0F6A106A0A0E116E126A64
:10013000136A146A200E156E1668176A2B0E186E55
:10014000032A02E3044A052A03C0E9FF04C0F3FFBF
:100150000550D2EC16F0196E250A13E11950E56E20
:100160000250E56E0150E56E0050E56E0DEC0BF0AF
:10017000040EE126094A0A2A032A02E3044A052A50
:10018000BED71950300A06E1300E156E032A02E37D
:10019000044A052A03C0E9FF04C0F3FF0550D2EC6E
:1001A00016F02D0A06E1010E146E032A02E3044A3A
:1001B000052A03C0E9FF04C0F3FF0550D2EC16F096
:1001C000200A08E1010E176E200E186E032A02E3C2
:1001D000044A052A03C0E9FF04C0F3FF0550D2EC2E
:1001E00016F02B0A06E1010E176E032A02E3044AF9
:1001F000052A03C0E9FF04C0F3FF0550D2EC16F056
:10020000196E310E195C2BE33A0E195C28E203C01B
:1002100019F004C01AF005C01BF019C0E9FF1AC09C
:10022000F3FF1B50D2EC16F01C6E300E1C5C11E379
:100230003A0E1C5C0EE213500A0DF3CF1DF01D5058
:100240001C26D00E1C24136E192A02E31A4A1B2AFC
:10025000E4D719C003F01AC004F01BC005F003C0B6
:10026000E9FF04C0F3FF0550D2EC16F02E0A2DE191
:10027000032A02E3044A052A166A03C019F004C0DF
:100280001AF005C01BF019C0E9FF1AC0F3FF1B509C
:10029000D2EC16F01C6E300E1C5C11E33A0E1C5CA6
:1002A0000EE216500A0DF3CF1DF01D501C26D00E85
:1002B0001C24166E192A02E31A4A1B2AE4D719C015
:1002C00003F01AC004F01BC005F003C0E9FF04C02E
:1002D000F3FF0550D2EC16F0196E6C0A07E1010E1F
:1002E0000C6E032A02E3044A052A09D01950680A51
:1002F00006E1010E0E6E032A02E3044A052A03C03A
:10030000E9FF04C0F3FF0550D2EC16F0750A06E1D0
:10031000010E106E032A02E3044A052A03C0E9FF16
:1003200004C0F3FF0550D2EC16F0196E730A05E114
:10033000010E0D6E200E156E3FD01950780A03E1A4
:10034000100E116E39D01950580A05E1100E116EB9
:10035000010E126E31D01950630A02E1116A2CD0DD
:1003600019506F0A03E1080E116E26D01950660A63
:1003700003E1010E0F6E20D01950640A1DE01950E0
:10038000690A1AE0105005E0FF0E03260422052238
:1003900013D01950E56E0250E56E0150E56E005025
:1003A000E56E0DEC0BF0040EE126094A0A2A032A39
:1003B00002E3044A052AA3D60D5021E00650030F9C
:1003C0000D6E000E0720196E000E08201A6E0DC06B
:1003D00006F019C007F01AC008F0FD0E0D26FF0E3A
:1003E00019221A220DC0E9FF19C0F3FF1A50AEEC12
:1003F00015F00D6EF3CF19F0F4CF1AF0FDD00F50B9
:100400000DE0000E1A6E080E196E100E0D6E040E21
:100410000626000E072208221668EED016680C5039
:1004200023E00650040F0C6E000E07200F6E000E26
:1004300008201B6E0CC006F00FC007F01BC008F0B0
:10044000FC0E0C26FF0E0F221B220CC0E9FF0FC072
:10045000F3FF1B5034EC15F00C6EF3CF0FF0F4CF1C
:100460001BF0E9CF1CF067D00E502FE00650020FB2
:100470000E6E000E07201D6E000E08201E6E0EC0B0
:1004800006F01DC007F01EC008F0FE0E0E26FF0E7F
:100490001D221E220EC0E9FF1DC0F3FF1E506DEC91
:1004A00016F00E6E0EC00CF00F6A1B6A1C6A11501B
:1004B0000A0A03E11050D8B43ED00C500E6E0EC0A4
:1004C0000CF00F6A1B6A1C6A36D00650020F0E6EC3
:1004D000000E07201D6E000E08201E6E0EC006F0D6
:1004E0001DC007F01EC008F0FE0E0E26FF0E1D22D6
:1004F0001E220EC0E9FF1DC0F3FF1E506DEC16F06A
:100500000E6EF3CF1DF00EC00CF01DC00FF0E86AA8
:100510001DBEFF0E1B6E1C6E11500A0A02E1105028
:100520000AE00C500E6E0F501D6E0EC00CF01DC078
:100530000FF01B6A1C6A040E196E240E0D6E800EDD
:100540001A6E1150D8B440D0105013E01150E56E1F
:10055000040EE56E240EE56E1C50E56E1B50E56E34
:100560000F50E56E0C50E56E61EC07F0070EE126CA
:1005700012D01150E56E040EE56E240EE56E1C508F
:10058000E56E1B50E56E0F50E56E0C50E56E26ECE7
:100590000FF0070EE12617502FE00DC0E9FF19C03C
:1005A000F3FF1A50D2EC16F02D0A26E0FF0E0D26AE
:1005B00019221A2218C0E5FF0DC0E9FF19C0F3FF88
:1005C0001A5050EC17F018D00CC0E5FF0DC0E9FF31
:1005D00019C0F3FF1A5050EC17F00D50010F0C6EBC
:1005E000000E19200E6E000E1A20E56A0CC0E9FFFD
:1005F0000EC0F3FF50EC17F00DC00CF019C00EF058
:100600001AC00FF013C010F0105010E00CC0E9FF3A
:100610000EC0F3FF0F50D2EC16F0176E175006E025
:100620000C2A02E30E4A0F2A1006EED710C013F070
:1006300014501EE109C00CF00AC00EF010C00FF0FB
:100640000F5010E01550E56E0250E56E0150E56E5A
:100650000050E56E0DEC0BF0040EE1260C4A0E2A5C
:100660000F06EED70CC009F00EC00AF00FC013F051
:1006700016C00CF00DC00DF019C00EF01AC00FF02E
:1006800009C010F00AC015F00DC0E9FF0EC0F3FF5D
:100690000F50D2EC16F0166E1650D8B43ED00CC0E7
:1006A00016F0176A161E171E1650171005E00CC01C
:1006B00016F00C06165031E00DC0E9FF0EC0F3FF36
:1006C0000F50D2EC16F0116E125010E01150E56E82
:1006D0002AEC16F0166EE652165004E0DF0E1114E6
:1006E000166E02D011C016F016C011F01150E56E52
:1006F0000250E56E0150E56E0050E56E0DEC0BF01A
:10070000040EE1260D2A02E30E4A0F2A104A152A8A
:100710001350D8B4B9D71306B7D710C009F015C015
:100720000AF014502BE010C00CF015C00DF013C0EF
:100730000EF00E501FE0200EE56E0250E56E0150E7
:10074000E56E0050E56E0DEC0BF0040EE1260C4A50
:100750000D2A0E06EED70B50E56E0250E56E0150E5
:10076000E56E0050E56E0DEC0BF0040EE126094A33
:100770000A2A04D00CC009F00DC00AF0032A02E3D3
:10078000044A052A7FEF00F00AC0F3FF0950E4CFC6
:100790001EF0E4CF1DF0E4CF1CF0E4CF1BF0E4CF5B
:1007A0001AF0E4CF19F0E4CF18F0E4CF17F0E4CF5B
:1007B00016F0E4CF15F0E4CF14F0E4CF13F0E4CF5B
:1007C00012F0E4CF11F0E4CF10F0E4CF0FF0E4CF5B
:1007D0000EF0E4CF0DF0E4CF0CF0E4CF0BF0E4CF5B
:1007E0000AF0E4CF09F0E4CF08F0E4CF07F0E4CF5B
:1007F00006F0E4CF05F0E4CF04F0E4CF03F0E4CF5B
:1008000002F0E4CF01F0E4CF00F0E4CFD9FF120012
:100810003C4E4F20464C4F41543E000000C0E5FF87
:1008200001C0E5FF02C0E5FF03C0E5FF04C0E5FF2E
:1008300005C0E5FF9486820E006E0F0E016E380E25
:10084000026E0F0E036E0250002603500122800E2E
:10085000026E0F0E036E0250005E0350015A820EAC
:10086000026E0F0E036E380E046E0F0E056E0450EE
:10087000022605500322800E046E0F0E056E0450F2
:10088000025E0550035A02C0E9FF03C0EAFFEFCF42
:1008900002F0029600C0E9FF01C0EAFF02C0EFFFCC
:1008A0009484820E006E0F0E016E380E026E0F0ED3
:1008B000036E0250002603500122800E026E0F0EBE
:1008C000036E0250005E0350015A820E026E0F0E3C
:1008D000036E380E046E0F0E056E0450022605508E
:1008E0000322800E046E0F0E056E0450025E05504A
:1008F000035A02C0E9FF03C0EAFFEFCF02F00294FF
:1009000000C0E9FF01C0EAFF02C0EFFF9488820E39
:10091000006E0F0E016E380E026E0F0E036E025047
:10092000002603500122800E026E0F0E036E02504D
:10093000005E0350015A820E026E0F0E036E380ED7
:10094000046E0F0E056E0450022605500322800E21
:10095000046E0F0E056E0450025E0550035A02C06D
:10096000E9FF03C0EAFFEFCF02F0029800C0E9FF01
:1009700001C0EAFF02C0EFFF948A820E006E0F0EE4
:10098000016E380E026E0F0E036E025000260350E9
:100990000122800E026E0F0E036E0250005E0350A5
:1009A000015A820E026E0F0E036E380E046E0F0E89
:1009B000056E0450022605500322800E046E0F0EB1
:1009C000056E0450025E0550035A02C0E9FF03C0E1
:1009D000EAFFEFCF02F0029A00C0E9FF01C0EAFF90
:1009E00002C0EFFF8B968B948B988B9A0F0123514B
:1009F00002E1949611D00F012351010A02E194946F
:100A00000BD00F012351020A02E1949805D00F0187
:100A10002351030A01E1949A8B968B948B988B9ABD
:100A200000000000340E0F012325006E016A040E41
:100A30000122026A80B0022A025003E1026A022AFD
:100A400001D0026A036A80B2032A035003E1036AF9
:100A5000032A01D0036A0350020DF3CF03F00350C1
:100A60000226036A80B4032A035003E1036A032ABF
:100A700001D0036A0350040DF3CF03F003500226A4
:100A8000036A80B8032A035003E1036A032A01D0F2
:100A9000036A0350080DF3CF03F00350022600C091
:100AA000E9FF01C0EAFF02C0EFFF0F01232B235132
:100AB000040A02E10F01236BE4CF05F0E4CF04F058
:100AC000E4CF03F0E4CF02F0E4CF01F0E4CF00F094
:100AD000120043002563000000C0E5FF01C0E5FFF0
:100AE0000F012951D8B4F5D09DA81DD09EA81BD0C8
:100AF000040143510401401905E111EC17F0040110
:100B0000406BE7D0000E04014325006E016A040E1D
:100B1000012200C0E9FF01C0EAFFEFCF3CF4432B04
:100B20003CC4ADFFD6D09EAAD4D0ABA205D0040160
:100B3000418111EC17F0CDD0ABA405D00401418365
:100B400011EC17F0C6D0ABA03ED0AECF3CF4800E77
:100B50000F012A1104013C1904E104014189AB96FB
:100B6000B8D004013C5104E03C510F012A1927E19F
:100B700004014199AB9604013C5103E00401419703
:100B800002D0040141873CC445F43EC446F404014C
:100B90003E050401476F600E04014625006E016AA0
:100BA000000E012200C0E9FF01C0EAFF3CC4EFFFD4
:100BB000462B4651800A02E10401466B8AD00401AB
:100BC0004199AB8686D0AECF3CF4040141A919D03F
:100BD000800E0F012A1104013C1911E18B909D9A9E
:100BE000AB980401405104E1AD6A11EC17F007D055
:100BF00000C4ADFF010E0401436F9D886AD0AB862F
:100C000068D004013C510401452704014651040108
:100C100047191BE1040145510CE146C43EF40401AF
:100C200041B712D08B909D9AAB98AD6A11EC17F03A
:100C30000BD00401418541B707D08B909D9AAB98AA
:100C4000010EAD6E11EC17F044D0040146510401C1
:100C50003F1908E104013F5104013E1903E011EC82
:100C600017F037D03EC400F0016A004A012AE56A55
:100C7000800EE56E0150E56E0050E56EE5EC0DF07E
:100C8000006E040EE126005004013D6F0401461978
:100C90000CE11F0E04013C150401476F472B472B45
:100CA00004013E5104014727479F46C400F0040158
:100CB000462B016A600E0026000E012200C0E9FFEB
:100CC00001C0EAFF3CC4EFFF4651800A02E1040183
:100CD000466BE4CF01F0E4CF00F0120000C0E5FF66
:100CE00001C0E5FF02C0E5FF03C0E5FF05C0E5FF69
:100CF0007FEC17F025EC14F0F3CF01F0F4CF02F005
:100D0000E9CF03F0880F0401856F130E0120866F71
:100D1000000E0220876F000E0320886F8A948A9647
:100D200093949396FBEC0CF011EC0CF09280800EF7
:100D3000006E0F0E016E0F0E036E380E002603506C
:100D40000122800E026E0F0E036E800E005E0350B5
:100D5000015A0F0E056E380E0226055003220F0EA3
:100D6000056E800E025E0550035A02C0E9FF03C003
:100D7000EAFFEFCF02F0029000C0E9FF01C0EAFFF6
:100D800002C0EFFF9282800E006E0F0E016E0F0EFA
:100D9000036E380E002603500122800E026E0F0EE5
:100DA000036E800E005E0350015A0F0E056E380E62
:100DB0000226055003220F0E056E800E025E0550BE
:100DC000035A02C0E9FF03C0EAFFEFCF02F002922C
:100DD00000C0E9FF01C0EAFF02C0EFFF9284800E6D
:100DE000006E0F0E016E0F0E036E380E00260350BC
:100DF0000122800E026E0F0E036E800E005E035005
:100E0000015A0F0E056E380E0226055003220F0EF2
:100E1000056E800E025E0550035A02C0E9FF03C052
:100E2000EAFFEFCF02F0029400C0E9FF01C0EAFF41
:100E300002C0EFFF9288800E006E0F0E016E0F0E43
:100E4000036E380E002603500122800E026E0F0E34
:100E5000036E800E005E0350015A0F0E056E380EB1
:100E60000226055003220F0E056E800E025E05500D
:100E7000035A02C0E9FF03C0EAFFEFCF02F0029875
:100E800000C0E9FF01C0EAFF02C0EFFF0401816B6F
:100E90000401346B0401826B0401356B0401836B24
:100EA0000401366B0401846B0401376BE4CF05F059
:100EB000E4CF03F0E4CF02F0E4CF01F0E4CF00F0A0
:100EC0001200D9CFE5FFE1CFD9FF00C0E5FF01C097
:100ED000E5FF02C0E5FF03C0E5FF04C0E5FF05C074
:100EE000E5FF06C0E5FF07C0E5FF08C0E5FF09C054
:100EF000E5FF0AC0E5FF0BC0E5FF0CC0E5FF0DC034
:100F0000E5FF0EC0E5FF0FC0E5FF020EDBCF00F0EE
:100F1000030EDBCF01F0040EDBCF02F0050EDBCFBA
:100F200003F0060EDBCF04F0070EDBCF05F0080E52
:100F3000DBCF06F0200E076E086A06C009F00A6AC9
:100F40000B6A0C6AE56AE56AE56A0950E56E0350CA
:100F5000E56E0250E56E0150E56E0050E56E3DEC29
:100F600008F00D6E080EE126300E0D263A0E0D5CCF
:100F700005E30D500E6E270E0E240D6EFF0E072694
:100F80000822E00E07240E6E000E08200F6E0EC021
:100F9000E9FF0FC0EAFF0DC0EFFF0C50E56E0B50EC
:100FA000E56E0A50E56E0950E56E0350E56E02509D
:100FB000E56E0150E56E0050E56EDAEC08F0006E6B
:100FC000F3CF01F0F4CF02F0E9CF03F0080EE126F1
:100FD0000050011002100310D8A4AFD707C000F0D2
:100FE00008C001F004C002F005C003F000C004F026
:100FF00001C005F0004A012AE00E0426000E052279
:1010000004C0E9FF05C0EAFFEFCF04F002C0E9FF2A
:1010100003C0EAFF04C0EFFF024A032A000E015C8E
:1010200002E1200E005CE2E302C0E9FF03C0EAFF38
:10103000000EEF6AE4CF0FF0E4CF0EF0E4CF0DF036
:10104000E4CF0CF0E4CF0BF0E4CF0AF0E4CF09F0EA
:10105000E4CF08F0E4CF07F0E4CF06F0E4CF05F0EA
:10106000E4CF04F0E4CF03F0E4CF02F0E4CF01F0EA
:10107000E4CF00F0E4CFD9FF1200D9CFE5FFE1CFF4
:10108000D9FF00C0E5FF01C0E5FF02C0E5FF03C0D6
:10109000E5FF04C0E5FF05C0E5FF06C0E5FF07C0AA
:1010A000E5FF08C0E5FF09C0E5FF0AC0E5FF020E45
:1010B000DBCF00F0030EDBCF01F0040EDBCF02F03C
:1010C000050EDBCF03F0060EDBCF04F0070EDBCFFF
:1010D00005F0080EDBCF06F0090EDBCF07F0086A3B
:1010E000045005100610071005E1E968F468F3687C
:1010F000E86847D0096A0750800BE8440A6E0A5036
:101100001BE1045004260536063607360750035CFB
:1011100008E10650025C05E10550015C02E1045063
:10112000005C06E2D890073206320532043204D061
:10113000092A09C008F0DFD70750035C08E1065010
:10114000025C05E10550015C02E10450005C08E32B
:101150000450005E0550015A0650025A0750035AC7
:10116000D890073206320532043208C009F008066A
:101170000950E2E103C0E9FF02C0F4FF01C0F3FF40
:101180000050E4CF0AF0E4CF09F0E4CF08F0E4CF58
:1011900007F0E4CF06F0E4CF05F0E4CF04F0E4CFAD
:1011A00003F0E4CF02F0E4CF01F0E4CF00F0E4CFAD
:1011B000D9FF1200D9CFE5FFE1CFD9FF00C0E5FF8D
:1011C00001C0E5FF02C0E5FF03C0E5FF04C0E5FF85
:1011D00005C0E5FF06C0E5FF07C0E5FF08C0E5FF65
:1011E00009C0E5FF0AC0E5FF0BC0E5FF0CC0E5FF45
:1011F0000DC0E5FF020EDBCF00F0030EDBCF01F0E8
:10120000040EDBCF02F0050EDBCF03F0060EDBCFC2
:1012100004F0070EDBCF05F0080EDBCF06F0090E59
:10122000DBCF07F0086A096A0A6A0B6A200E0C6EA7
:101230000350800BE8440D6E005000260136023644
:1012400003360850082609360A360B360D50D8A446
:10125000088007500B5C08E106500A5C05E1055068
:10126000095C02E10450085C09E30450085E055083
:10127000095A06500A5A07500B5A00800C040D6E8A
:101280000DC00CF00D50D4E103C0E9FF02C0F4FF23
:1012900001C0F3FF0050E4CF0DF0E4CF0CF0E4CF39
:1012A0000BF0E4CF0AF0E4CF09F0E4CF08F0E4CF8C
:1012B00007F0E4CF06F0E4CF05F0E4CF04F0E4CF8C
:1012C00003F0E4CF02F0E4CF01F0E4CF00F0E4CF8C
:1012D000D9FF120000C0E5FF01C0E5FF03C0E5FF34
:1012E00004C0E5FF05C0E5FF06C0E5FF07C0E5FF58
:1012F00008C0E5FF09C0E5FF0AC0E5FF0BC0E5FF38
:1013000036CF00F037CF01F00F01363F01D0372B39
:101310000050E56E03EC17F0E652076E046A056AAA
:10132000066A36CF00F037CF01F00F01363F01D00B
:10133000372B0050E56E03EC17F0E6520B6A0A6E8D
:10134000086A0850041205120A5006120B500712C0
:1013500036CF00F037CF01F00F01363F01D0372BE9
:101360000050E56E03EC17F0E652036E006A03C00E
:1013700001F0E86A03BEFF0E086E096E0050041209
:1013800001500512085006120950071236CF00F01E
:1013900037CF01F00F01363F01D0372B0050E56EFB
:1013A00003EC17F0E652016A04120150051206120E
:1013B000071207C0E9FF06C0F4FF05C0F3FF0450A1
:1013C000E4CF0BF0E4CF0AF0E4CF09F0E4CF08F06B
:1013D000E4CF07F0E4CF06F0E4CF05F0E4CF04F06B
:1013E000E4CF03F0E4CF01F0E4CF00F0120000C03E
:1013F000E5FF01C0E5FF02C0E5FF03C0E5FF04C053
:10140000E5FF04013F5104013E1901E15FD03FC4F3
:1014100000F0002A009E600E0024016E026A000E99
:10142000022201C0E9FF02C0EAFFEFCF49F41F0E1C
:10143000040149173FC448F4495104014827482B87
:10144000482B489F4FEC14F0016E015003E1016AF4
:10145000012A01D0016A4FEC14F00401496F800E9B
:101460004915026E1F0E4915036E03C004F003C038
:1014700049F4045003E13EC43FF43BD001501BE06B
:10148000025022E04FEC14F0006E040149070050B6
:10149000420A1AE000504E0A03E171EC11F014D038
:1014A0000050460A03E145EC17F00ED00050490AFF
:1014B0000BE1FF0009D03FC44AF4025003E020ECE6
:1014C00013F002D0C6EC14F048C43FF40F012651CB
:1014D0000F01271906E00401405103E184EC0AF0F2
:1014E00008D08BB006D00401405103E1ACB211EC3E
:1014F00017F0E4CF04F0E4CF03F0E4CF02F0E4CF40
:1015000001F0E4CF00F0120000C0E5FF01C0E5FFEC
:1015100002C0E5FF03C0E5FFACA276D054EC15F0A5
:10152000006E005005E10F01276B0F01266B6CD098
:1015300027CF01F00050012654EC15F0026E000692
:101540000250230A1FE1010E005CD8A05BD054ECCE
:1015500015F0026E690A03E1F5EC13F053D0025066
:10156000720A03E111EC17F04DD00250730A01E04A
:1015700049D08B80AB869D8A9D98AE50AE50AB987B
:10158000AB8840D00250430A05E00250420A01E015
:1015900039D001D0008E00C042F400500401006F29
:1015A000010E0401436F0F012751011814E054ECA0
:1015B00015F0026E04014227000E04014325006E5F
:1015C000036A040E032200C0E9FF03C0EAFF02C061
:1015D000EFFF432BE8D7000E04014325006E026A9B
:1015E000040E02220401421D036E032A00C0E9FF1B
:1015F00002C0EAFF03C0EFFF0401432B43C440F4E1
:1016000004013A6B01C027FFE4CF03F0E4CF02F0FE
:10161000E4CF01F0E4CF00F01200D9CFE5FFE1CF35
:10162000D9FF00C0E5FF01C0E5FF02C0E5FF03C030
:10163000E5FF04C0E5FF05C0E5FF06C0E5FF07C004
:10164000E5FF020EDBCF00F0030EDBCF01F0040E4E
:10165000DBCF02F0050EDBCF03F002C006F0065030
:10166000046E800A33E100C0E9FF01C0F3FF0250BD
:10167000AEEC15F0056EF3CF06F0F4CF07F003C023
:10168000E5FF05C0E9FF06C0F3FF075050EC17F077
:1016900000C0E9FF01C0F3FF0250AEEC15F0056E8B
:1016A000F3CF06F0F4CF07F0052A02E3064A072A33
:1016B00005C0E5FF06C0F4FF07C0F6FF00C0E9FF64
:1016C00001C0F3FF0250F4EC16F01DD004AA1BD0A9
:1016D000047A045004E1035084EC17F014D0045051
:1016E000010A04E1035002EC00F00DD004500F0A8F
:1016F00004E10350C4EC13F006D004500E0A03E1D9
:10170000035094EC17F0E4CF07F0E4CF06F0E4CFF9
:1017100005F0E4CF04F0E4CF03F0E4CF02F0E4CF2F
:1017200001F0E4CF00F0E4CFD9FF1200D9CFE5FFFC
:10173000E1CFD9FF00C0E5FF01C0E5FF02C0E5FF32
:1017400003C0E5FF04C0E5FF05C0E5FF06C0E5FFF7
:1017500007C0E5FF020EDBCF00F0030EDBCF01F088
:10176000040EDBCF02F0050EDBCF03F027CF28FFFE
:101770000F0126510F01285F280703C004F0056AF6
:10178000030E0426D8B0052A28CF06F0076A0750B2
:10179000800FF36E0550800FF35C02E10450065C8D
:1017A00002E2E8682BD0020E035C02E2E86A26D06F
:1017B00003060350E56E6FEC12F0E652046A035024
:1017C000045C14E204500024056EE86A0120066EF1
:1017D000E86A022005C0E9FF06C0F3FFD2EC16F06C
:1017E000042AE56E6FEC12F0E652E9D727CF28FF06
:1017F0000F0126510F01285F2807E86AE4CF07F0A0
:10180000E4CF06F0E4CF05F0E4CF04F0E4CF03F03A
:10181000E4CF02F0E4CF01F0E4CF00F0E4CFD9FF51
:10182000120000C0E5FF01C0E5FF02C0E5FF03C0F4
:10183000E5FF05C0E5FF938C810E006E0F0E016E73
:101840000F0E036E380E0026035001220F0E036E9A
:10185000800E005E0350015A810E026E0F0E036E61
:101860000F0E056E380E0226055003220F0E056E70
:10187000800E025E0550035A02C0E9FF03C0EAFF72
:10188000EFCF02F0029C00C0E9FF01C0EAFF02C0F6
:10189000EFFF938E810E006E0F0E016E0F0E036E22
:1018A000380E0026035001220F0E036E800E005EDC
:1018B0000350015A810E026E0F0E036E0F0E056E5D
:1018C000380E0226055003220F0E056E800E025EB2
:1018D0000550035A02C0E9FF03C0EAFFEFCF02F050
:1018E000029E00C0E9FF01C0EAFF02C0EFFF8A9C30
:1018F0008A9E939C939EE4CF05F0E4CF03F0E4CF5F
:1019000002F0E4CF01F0E4CF00F0120000C0E5FFE8
:1019100001C0E5FF02C0E5FF03C0E5FF05C0E5FF2C
:10192000938C810E006E0F0E016E0F0E036E380E3B
:101930000026035001220F0E036E800E005E03503E
:10194000015A810E026E0F0E036E0F0E056E380ED9
:101950000226055003220F0E056E800E025E055012
:10196000035A02C0E9FF03C0EAFFEFCF02F0029C76
:1019700000C0E9FF01C0EAFF02C0EFFF938E810EB5
:10198000006E0F0E016E0F0E036E380E0026035010
:1019900001220F0E036E800E005E0350015A810E6D
:1019A000026E0F0E036E0F0E056E380E02260550E6
:1019B00003220F0E056E800E025E0550035A02C010
:1019C000E9FF03C0EAFFEFCF02F0029E00C0E9FF8B
:1019D00001C0EAFF02C0EFFF8A8C8A8E939C939E1F
:1019E000E4CF05F0E4CF03F0E4CF02F0E4CF01F060
:1019F000E4CF00F0120000C0E5FF01C0E5FF02C027
:101A0000E5FF03C0E5FF05C0E5FF9384810E006E8E
:101A10000F0E016E0F0E036E380E002603500122CA
:101A20000F0E036E800E005E0350015A810E026E8F
:101A30000F0E036E0F0E056E380E022605500322A0
:101A40000F0E056E800E025E0550035A02C0E9FFBC
:101A500003C0EAFFEFCF02F0029400C0E9FF01C02B
:101A6000EAFF02C0EFFF9386810E006E0F0E016E3B
:101A70000F0E036E380E0026035001220F0E036E68
:101A8000800E005E0350015A810E026E0F0E036E2F
:101A90000F0E056E380E0226055003220F0E056E3E
:101AA000800E025E0550035A02C0E9FF03C0EAFF40
:101AB000EFCF02F0029600C0E9FF01C0EAFF02C0CA
:101AC000EFFF8A948A9693949396E4CF05F0E4CF3F
:101AD00003F0E4CF02F0E4CF01F0E4CF00F0120015
:101AE00000C0E5FF01C0E5FF02C0E5FF03C0E5FF60
:101AF00005C0E5FF9384810E006E0F0E016E0F0E80
:101B0000036E380E0026035001220F0E036E800E66
:101B1000005E0350015A810E026E0F0E036E0F0E0F
:101B2000056E380E0226055003220F0E056E800E3C
:101B3000025E0550035A02C0E9FF03C0EAFFEFCF7F
:101B400002F0029400C0E9FF01C0EAFF02C0EFFF0B
:101B50009386810E006E0F0E016E0F0E036E380E0F
:101B60000026035001220F0E036E800E005E03500C
:101B7000015A810E026E0F0E036E0F0E056E380EA7
:101B80000226055003220F0E056E800E025E0550E0
:101B9000035A02C0E9FF03C0EAFFEFCF02F002964A
:101BA00000C0E9FF01C0EAFF02C0EFFF8A848A8615
:101BB00093949396E4CF05F0E4CF03F0E4CF02F0E2
:101BC000E4CF01F0E4CF00F01200D9CFE5FFE1CF80
:101BD000D9FF00C0E5FF01C0E5FF02C0E5FF03C07B
:101BE000E5FF04C0E5FF05C0E5FF06C0E5FF020E06
:101BF000DBCF00F0030EDBCF01F0040EDBCF02F0F1
:101C0000050EDBCF03F0D88001AED890046A04360D
:101C1000045007E0011C066E001C056E054A062AEA
:101C200004D000C005F001C006F0D88003AED89003
:101C300007E3031C016E021C006E004A012A04D057
:101C400002C000F003C001F00150E56E0050E56EE7
:101C50000650E56E0550E56E89EC0FF0006EF3CF8F
:101C600001F0040EE12604500AE0011C036E001C82
:101C7000026E024A032A03C0F3FF025003D001C0E0
:101C8000F3FF0050E4CF06F0E4CF05F0E4CF04F01A
:101C9000E4CF03F0E4CF02F0E4CF01F0E4CF00F0B2
:101CA000E4CFD9FF1200D9CFE5FFE1CFD9FF00C0C3
:101CB000E5FF01C0E5FF02C0E5FF03C0E5FF04C08A
:101CC000E5FF05C0E5FF020EDBCF00F0030EDBCF22
:101CD00001F0040EDBCF02F0050EDBCF03F036CFB0
:101CE00004F037CF05F00F01363F01D0372B0350FA
:101CF000E56E0450E56E10EC15F0E652E65236CF74
:101D000004F037CF05F00F01363F01D0372B0250DA
:101D1000056EE56E0450E56E10EC15F0E652E652E5
:101D200036CF04F037CF05F00F01363F01D0372B07
:101D30000150056EE56E0450E56E10EC15F0E652AC
:101D4000E65236CF04F037CF05F00F01363F01D011
:101D5000372B0050E56E0450E56E10EC15F0E6529E
:101D6000E652E4CF05F0E4CF04F0E4CF03F0E4CF93
:101D700002F0E4CF01F0E4CF00F0E4CFD9FF12008D
:101D8000D9CFE5FFE1CFD9FF00C0E5FF01C0E5FFF6
:101D900002C0E5FF03C0E5FF04C0E5FF05C0E5FFA5
:101DA00006C0E5FF020EDBCF00F0030EDBCF01F033
:101DB000040EDBCF02F00401395119E16AEC09F09D
:101DC000036EF3CF04F0F4CF05F0E9CF06F003C0C3
:101DD000E5FF04C0F4FF05C0F6FF06C0F7FF00C032
:101DE000E9FF01C0F3FF0250E3EC16F01ED004013E
:101DF0003951010A1AE100C0E9FF01C0F3FF0250A6
:101E000034EC15F0006EF3CF01F0F4CF02F0E9CF1F
:101E100003F00350E56E0250E56E0150E56E005090
:101E2000E56E53EC0EF0040EE126E4CF06F0E4CFAD
:101E300005F0E4CF04F0E4CF03F0E4CF02F0E4CF08
:101E400001F0E4CF00F0E4CFD9FF1200D9CFE5FFD5
:101E5000E1CFD9FF00C0E5FF01C0E5FF02C0E5FF0B
:101E600003C0E5FF04C0E5FF05C0E5FF06C0E5FFD0
:101E7000020EDBCF00F0030EDBCF01F0040EDBCF50
:101E800002F0050EDBCF03F0060EDBCF04F0070EE9
:101E9000DBCF05F0080EDBCF06F0D88003AED8907C
:101EA00015E306500A0A12E104C0E9FF05C0EAFF83
:101EB0002D0EEF6E044A052A031E021E011E006C41
:101EC00005E1012A03E1022AD8B4032A0650E56E8F
:101ED0000550E56E0450E56E0350E56E0250E56E68
:101EE0000150E56E0050E56E61EC07F0070EE1264B
:101EF000E4CF06F0E4CF05F0E4CF04F0E4CF03F044
:101F0000E4CF02F0E4CF01F0E4CF00F0E4CFD9FF5A
:101F10001200D9CFE5FFE1CFD9FF00C0E5FF01C036
:101F2000E5FF02C0E5FF03C0E5FF04C0E5FF05C013
:101F3000E5FF06C0E5FF020EDBCF00F0030EDBCFAE
:101F400001F0040EDBCF02F0050EDBCF03F0046AD4
:101F5000056A0350800BE844066E065011E10250FA
:101F6000022603360350015C02E10250005C04E2E9
:101F7000D8900332023204D0052A05C004F0E9D714
:101F80000350015C02E10250005C04E30250005E79
:101F90000350015AD8900332023204C005F00406FF
:101FA0000550EEE101C0F3FF0050E4CF06F0E4CFAE
:101FB00005F0E4CF04F0E4CF03F0E4CF02F0E4CF87
:101FC00001F0E4CF00F0E4CFD9FF120000C0E5FF3C
:101FD000040134510401811910E104013551040157
:101FE00082190BE1040136510401831906E1040151
:101FF00037510401841901E139D0420EC4EC13F0C9
:10200000410EC4EC13F004013451006E300E002672
:102010000050C4EC13F004013551006E300E002660
:102020000050C4EC13F004013651006E300E00264F
:102030000050C4EC13F004013751006E300E00263E
:102040000050C4EC13F00A0EC4EC13F00401345138
:102050000401816F040135510401826F040136517E
:102060000401836F040137510401846FE4CF00F051
:10207000120000C0E5FF01C0E5FF02C0E5FF03C09C
:10208000E5FF3FC400F0016A4AC402F0036A02504F
:10209000005E0350015AE56A800EE56E0150E56E60
:1020A0000050E56EE5EC0DF0006E040EE126000632
:1020B0004AC401F0430EC4EC13F0200EC4EC13F03C
:1020C000005020E0600E0124026E036A000E03221D
:1020D00002C0E9FF03C0EAFFEFCF02F0E56A025059
:1020E000E56E000EE56E2E0EE56E3A0EE56EB3EC73
:1020F00011F0050EE126012A0150800A01E1016A72
:102100000006DED7E4CF03F0E4CF02F0E4CF01F025
:10211000E4CF00F01200D9CFE5FFE1CFD9FF00C036
:10212000E5FF01C0E5FF02C0E5FF03C0E5FF04C015
:10213000E5FF020EDBCF00F0030EDBCF01F0040E53
:10214000DBCF02F00401395111E190EC13F0036E82
:10215000F3CF04F003C0E5FF04C0F4FF00C0E9FFC3
:1021600001C0F3FF02502DEC17F016D004013951D5
:10217000010A12E100C0E9FF01C0F3FF02506DEC5B
:1021800016F0006EF3CF01F00150E56E0050E56EE1
:1021900032EC12F0E652E652E4CF04F0E4CF03F062
:1021A000E4CF02F0E4CF01F0E4CF00F0E4CFD9FFB8
:1021B0001200E60EF66E2E0EF76E000EF86E090097
:1021C000F550056E0900F550066E04E1056702D072
:1021D00026EF11F00900F550006E0900F550016E70
:1021E0000900F550026E09000900F550E96E09007A
:1021F000F550EA6E090009000900F550036E090068
:10220000F550046E09000900F6CF07F0F7CF08F08B
:10221000F8CF09F000C0F6FF01C0F7FF02C0F8FFD9
:10222000035002E1045007E00900F550EE6E03068A
:10223000F8E20406F9D707C0F6FF08C0F7FF09C0A7
:10224000F8FF050601E20606E5EF10F0120000C0F7
:10225000E5FF01C0E5FF02C0E5FF03C0E5FFF7ECC5
:1022600009F00EEC04F025EC14F0006EF3CF01F051
:10227000F4CF02F0E9CF03F004018551005E8651EE
:10228000015A8751025A8851035A039E3F0E035C3C
:1022900008E1FF0E025C05E1FF0E015C02E1FF0EAA
:1022A000005C16E225EC14F0F3CF01F0F4CF02F05D
:1022B000E9CF03F0880F0401856F130E0120866FAC
:1022C000000E0220876F000E0320886FE6EC0FF0EF
:1022D000E4CF03F0E4CF02F0E4CF01F0E4CF00F06C
:1022E000120000C0E5FF01C0E5FF02C0E5FF4FECB2
:1022F00014F0006E4FEC14F0016E0050026ED00E20
:102300000224006E0A0E005C05E30050026EF90E16
:102310000224006E0150026ED00E0224016E0A0EDD
:10232000015C05E30150026EF90E0224016E080EF5
:10233000005C12E2100E015CD8B00ED00038F00B39
:102340000124006EE6EC12F0016E015005E1005030
:10235000E56EE3EC15F0E652E4CF02F0E4CF01F0D5
:10236000E4CF00F01200D9CFE5FFE1CFD9FF00C0E4
:10237000E5FF01C0E5FF02C0E5FF020ED924006EB3
:10238000000EDA20016E800E026E030E0026000E93
:10239000012202220250E56E0150E56E0050E56E0A
:1023A000040EDBCFE5FF030EDBCFE5FF020EDBCF34
:1023B000E5FF0F012F51E56E2E51E56E2D51E56EB3
:1023C0000EEC00F0006EF3CF01F0090EE12601C023
:1023D000F3FF0050E4CF02F0E4CF01F0E4CF00F0CF
:1023E000E4CFD9FF1200D9CFE5FFE1CFD9FF00C07C
:1023F000E5FF01C0E5FF02C0E5FF03C0E5FF020EF7
:10240000DBCF00F0030EDBCF01F0040EDBCF02F0D8
:10241000040139510DE141EC16F0036E03C0E5FFF4
:1024200000C0E9FF01C0F3FF025050EC17F00FD0DD
:1024300004013951010A0BE100C0E9FF01C0F3FFBB
:102440000250D2EC16F0E56EA0EC14F0E652E4CFA8
:1024500003F0E4CF02F0E4CF01F0E4CF00F0E4CFEA
:10246000D9FF1200D9CFE5FFE1CFD9FF00C0E5FFCA
:1024700001C0E5FF02C0E5FF03C0E5FF020EDBCFB0
:1024800000F0030EDBCF01F036CF02F037CF03F0C0
:102490000F01363F01D0372B0150E56E0250E56E3B
:1024A00010EC15F0E652E65236CF02F037CF03F0CB
:1024B0000F01363F01D0372B0050E56E0250E56E1C
:1024C00010EC15F0E652E652E4CF03F0E4CF02F050
:1024D000E4CF01F0E4CF00F0E4CFD9FF1200D9CF70
:1024E000E5FFE1CFD9FF00C0E5FF01C0E5FF02C075
:1024F000E5FF03C0E5FF04C0E5FF020EDBCF00F0FF
:1025000026CF01F0026A014A022A27CF03F0046AAB
:102510000150031803E10250041801E001D00ED06D
:10252000000E0F012625016E026A070E022201C06D
:10253000E9FF02C0EAFF00C0EFFF262BE4CF04F062
:10254000E4CF03F0E4CF02F0E4CF01F0E4CF00F0F9
:10255000E4CFD9FF1200D9CFE5FFE1CFD9FF00C00A
:10256000E5FF01C0E5FF02C0E5FF03C0E5FF020E85
:10257000DBCF00F0016A4AC402F0036A0250002671
:1025800003500122E56A800EE56E0150E56E0050B1
:10259000E56EE5EC0DF0006EF3CF01F0040EE126E0
:1025A000600E0026000E012200C0E9FF01C0EAFF14
:1025B000EFCF00F00050E4CF03F0E4CF02F0E4CF1F
:1025C00001F0E4CF00F0E4CFD9FF120000C0E5FF36
:1025D00001C0E5FF02C0E5FF010E006E4FEC14F0F4
:1025E000016E01C002F0015023E00050E56E03ECE3
:1025F00017F0016EE652015010E10A0E005C0BE28A
:102600000A0E006EE56E03EC17F0016EE652015003
:1026100004E1E8680ED0E8680CD00150021802E02E
:10262000E86807D0002A1B0E005CD8E3E86801D0F8
:10263000E86AE4CF02F0E4CF01F0E4CF00F012004A
:1026400000C0E5FF01C0E5FF4FEC14F0006E4C0A3E
:1026500003E14FEC14F027D00050450A24E1000EAE
:10266000E56E0A0EE56ED20EE56EB3EC11F0030EC8
:10267000E1268EEC17F0006E00C001F0000601505C
:102680000FE04FEC14F0E56AE56E000EE56E0A0E01
:10269000E56ED40EE56EB3EC11F0050EE126ECD735
:1026A0000A0EC4EC13F0E4CF01F0E4CF00F0120006
:1026B000F3CFE5FFF4CFE5FFE9CFE5FFEACFE5FF94
:1026C000FACFE5FFFBCFE5FF0F01245104018C6F2A
:1026D0000F01255104018D6FD6508A6FD7508B6F33
:1026E000F2A411D00F01243F01D0252BF2940F0149
:1026F000245104018C6F0F01255104018D6FD650B8
:102700008A6FD7508B6FE4CFFBFFE4CFFAFFE4CFA3
:10271000EAFFE4CFE9FFE4CFF4FFE4CFF3FF1100D9
:1027200000C0E5FF01C0E5FF02C0E5FF03C0E5FF13
:1027300036CF00F037CF01F00F01363F01D0372BF5
:102740000050E56E03EC17F0E652036E026A36CFD6
:1027500000F037CF01F00F01363F01D0372B00508A
:10276000E56E03EC17F0E652016A02120150031203
:1027700003C0F3FF0250E4CF03F0E4CF02F0E4CF54
:1027800001F0E4CF00F0120000C0E5FF01C0E5FF5A
:1027900002C0E5FF006E000E0F012B25016E026ADC
:1027A0000F0E022201C0E9FF02C0EAFF00C0EFFFE6
:1027B000220E2B5D01E22B2B00500A0A0FE10F01C4
:1027C0002B51E56E800EE56E0F0EE56E000EE56E88
:1027D00096EC0BF0040EE1260F012B6BE4CF02F018
:1027E000E4CF01F0E4CF00F012000F01266B0F01DF
:1027F000276B0F0128698B809490B06A3F0EAF6EF3
:10280000B886AC8AAC84AC8CAC90AB8CAB8E04013B
:10281000416B04013B6B04013E6B04013F6B0401FF
:10282000406B000EE56A03EC17F00F012A6FE652C9
:102830009F989F9A010E0F01296F0F012D6B2E6B30
:102840002F0E2F6F11EC17F012000F01245104010D
:10285000906F0F0125510401916FD6508E6FD750A4
:102860008F6F90510F01241905E1040191510F015F
:1028700025190CE00F0124510401906F0F0125511F
:102880000401916FD6508E6FD7508F6F91C4E9FFBE
:1028900090C4F4FF8FC4F3FF04018E51120000C0F6
:1028A000E5FF01C0E5FF04013F510401481905E0BF
:1028B00004013F5104013E1902E1E86A15D03FC40A
:1028C00000F004013F2B016A600E0026000E012279
:1028D00000C0E9FF01C0EAFFEFCF00F03F51800ADE
:1028E00002E104013F6B0050E4CF01F0E4CF00F0BF
:1028F000120000C0E5FF88EC17F00401896B806BC3
:102900008983006A89B3002A0050010BE844F46E01
:102910008051FD0BF410806FD58ED59CD59AD5884B
:10292000D596D594D582D580F28AF184D08EF28E58
:10293000F28CBA80FF0EBB68BA84E4CF00F01200BC
:10294000D9CFE5FFE1CFD9FF00C0E5FF01C0E5FF2A
:1029500002C0E5FF020EDBCF00F036CF01F037CF2B
:1029600002F00F01363F01D0372B0050E56E0150C9
:10297000E56E10EC15F0E652E652E4CF02F0E4CF3B
:1029800001F0E4CF00F0E4CFD9FF120000C0E5FF72
:1029900001C0E5FF4FEC14F0006E0A0A0AE14FECAB
:1029A00014F0016E015003E070EC0DF002D0FBEC6E
:1029B0000CF000500B0A0AE14FEC14F0006E0050CE
:1029C00003E086EC0CF002D011EC0CF0E4CF01F047
:1029D000E4CF00F01200D8CFE5FFE0CFE5FFE56ED1
:1029E000F3CFE5FFF4CFE5FFE9CFE5FFEACFE5FF61
:1029F000FACFE5FFFBCFE5FF6CEC05F0E4CFFBFF82
:102A0000E4CFFAFFE4CFEAFFE4CFE9FFE4CFF4FF3D
:102A1000E4CFF3FFE450E4CFE0FFE4CFD8FF1000B1
:102A2000D9CFE5FFE1CFD9FF00C0E5FF020EDBCF34
:102A300000F0030EDBCFA8FF00C0A9FFA69EA69C56
:102A4000A684F29EF29C550EA76EAA0EA76EA682D1
:102A5000A6A202D00000FCD7A694F28EF28CE4CF9E
:102A600000F0E4CFD9FF1200E8AE0AD0F3CFEAFFBE
:102A7000EE50EECFF3FFEECFF4FFEECFE9FF120002
:102A8000E8BCA1EF17F0E9CFF6FFF3CFF7FFF86E40
:102A90000900F5500900F5CFF3FF0900F5CFF4FF69
:102AA0000900F5CFE9FF120000C0E5FF01C0E5FF16
:102AB0000F0126510F01271902E1E86A0FD0000E1D
:102AC0000F012725006E016A070E012200C0E9FFF1
:102AD00001C0EAFFEFCF00F0272B0050E4CF01F058
:102AE000E4CF00F01200F2CFEAFFF29EA69EA69C71
:102AF000A684E9CFA9FFF3CFAAFFE4CFA8FF5BEC40
:102B000017F0F4CFA8FF5BEC17F0F6CFA8FF5BEC53
:102B100017F0F7CFA8FF5BEC17F0A694EABEF28E91
:102B20001200F2CFF6FFF29EA69EA69CE9CFA9FF67
:102B3000F3CFAAFFA680A850A94AAA2AA680A8CFA8
:102B4000F3FFA94AAA2AA680A8CFF4FFA94AAA2A75
:102B5000A680A8CFEAFFF6BEF28E1200E8AE08D03B
:102B6000F3CFEAFFEE50EECFF3FFEECFF4FF12000B
:102B7000E8BCA3EF17F0E9CFF6FFF3CFF7FFF86E4D
:102B80000900F5500900F5CFF3FF0900F5CFF4FF78
:102B90001200F2CFEAFFF29EA69EA69CA684E9CF81
:102BA000A9FFF3CFAAFFE4CFA8FF5BEC17F0F4CFA7
:102BB000A8FF5BEC17F0F6CFA8FF5BEC17F0A6942C
:102BC000EABEF28E1200D9CFE5FFE1CFD9FF00C0F7
:102BD000E5FF020EDBCF00F000C02AFF0050E56EDB
:102BE000000EE56A10EC15F0E652E652E4CF00F074
:102BF000E4CFD9FF1200F2CFF6FFF29EA69EA69C6C
:102C0000E9CFA9FFF3CFAAFFA680A850A94AAA2A14
:102C1000A680A8CFF3FFA94AAA2AA680A8CFF4FFCE
:102C2000F6BEF28E120000C0E5FF01C0E5FF600EA7
:102C300004013F25006E016A000E012200C0E9FF79
:102C400001C0EAFFEFCF00F00050E4CF01F0E4CF85
:102C500000F01200D9CFE5FFE1CFD9FF00C0E5FFBA
:102C6000020EDBCF00F0610E005C05E37B0E005C22
:102C700002E2010E01D0E86AE4CF00F0E4CFD9FF10
:102C8000120000C0E5FF01C0E5FF36CF00F037CFEE
:102C900001F00F01363F01D0372B0050E56E03ECF9
:102CA00017F0E652E4CF01F0E4CF00F01200D9CFE4
:102CB000E5FFE1CFD9FF00C0E5FF020EDBCF00F05A
:102CC00000C029FF005004E111EC17F09D9A9D9877
:102CD000E4CF00F0E4CFD9FF1200E8AE06D0F3CF86
:102CE000EAFFEE50EECFF3FF1200E8BC9FEF17F0C3
:102CF000E9CFF6FFF3CFF7FFF86E0900F5500900B2
:102D0000F5CFF3FF1200F2CFEAFFF29EA69EA69C3B
:102D1000A684E9CFA9FFF3CFAAFFE4CFA8FF5BEC1D
:102D200017F0F4CFA8FF5BEC17F0A694EABEF28E82
:102D3000120018EEFFF028EEFFF0F86AA68EA69CAF
:102D4000E9680E0EEA6E0068000EED6A0050FDE1C3
:102D5000D9EC10F006EC00F0FFD7F2CFF6FFF29EB0
:102D6000A69EA69CE9CFA9FFF3CFAAFFA680A850F4
:102D7000A94AAA2AA680A8CFF3FFF6BEF28E1200B7
:102D8000F2CFEAFFF29EA69EA69CA684E9CFA9FFF9
:102D9000F3CFAAFFE4CFA8FF5BEC17F0A694EABE3E
:102DA000F28E1200E8AE04D0F3CFEAFFEE5012002C
:102DB000E8BC9DEF17F0E9CFF6FFF3CFF7FFF86E11
:102DC0000900F5501200E8AE0BD0F3CFEAFFE4CFD4
:102DD000EEFFF4CFEEFFF6CFEEFFF7CFEEFF1200DF
:102DE000E8BC9BEF17F01200E8AE09D0F3CFEAFF82
:102DF000E4CFEEFFF4CFEEFFF6CFEEFF1200E8BC1B
:102E0000A5EF17F01200D9CFE5FFE1CFD9FF020EF1
:102E1000DBCFA9FFA69CA69EA680A850E4CFD9FF31
:102E20001200ACA2FED78B80AE500000AE50AB9823
:102E3000AB88AB869D8A9D98120025642000F2CF56
:102E4000F6FFF29EA69EA69CE9CFA9FFF3CFAAFFAC
:102E5000A680A850F6BEF28E1200E8AE07D0F3CFDF
:102E6000EAFFE4CFEEFFF4CFEEFF1200E8BC99EFEB
:102E700017F01200700ED36E9B8CFF0E9268936851
:102E800094689668626AF19E120000C0E5FFE6EC65
:102E900012F0006E005001E1FF00E4CF00F01200DC
:102EA000E8AE05D0F3CFEAFFE4CFEEFF1200E8BCB6
:102EB00097EF17F01200550EA76EAA0EA76EA68206
:102EC000A6B2FED7A94AAA2A010E0401396F1C0E28
:102ED0000F01366F376B12000401396B1C0E0F01A6
:102EE000366F376B12000100F42E0000230F000034
:102EF0000A0000000000000000FF0000000079EC64
:102F000014F0F5EC13F01200ACA2FED7AD6E120077
:102F10003AEC17F0120004013F511200040149512C
:102F200012000F0129511200E8CF7FFF1200C0EFFD
:102F300016F083EF16F073EF15F01FEF17F0ADEFFB
:0E2F400016F091EF15F0FBEF15F0C9EF15F04C
:00000001FF
